{
    "contractName": "bEth",
    "abi": [
        {
            "inputs": [
                {
                    "internalType": "uint256",
                    "name": "tokenEthunit_",
                    "type": "uint256"
                }
            ],
            "stateMutability": "nonpayable",
            "type": "constructor"
        },
        {
            "anonymous": false,
            "inputs": [
                {
                    "indexed": true,
                    "internalType": "address",
                    "name": "account",
                    "type": "address"
                },
                {
                    "indexed": true,
                    "internalType": "address",
                    "name": "operator",
                    "type": "address"
                },
                {
                    "indexed": false,
                    "internalType": "bool",
                    "name": "approved",
                    "type": "bool"
                }
            ],
            "name": "ApprovalForAll",
            "type": "event"
        },
        {
            "anonymous": false,
            "inputs": [
                {
                    "indexed": true,
                    "internalType": "address",
                    "name": "reserve",
                    "type": "address"
                },
                {
                    "indexed": false,
                    "internalType": "address",
                    "name": "user",
                    "type": "address"
                },
                {
                    "indexed": true,
                    "internalType": "address",
                    "name": "onBehalfOf",
                    "type": "address"
                },
                {
                    "indexed": false,
                    "internalType": "uint256",
                    "name": "amount",
                    "type": "uint256"
                },
                {
                    "indexed": false,
                    "internalType": "uint256",
                    "name": "borrowRateMode",
                    "type": "uint256"
                },
                {
                    "indexed": false,
                    "internalType": "uint256",
                    "name": "borrowRate",
                    "type": "uint256"
                },
                {
                    "indexed": true,
                    "internalType": "uint16",
                    "name": "referral",
                    "type": "uint16"
                }
            ],
            "name": "Borrow",
            "type": "event"
        },
        {
            "anonymous": false,
            "inputs": [
                {
                    "indexed": true,
                    "internalType": "address",
                    "name": "reserve",
                    "type": "address"
                },
                {
                    "indexed": false,
                    "internalType": "address",
                    "name": "user",
                    "type": "address"
                },
                {
                    "indexed": true,
                    "internalType": "address",
                    "name": "onBehalfOf",
                    "type": "address"
                },
                {
                    "indexed": false,
                    "internalType": "uint256",
                    "name": "amount",
                    "type": "uint256"
                },
                {
                    "indexed": true,
                    "internalType": "uint16",
                    "name": "referral",
                    "type": "uint16"
                }
            ],
            "name": "Deposit",
            "type": "event"
        },
        {
            "anonymous": false,
            "inputs": [
                {
                    "indexed": true,
                    "internalType": "address",
                    "name": "target",
                    "type": "address"
                },
                {
                    "indexed": true,
                    "internalType": "address",
                    "name": "initiator",
                    "type": "address"
                },
                {
                    "indexed": true,
                    "internalType": "address",
                    "name": "asset",
                    "type": "address"
                },
                {
                    "indexed": false,
                    "internalType": "uint256",
                    "name": "amount",
                    "type": "uint256"
                },
                {
                    "indexed": false,
                    "internalType": "uint256",
                    "name": "premium",
                    "type": "uint256"
                },
                {
                    "indexed": false,
                    "internalType": "uint16",
                    "name": "referralCode",
                    "type": "uint16"
                }
            ],
            "name": "FlashLoan",
            "type": "event"
        },
        {
            "anonymous": false,
            "inputs": [
                {
                    "indexed": true,
                    "internalType": "address",
                    "name": "collateralAsset",
                    "type": "address"
                },
                {
                    "indexed": true,
                    "internalType": "address",
                    "name": "debtAsset",
                    "type": "address"
                },
                {
                    "indexed": true,
                    "internalType": "address",
                    "name": "user",
                    "type": "address"
                },
                {
                    "indexed": false,
                    "internalType": "uint256",
                    "name": "debtToCover",
                    "type": "uint256"
                },
                {
                    "indexed": false,
                    "internalType": "uint256",
                    "name": "liquidatedCollateralAmount",
                    "type": "uint256"
                },
                {
                    "indexed": false,
                    "internalType": "address",
                    "name": "liquidator",
                    "type": "address"
                },
                {
                    "indexed": false,
                    "internalType": "bool",
                    "name": "receiveAToken",
                    "type": "bool"
                }
            ],
            "name": "LiquidationCall",
            "type": "event"
        },
        {
            "anonymous": false,
            "inputs": [],
            "name": "Paused",
            "type": "event"
        },
        {
            "anonymous": false,
            "inputs": [
                {
                    "indexed": false,
                    "internalType": "address",
                    "name": "account",
                    "type": "address"
                }
            ],
            "name": "Paused",
            "type": "event"
        },
        {
            "anonymous": false,
            "inputs": [
                {
                    "indexed": true,
                    "internalType": "address",
                    "name": "reserve",
                    "type": "address"
                },
                {
                    "indexed": true,
                    "internalType": "address",
                    "name": "user",
                    "type": "address"
                }
            ],
            "name": "RebalanceStableBorrowRate",
            "type": "event"
        },
        {
            "anonymous": false,
            "inputs": [
                {
                    "indexed": true,
                    "internalType": "address",
                    "name": "reserve",
                    "type": "address"
                },
                {
                    "indexed": true,
                    "internalType": "address",
                    "name": "user",
                    "type": "address"
                },
                {
                    "indexed": true,
                    "internalType": "address",
                    "name": "repayer",
                    "type": "address"
                },
                {
                    "indexed": false,
                    "internalType": "uint256",
                    "name": "amount",
                    "type": "uint256"
                }
            ],
            "name": "Repay",
            "type": "event"
        },
        {
            "anonymous": false,
            "inputs": [
                {
                    "indexed": true,
                    "internalType": "address",
                    "name": "reserve",
                    "type": "address"
                },
                {
                    "indexed": false,
                    "internalType": "uint256",
                    "name": "liquidityRate",
                    "type": "uint256"
                },
                {
                    "indexed": false,
                    "internalType": "uint256",
                    "name": "stableBorrowRate",
                    "type": "uint256"
                },
                {
                    "indexed": false,
                    "internalType": "uint256",
                    "name": "variableBorrowRate",
                    "type": "uint256"
                },
                {
                    "indexed": false,
                    "internalType": "uint256",
                    "name": "liquidityIndex",
                    "type": "uint256"
                },
                {
                    "indexed": false,
                    "internalType": "uint256",
                    "name": "variableBorrowIndex",
                    "type": "uint256"
                }
            ],
            "name": "ReserveDataUpdated",
            "type": "event"
        },
        {
            "anonymous": false,
            "inputs": [
                {
                    "indexed": true,
                    "internalType": "address",
                    "name": "reserve",
                    "type": "address"
                },
                {
                    "indexed": true,
                    "internalType": "address",
                    "name": "user",
                    "type": "address"
                }
            ],
            "name": "ReserveUsedAsCollateralDisabled",
            "type": "event"
        },
        {
            "anonymous": false,
            "inputs": [
                {
                    "indexed": true,
                    "internalType": "address",
                    "name": "reserve",
                    "type": "address"
                },
                {
                    "indexed": true,
                    "internalType": "address",
                    "name": "user",
                    "type": "address"
                }
            ],
            "name": "ReserveUsedAsCollateralEnabled",
            "type": "event"
        },
        {
            "anonymous": false,
            "inputs": [
                {
                    "indexed": true,
                    "internalType": "bytes32",
                    "name": "role",
                    "type": "bytes32"
                },
                {
                    "indexed": true,
                    "internalType": "bytes32",
                    "name": "previousAdminRole",
                    "type": "bytes32"
                },
                {
                    "indexed": true,
                    "internalType": "bytes32",
                    "name": "newAdminRole",
                    "type": "bytes32"
                }
            ],
            "name": "RoleAdminChanged",
            "type": "event"
        },
        {
            "anonymous": false,
            "inputs": [
                {
                    "indexed": true,
                    "internalType": "bytes32",
                    "name": "role",
                    "type": "bytes32"
                },
                {
                    "indexed": true,
                    "internalType": "address",
                    "name": "account",
                    "type": "address"
                },
                {
                    "indexed": true,
                    "internalType": "address",
                    "name": "sender",
                    "type": "address"
                }
            ],
            "name": "RoleGranted",
            "type": "event"
        },
        {
            "anonymous": false,
            "inputs": [
                {
                    "indexed": true,
                    "internalType": "bytes32",
                    "name": "role",
                    "type": "bytes32"
                },
                {
                    "indexed": true,
                    "internalType": "address",
                    "name": "account",
                    "type": "address"
                },
                {
                    "indexed": true,
                    "internalType": "address",
                    "name": "sender",
                    "type": "address"
                }
            ],
            "name": "RoleRevoked",
            "type": "event"
        },
        {
            "anonymous": false,
            "inputs": [
                {
                    "indexed": true,
                    "internalType": "address",
                    "name": "reserve",
                    "type": "address"
                },
                {
                    "indexed": true,
                    "internalType": "address",
                    "name": "user",
                    "type": "address"
                },
                {
                    "indexed": false,
                    "internalType": "uint256",
                    "name": "rateMode",
                    "type": "uint256"
                }
            ],
            "name": "Swap",
            "type": "event"
        },
        {
            "anonymous": false,
            "inputs": [
                {
                    "indexed": true,
                    "internalType": "address",
                    "name": "operator",
                    "type": "address"
                },
                {
                    "indexed": true,
                    "internalType": "address",
                    "name": "from",
                    "type": "address"
                },
                {
                    "indexed": true,
                    "internalType": "address",
                    "name": "to",
                    "type": "address"
                },
                {
                    "indexed": false,
                    "internalType": "uint256[]",
                    "name": "ids",
                    "type": "uint256[]"
                },
                {
                    "indexed": false,
                    "internalType": "uint256[]",
                    "name": "values",
                    "type": "uint256[]"
                }
            ],
            "name": "TransferBatch",
            "type": "event"
        },
        {
            "anonymous": false,
            "inputs": [
                {
                    "indexed": true,
                    "internalType": "address",
                    "name": "operator",
                    "type": "address"
                },
                {
                    "indexed": true,
                    "internalType": "address",
                    "name": "from",
                    "type": "address"
                },
                {
                    "indexed": true,
                    "internalType": "address",
                    "name": "to",
                    "type": "address"
                },
                {
                    "indexed": false,
                    "internalType": "uint256",
                    "name": "id",
                    "type": "uint256"
                },
                {
                    "indexed": false,
                    "internalType": "uint256",
                    "name": "value",
                    "type": "uint256"
                }
            ],
            "name": "TransferSingle",
            "type": "event"
        },
        {
            "anonymous": false,
            "inputs": [
                {
                    "indexed": false,
                    "internalType": "string",
                    "name": "value",
                    "type": "string"
                },
                {
                    "indexed": true,
                    "internalType": "uint256",
                    "name": "id",
                    "type": "uint256"
                }
            ],
            "name": "URI",
            "type": "event"
        },
        {
            "anonymous": false,
            "inputs": [],
            "name": "Unpaused",
            "type": "event"
        },
        {
            "anonymous": false,
            "inputs": [
                {
                    "indexed": false,
                    "internalType": "address",
                    "name": "account",
                    "type": "address"
                }
            ],
            "name": "Unpaused",
            "type": "event"
        },
        {
            "anonymous": false,
            "inputs": [
                {
                    "indexed": true,
                    "internalType": "address",
                    "name": "reserve",
                    "type": "address"
                },
                {
                    "indexed": true,
                    "internalType": "address",
                    "name": "user",
                    "type": "address"
                },
                {
                    "indexed": true,
                    "internalType": "address",
                    "name": "to",
                    "type": "address"
                },
                {
                    "indexed": false,
                    "internalType": "uint256",
                    "name": "amount",
                    "type": "uint256"
                }
            ],
            "name": "Withdrawal",
            "type": "event"
        },
        {
            "anonymous": false,
            "inputs": [
                {
                    "indexed": false,
                    "internalType": "address",
                    "name": "add",
                    "type": "address"
                },
                {
                    "indexed": false,
                    "internalType": "uint256",
                    "name": "value",
                    "type": "uint256"
                },
                {
                    "indexed": false,
                    "internalType": "uint256",
                    "name": "inr",
                    "type": "uint256"
                },
                {
                    "indexed": false,
                    "internalType": "uint256",
                    "name": "char",
                    "type": "uint256"
                }
            ],
            "name": "loan",
            "type": "event"
        },
        {
            "anonymous": false,
            "inputs": [
                {
                    "indexed": false,
                    "internalType": "address",
                    "name": "add",
                    "type": "address"
                },
                {
                    "indexed": false,
                    "internalType": "uint256",
                    "name": "value",
                    "type": "uint256"
                },
                {
                    "indexed": false,
                    "internalType": "uint256",
                    "name": "inr",
                    "type": "uint256"
                },
                {
                    "indexed": false,
                    "internalType": "uint256",
                    "name": "char",
                    "type": "uint256"
                }
            ],
            "name": "repayment",
            "type": "event"
        },
        {
            "stateMutability": "payable",
            "type": "fallback"
        },
        {
            "inputs": [],
            "name": "DEFAULT_ADMIN_ROLE",
            "outputs": [
                {
                    "internalType": "bytes32",
                    "name": "",
                    "type": "bytes32"
                }
            ],
            "stateMutability": "view",
            "type": "function"
        },
        {
            "inputs": [],
            "name": "MINTER_ROLE",
            "outputs": [
                {
                    "internalType": "bytes32",
                    "name": "",
                    "type": "bytes32"
                }
            ],
            "stateMutability": "view",
            "type": "function"
        },
        {
            "inputs": [],
            "name": "PAUSER_ROLE",
            "outputs": [
                {
                    "internalType": "bytes32",
                    "name": "",
                    "type": "bytes32"
                }
            ],
            "stateMutability": "view",
            "type": "function"
        },
        {
            "inputs": [],
            "name": "Withdraw",
            "outputs": [],
            "stateMutability": "nonpayable",
            "type": "function"
        },
        {
            "inputs": [
                {
                    "internalType": "uint256",
                    "name": "",
                    "type": "uint256"
                }
            ],
            "name": "_borrowsHistory",
            "outputs": [
                {
                    "internalType": "uint256",
                    "name": "",
                    "type": "uint256"
                }
            ],
            "stateMutability": "view",
            "type": "function"
        },
        {
            "inputs": [
                {
                    "internalType": "uint256",
                    "name": "",
                    "type": "uint256"
                }
            ],
            "name": "_depositsHistory",
            "outputs": [
                {
                    "internalType": "uint256",
                    "name": "",
                    "type": "uint256"
                }
            ],
            "stateMutability": "view",
            "type": "function"
        },
        {
            "inputs": [
                {
                    "internalType": "address",
                    "name": "owner",
                    "type": "address"
                },
                {
                    "internalType": "address",
                    "name": "spender",
                    "type": "address"
                }
            ],
            "name": "allowance",
            "outputs": [
                {
                    "internalType": "uint256",
                    "name": "",
                    "type": "uint256"
                }
            ],
            "stateMutability": "view",
            "type": "function"
        },
        {
            "inputs": [
                {
                    "internalType": "address",
                    "name": "spender",
                    "type": "address"
                },
                {
                    "internalType": "uint256",
                    "name": "amount",
                    "type": "uint256"
                }
            ],
            "name": "approve",
            "outputs": [
                {
                    "internalType": "bool",
                    "name": "",
                    "type": "bool"
                }
            ],
            "stateMutability": "nonpayable",
            "type": "function"
        },
        {
            "inputs": [
                {
                    "internalType": "address",
                    "name": "account",
                    "type": "address"
                },
                {
                    "internalType": "uint256",
                    "name": "id",
                    "type": "uint256"
                }
            ],
            "name": "balanceOf",
            "outputs": [
                {
                    "internalType": "uint256",
                    "name": "",
                    "type": "uint256"
                }
            ],
            "stateMutability": "view",
            "type": "function"
        },
        {
            "inputs": [
                {
                    "internalType": "address",
                    "name": "account",
                    "type": "address"
                }
            ],
            "name": "balanceOf",
            "outputs": [
                {
                    "internalType": "uint256",
                    "name": "",
                    "type": "uint256"
                }
            ],
            "stateMutability": "view",
            "type": "function"
        },
        {
            "inputs": [
                {
                    "internalType": "address[]",
                    "name": "accounts",
                    "type": "address[]"
                },
                {
                    "internalType": "uint256[]",
                    "name": "ids",
                    "type": "uint256[]"
                }
            ],
            "name": "balanceOfBatch",
            "outputs": [
                {
                    "internalType": "uint256[]",
                    "name": "",
                    "type": "uint256[]"
                }
            ],
            "stateMutability": "view",
            "type": "function"
        },
        {
            "inputs": [
                {
                    "internalType": "uint256",
                    "name": "amount",
                    "type": "uint256"
                },
                {
                    "internalType": "string",
                    "name": "nftid",
                    "type": "string"
                }
            ],
            "name": "borrow",
            "outputs": [],
            "stateMutability": "nonpayable",
            "type": "function"
        },
        {
            "inputs": [],
            "name": "borrowQTY",
            "outputs": [
                {
                    "internalType": "uint256",
                    "name": "",
                    "type": "uint256"
                }
            ],
            "stateMutability": "view",
            "type": "function"
        },
        {
            "inputs": [],
            "name": "borrowQuantity",
            "outputs": [
                {
                    "internalType": "uint256",
                    "name": "",
                    "type": "uint256"
                }
            ],
            "stateMutability": "view",
            "type": "function"
        },
        {
            "inputs": [],
            "name": "borrowerRepaymentStatus",
            "outputs": [
                {
                    "internalType": "bool",
                    "name": "",
                    "type": "bool"
                }
            ],
            "stateMutability": "view",
            "type": "function"
        },
        {
            "inputs": [
                {
                    "internalType": "address",
                    "name": "from",
                    "type": "address"
                },
                {
                    "internalType": "address",
                    "name": "to",
                    "type": "address"
                },
                {
                    "internalType": "uint256",
                    "name": "id",
                    "type": "uint256"
                },
                {
                    "internalType": "uint256",
                    "name": "amount",
                    "type": "uint256"
                },
                {
                    "internalType": "bytes",
                    "name": "data",
                    "type": "bytes"
                }
            ],
            "name": "borrowerTokenTransfer",
            "outputs": [],
            "stateMutability": "nonpayable",
            "type": "function"
        },
        {
            "inputs": [],
            "name": "borrowerWithdraw",
            "outputs": [],
            "stateMutability": "nonpayable",
            "type": "function"
        },
        {
            "inputs": [],
            "name": "borrowerWithdrawStatus",
            "outputs": [
                {
                    "internalType": "bool",
                    "name": "",
                    "type": "bool"
                }
            ],
            "stateMutability": "view",
            "type": "function"
        },
        {
            "inputs": [
                {
                    "internalType": "address",
                    "name": "account",
                    "type": "address"
                },
                {
                    "internalType": "uint256",
                    "name": "id",
                    "type": "uint256"
                },
                {
                    "internalType": "uint256",
                    "name": "value",
                    "type": "uint256"
                }
            ],
            "name": "burn",
            "outputs": [],
            "stateMutability": "nonpayable",
            "type": "function"
        },
        {
            "inputs": [
                {
                    "internalType": "address",
                    "name": "account",
                    "type": "address"
                },
                {
                    "internalType": "uint256[]",
                    "name": "ids",
                    "type": "uint256[]"
                },
                {
                    "internalType": "uint256[]",
                    "name": "values",
                    "type": "uint256[]"
                }
            ],
            "name": "burnBatch",
            "outputs": [],
            "stateMutability": "nonpayable",
            "type": "function"
        },
        {
            "inputs": [
                {
                    "internalType": "address",
                    "name": "account",
                    "type": "address"
                },
                {
                    "internalType": "uint256",
                    "name": "id",
                    "type": "uint256"
                },
                {
                    "internalType": "uint256",
                    "name": "amount",
                    "type": "uint256"
                },
                {
                    "internalType": "bytes",
                    "name": "data",
                    "type": "bytes"
                }
            ],
            "name": "createToken",
            "outputs": [],
            "stateMutability": "nonpayable",
            "type": "function"
        },
        {
            "inputs": [
                {
                    "internalType": "address",
                    "name": "spender",
                    "type": "address"
                },
                {
                    "internalType": "uint256",
                    "name": "subtractedValue",
                    "type": "uint256"
                }
            ],
            "name": "decreaseAllowance",
            "outputs": [
                {
                    "internalType": "bool",
                    "name": "",
                    "type": "bool"
                }
            ],
            "stateMutability": "nonpayable",
            "type": "function"
        },
        {
            "inputs": [],
            "name": "deposit",
            "outputs": [],
            "stateMutability": "payable",
            "type": "function"
        },
        {
            "inputs": [],
            "name": "feeDepositor",
            "outputs": [
                {
                    "internalType": "address payable",
                    "name": "",
                    "type": "address"
                }
            ],
            "stateMutability": "view",
            "type": "function"
        },
        {
            "inputs": [
                {
                    "internalType": "bytes32",
                    "name": "role",
                    "type": "bytes32"
                }
            ],
            "name": "getRoleAdmin",
            "outputs": [
                {
                    "internalType": "bytes32",
                    "name": "",
                    "type": "bytes32"
                }
            ],
            "stateMutability": "view",
            "type": "function"
        },
        {
            "inputs": [
                {
                    "internalType": "bytes32",
                    "name": "role",
                    "type": "bytes32"
                },
                {
                    "internalType": "address",
                    "name": "account",
                    "type": "address"
                }
            ],
            "name": "grantRole",
            "outputs": [],
            "stateMutability": "nonpayable",
            "type": "function"
        },
        {
            "inputs": [
                {
                    "internalType": "bytes32",
                    "name": "role",
                    "type": "bytes32"
                },
                {
                    "internalType": "address",
                    "name": "account",
                    "type": "address"
                }
            ],
            "name": "hasRole",
            "outputs": [
                {
                    "internalType": "bool",
                    "name": "",
                    "type": "bool"
                }
            ],
            "stateMutability": "view",
            "type": "function"
        },
        {
            "inputs": [
                {
                    "internalType": "address",
                    "name": "spender",
                    "type": "address"
                },
                {
                    "internalType": "uint256",
                    "name": "addedValue",
                    "type": "uint256"
                }
            ],
            "name": "increaseAllowance",
            "outputs": [
                {
                    "internalType": "bool",
                    "name": "",
                    "type": "bool"
                }
            ],
            "stateMutability": "nonpayable",
            "type": "function"
        },
        {
            "inputs": [
                {
                    "internalType": "address",
                    "name": "account",
                    "type": "address"
                },
                {
                    "internalType": "address",
                    "name": "operator",
                    "type": "address"
                }
            ],
            "name": "isApprovedForAll",
            "outputs": [
                {
                    "internalType": "bool",
                    "name": "",
                    "type": "bool"
                }
            ],
            "stateMutability": "view",
            "type": "function"
        },
        {
            "inputs": [],
            "name": "lenderAddress",
            "outputs": [
                {
                    "internalType": "address payable",
                    "name": "",
                    "type": "address"
                }
            ],
            "stateMutability": "view",
            "type": "function"
        },
        {
            "inputs": [
                {
                    "internalType": "address",
                    "name": "from",
                    "type": "address"
                },
                {
                    "internalType": "address",
                    "name": "to",
                    "type": "address"
                },
                {
                    "internalType": "uint256",
                    "name": "id",
                    "type": "uint256"
                },
                {
                    "internalType": "uint256",
                    "name": "amount",
                    "type": "uint256"
                },
                {
                    "internalType": "bytes",
                    "name": "data",
                    "type": "bytes"
                }
            ],
            "name": "lenderTokenTransfer",
            "outputs": [],
            "stateMutability": "nonpayable",
            "type": "function"
        },
        {
            "inputs": [],
            "name": "lenderWithdraw",
            "outputs": [],
            "stateMutability": "nonpayable",
            "type": "function"
        },
        {
            "inputs": [],
            "name": "loanAmount",
            "outputs": [
                {
                    "internalType": "uint256",
                    "name": "",
                    "type": "uint256"
                }
            ],
            "stateMutability": "view",
            "type": "function"
        },
        {
            "inputs": [],
            "name": "loanAmtToPay",
            "outputs": [
                {
                    "internalType": "uint256",
                    "name": "",
                    "type": "uint256"
                }
            ],
            "stateMutability": "view",
            "type": "function"
        },
        {
            "inputs": [
                {
                    "internalType": "int256",
                    "name": "currenctPrice",
                    "type": "int256"
                }
            ],
            "name": "mTwoMCheck",
            "outputs": [
                {
                    "internalType": "int256",
                    "name": "perDiff",
                    "type": "int256"
                }
            ],
            "stateMutability": "nonpayable",
            "type": "function"
        },
        {
            "inputs": [
                {
                    "internalType": "address",
                    "name": "to",
                    "type": "address"
                },
                {
                    "internalType": "uint256",
                    "name": "id",
                    "type": "uint256"
                },
                {
                    "internalType": "uint256",
                    "name": "amount",
                    "type": "uint256"
                },
                {
                    "internalType": "bytes",
                    "name": "data",
                    "type": "bytes"
                }
            ],
            "name": "mint",
            "outputs": [],
            "stateMutability": "nonpayable",
            "type": "function"
        },
        {
            "inputs": [
                {
                    "internalType": "address",
                    "name": "to",
                    "type": "address"
                },
                {
                    "internalType": "uint256[]",
                    "name": "ids",
                    "type": "uint256[]"
                },
                {
                    "internalType": "uint256[]",
                    "name": "amounts",
                    "type": "uint256[]"
                },
                {
                    "internalType": "bytes",
                    "name": "data",
                    "type": "bytes"
                }
            ],
            "name": "mintBatch",
            "outputs": [],
            "stateMutability": "nonpayable",
            "type": "function"
        },
        {
            "inputs": [],
            "name": "owner",
            "outputs": [
                {
                    "internalType": "address payable",
                    "name": "",
                    "type": "address"
                }
            ],
            "stateMutability": "view",
            "type": "function"
        },
        {
            "inputs": [],
            "name": "pause",
            "outputs": [],
            "stateMutability": "nonpayable",
            "type": "function"
        },
        {
            "inputs": [],
            "name": "paused",
            "outputs": [
                {
                    "internalType": "bool",
                    "name": "",
                    "type": "bool"
                }
            ],
            "stateMutability": "view",
            "type": "function"
        },
        {
            "inputs": [],
            "name": "pausedStatus",
            "outputs": [
                {
                    "internalType": "bool",
                    "name": "",
                    "type": "bool"
                }
            ],
            "stateMutability": "view",
            "type": "function"
        },
        {
            "inputs": [
                {
                    "internalType": "bytes32",
                    "name": "role",
                    "type": "bytes32"
                },
                {
                    "internalType": "address",
                    "name": "account",
                    "type": "address"
                }
            ],
            "name": "renounceRole",
            "outputs": [],
            "stateMutability": "nonpayable",
            "type": "function"
        },
        {
            "inputs": [
                {
                    "internalType": "uint256",
                    "name": "borrowid",
                    "type": "uint256"
                }
            ],
            "name": "repay",
            "outputs": [],
            "stateMutability": "payable",
            "type": "function"
        },
        {
            "inputs": [],
            "name": "repaymentAmount",
            "outputs": [
                {
                    "internalType": "uint256",
                    "name": "",
                    "type": "uint256"
                }
            ],
            "stateMutability": "view",
            "type": "function"
        },
        {
            "inputs": [
                {
                    "internalType": "bytes32",
                    "name": "role",
                    "type": "bytes32"
                },
                {
                    "internalType": "address",
                    "name": "account",
                    "type": "address"
                }
            ],
            "name": "revokeRole",
            "outputs": [],
            "stateMutability": "nonpayable",
            "type": "function"
        },
        {
            "inputs": [
                {
                    "internalType": "address",
                    "name": "from",
                    "type": "address"
                },
                {
                    "internalType": "address",
                    "name": "to",
                    "type": "address"
                },
                {
                    "internalType": "uint256[]",
                    "name": "ids",
                    "type": "uint256[]"
                },
                {
                    "internalType": "uint256[]",
                    "name": "amounts",
                    "type": "uint256[]"
                },
                {
                    "internalType": "bytes",
                    "name": "data",
                    "type": "bytes"
                }
            ],
            "name": "safeBatchTransferFrom",
            "outputs": [],
            "stateMutability": "nonpayable",
            "type": "function"
        },
        {
            "inputs": [
                {
                    "internalType": "address",
                    "name": "from",
                    "type": "address"
                },
                {
                    "internalType": "address",
                    "name": "to",
                    "type": "address"
                },
                {
                    "internalType": "uint256",
                    "name": "id",
                    "type": "uint256"
                },
                {
                    "internalType": "uint256",
                    "name": "amount",
                    "type": "uint256"
                },
                {
                    "internalType": "bytes",
                    "name": "data",
                    "type": "bytes"
                }
            ],
            "name": "safeTransferFrom",
            "outputs": [],
            "stateMutability": "nonpayable",
            "type": "function"
        },
        {
            "inputs": [
                {
                    "internalType": "address",
                    "name": "operator",
                    "type": "address"
                },
                {
                    "internalType": "bool",
                    "name": "approved",
                    "type": "bool"
                }
            ],
            "name": "setApprovalForAll",
            "outputs": [],
            "stateMutability": "nonpayable",
            "type": "function"
        },
        {
            "inputs": [
                {
                    "internalType": "bytes4",
                    "name": "interfaceId",
                    "type": "bytes4"
                }
            ],
            "name": "supportsInterface",
            "outputs": [
                {
                    "internalType": "bool",
                    "name": "",
                    "type": "bool"
                }
            ],
            "stateMutability": "view",
            "type": "function"
        },
        {
            "inputs": [],
            "name": "totalCal",
            "outputs": [
                {
                    "internalType": "uint256",
                    "name": "",
                    "type": "uint256"
                }
            ],
            "stateMutability": "view",
            "type": "function"
        },
        {
            "inputs": [],
            "name": "totalInt",
            "outputs": [
                {
                    "internalType": "uint256",
                    "name": "",
                    "type": "uint256"
                }
            ],
            "stateMutability": "view",
            "type": "function"
        },
        {
            "inputs": [
                {
                    "internalType": "address",
                    "name": "recipient",
                    "type": "address"
                },
                {
                    "internalType": "uint256",
                    "name": "amount",
                    "type": "uint256"
                }
            ],
            "name": "transfer",
            "outputs": [
                {
                    "internalType": "bool",
                    "name": "",
                    "type": "bool"
                }
            ],
            "stateMutability": "nonpayable",
            "type": "function"
        },
        {
            "inputs": [],
            "name": "unpause",
            "outputs": [],
            "stateMutability": "nonpayable",
            "type": "function"
        },
        {
            "inputs": [
                {
                    "internalType": "int256",
                    "name": "ethPrice",
                    "type": "int256"
                }
            ],
            "name": "updateEthPrice",
            "outputs": [],
            "stateMutability": "nonpayable",
            "type": "function"
        },
        {
            "inputs": [
                {
                    "internalType": "int256",
                    "name": "ratio",
                    "type": "int256"
                }
            ],
            "name": "updateRatio",
            "outputs": [],
            "stateMutability": "nonpayable",
            "type": "function"
        },
        {
            "inputs": [
                {
                    "internalType": "uint256",
                    "name": "",
                    "type": "uint256"
                }
            ],
            "name": "uri",
            "outputs": [
                {
                    "internalType": "string",
                    "name": "",
                    "type": "string"
                }
            ],
            "stateMutability": "view",
            "type": "function"
        },
        {
            "inputs": [],
            "name": "whr",
            "outputs": [
                {
                    "internalType": "uint256",
                    "name": "quantity",
                    "type": "uint256"
                },
                {
                    "internalType": "string",
                    "name": "otherDetails",
                    "type": "string"
                },
                {
                    "internalType": "address",
                    "name": "owner",
                    "type": "address"
                },
                {
                    "internalType": "uint256",
                    "name": "interest",
                    "type": "uint256"
                },
                {
                    "internalType": "uint256",
                    "name": "charges",
                    "type": "uint256"
                },
                {
                    "internalType": "uint256",
                    "name": "tenure",
                    "type": "uint256"
                },
                {
                    "internalType": "uint256",
                    "name": "price",
                    "type": "uint256"
                },
                {
                    "internalType": "int256",
                    "name": "ethprice",
                    "type": "int256"
                },
                {
                    "internalType": "int256",
                    "name": "m2mRatio",
                    "type": "int256"
                },
                {
                    "internalType": "bool",
                    "name": "m2mStatus",
                    "type": "bool"
                }
            ],
            "stateMutability": "view",
            "type": "function"
        },
        {
            "inputs": [
                {
                    "internalType": "uint256",
                    "name": "depositid",
                    "type": "uint256"
                },
                {
                    "internalType": "address",
                    "name": "account",
                    "type": "address"
                },
                {
                    "internalType": "uint256",
                    "name": "amountwithdrawable",
                    "type": "uint256"
                }
            ],
            "name": "withdraw",
            "outputs": [],
            "stateMutability": "payable",
            "type": "function"
        },
        {
            "stateMutability": "payable",
            "type": "receive"
        }
    ],
    "bytecode": "6080604052600780546001600160a01b031916739c5bcd245d2d9ba6eebb7c059e1f0a2fd04ed6921790553480156200003757600080fd5b5060405162004599380380620045998339810160408190526200005a9162000760565b6040518060400160405280600c81526020016b3bbbbb973bb43939361734b760a11b815250633b9aca00604051806040016040528060038152602001622c2cad60e91b815250600a60c86005600a612710600588620000bf81620001d260201b60201c565b506004805460ff19169055600f889055601180546001600160a01b0319163317905560138590558651620000fb9060109060208a0190620006ba565b506012869055601484905560158290556016839055601781905560048054610100600160a81b03191633610100021790556200014060006200013a3390565b620001eb565b6200016c7f9f2df0fed2c77648de5860a4cc508cd0818c85b8b8a1ab4ceeef8d981c8956a633620001eb565b620001987f65d7a28e3265b37a6474929f336521b332c1681b933f6cb9f3376673440d862a33620001eb565b620001bc3360008a60405180602001604052806000815250620001f760201b60201c565b505050601f9690965550620009ba945050505050565b8051620001e7906003906020840190620006ba565b5050565b620001e782826200020f565b600092506200020984848484620002af565b50505050565b6000828152602081815260408083206001600160a01b038516845290915290205460ff16620001e7576000828152602081815260408083206001600160a01b03851684529091529020805460ff191660011790556200026b3390565b6001600160a01b0316816001600160a01b0316837f2f8788117e7eff1d82e926ec794901d17c78024a50270940304540a733656f0d60405160405180910390a45050565b6001600160a01b038416620003155760405162461bcd60e51b815260206004820152602160248201527f455243313135353a206d696e7420746f20746865207a65726f206164647265736044820152607360f81b60648201526084015b60405180910390fd5b336200033b816000876200032988620003d8565b6200033488620003d8565b8762000426565b60008481526001602090815260408083206001600160a01b0389168452909152812080548592906200036f9084906200077a565b909155505060408051858152602081018590526001600160a01b0380881692600092918516917fc3d58168c5ae7397731d063d5bbf3d657854427343f4c083240f7aacaa2d0f62910160405180910390a4620003d18160008787878762000449565b5050505050565b60408051600180825281830190925260609160009190602080830190803683370190505090508281600081518110620004155762000415620007a1565b602090810291909101015292915050565b620004418686868686866200062f60201b620019e21760201c565b505050505050565b62000468846001600160a01b0316620006b460201b62001a521760201c565b15620004415760405163f23a6e6160e01b81526001600160a01b0385169063f23a6e6190620004a4908990899088908890889060040162000807565b602060405180830381600087803b158015620004bf57600080fd5b505af1925050508015620004f2575060408051601f3d908101601f19168201909252620004ef918101906200084e565b60015b620005b3576200050162000881565b806308c379a0141562000542575062000519620008d9565b8062000526575062000544565b8060405162461bcd60e51b81526004016200030c919062000968565b505b60405162461bcd60e51b815260206004820152603460248201527f455243313135353a207472616e7366657220746f206e6f6e204552433131353560448201527f526563656976657220696d706c656d656e74657200000000000000000000000060648201526084016200030c565b6001600160e01b0319811663f23a6e6160e01b14620006265760405162461bcd60e51b815260206004820152602860248201527f455243313135353a204552433131353552656365697665722072656a656374656044820152676420746f6b656e7360c01b60648201526084016200030c565b50505050505050565b6200064a8686868686866200044160201b62001a4a1760201c565b60045460ff1615620004415760405162461bcd60e51b815260206004820152602c60248201527f455243313135355061757361626c653a20746f6b656e207472616e736665722060448201526b1dda1a5b19481c185d5cd95960a21b60648201526084016200030c565b3b151590565b828054620006c8906200097d565b90600052602060002090601f016020900481019282620006ec576000855562000737565b82601f106200070757805160ff191683800117855562000737565b8280016001018555821562000737579182015b82811115620007375782518255916020019190600101906200071a565b506200074592915062000749565b5090565b5b808211156200074557600081556001016200074a565b6000602082840312156200077357600080fd5b5051919050565b600082198211156200079c57634e487b7160e01b600052601160045260246000fd5b500190565b634e487b7160e01b600052603260045260246000fd5b6000815180845260005b81811015620007df57602081850181015186830182015201620007c1565b81811115620007f2576000602083870101525b50601f01601f19169290920160200192915050565b6001600160a01b03868116825285166020820152604081018490526060810183905260a0608082018190526000906200084390830184620007b7565b979650505050505050565b6000602082840312156200086157600080fd5b81516001600160e01b0319811681146200087a57600080fd5b9392505050565b600060033d11156200089b5760046000803e5060005160e01c5b90565b601f8201601f191681016001600160401b0381118282101715620008d257634e487b7160e01b600052604160045260246000fd5b6040525050565b600060443d1015620008e85790565b6040516003193d81016004833e81513d6001600160401b0380831160248401831017156200091857505050505090565b8285019150815181811115620009315750505050505090565b843d87010160208285010111156200094c5750505050505090565b6200095d602082860101876200089e565b509095945050505050565b6020815260006200087a6020830184620007b7565b600181811c908216806200099257607f821691505b60208210811415620009b457634e487b7160e01b600052602260045260246000fd5b50919050565b613bcf80620009ca6000396000f3fe6080604052600436106103845760003560e01c80636b20c454116101d1578063b272c54f11610102578063dd62ed3e116100a0578063f14f6e171161006f578063f14f6e1714610c7f578063f1c6aa8c14610c94578063f242432a14610cb4578063f5298aca14610cd45761038b565b8063dd62ed3e14610ba9578063e63697c814610bef578063e63ab1e914610c02578063e985e9c514610c365761038b565b8063d0e30db0116100dc578063d0e30db014610b37578063d539139314610b3f578063d547741f14610b73578063d764d9df14610b935761038b565b8063b272c54f14610ad3578063c36d2cfa14610afe578063cebbb09114610b185761038b565b80639d585f7f1161016f578063a457c2d711610149578063a457c2d714610a5d578063a8fef00a14610a7d578063a9059cbb14610a93578063b030747514610ab35761038b565b80639d585f7f14610a12578063a217fddf14610a28578063a22cb46514610a3d5761038b565b8063731133e9116101ab578063731133e9146109985780638456cb59146109b85780638da5cb5b146109cd57806391d14854146109f25761038b565b80636b20c4541461092257806370a0823114610942578063729a7b58146109785761038b565b806336568abe116102b657806357ea89b6116102545780635cdb9829116102235780635cdb98291461084757806361ef17e9146108c257806365a9cbdb146108e257806369d81255146109025761038b565b806357ea89b6146108475780635930e3b51461085c5780635b0f7c6f146108945780635c975abb146108aa5761038b565b80633f4ba83a116102905780633f4ba83a146107cf57806344dc4b18146107e45780634bd2d6dd146107fa5780634e1273f41461081a5761038b565b806336568abe1461077c578063371fd8e61461079c57806339509351146107af5761038b565b80631cd2445011610323578063248a9ca3116102fd578063248a9ca3146106ec5780632b689c0d1461071c5780632eb2c2d61461073c5780632f2ff15d1461075c5761038b565b80631cd24450146106965780631dcd109c146106b65780631f7fdffa146106cc5761038b565b8063095ea7b31161035f578063095ea7b3146106115780630af14a18146106315780630e89341c146106535780631bed003e146106805761038b565b8062fdd58e1461058e57806301ffc9a7146105c157806303246140146105f15761038b565b3661038b57005b600454349061010090046001600160a01b03163314156104565734600660008282546103b79190612dbf565b9091555050604080513381523460208201526000818301819052606082015290517f13986588cbef877fd6285b370252271b34410be112d5ecc4a82898aa5bb1ea339181900360800190a16005546006546040516001600160a01b039092169181156108fc0291906000818181858888f1935050505015801561043e573d6000803e3d6000fd5b50610447610cf4565b600d805462ff00001916905550005b601354600090620186a09061046b9084612dd7565b6104759190612e0c565b6007546040519192506001600160a01b03169082156108fc029083906000818181858888f193505050501580156104b0573d6000803e3d6000fd5b50601254600090620186a0906104c69085612dd7565b6104d09190612e0c565b6009819055600a83905590506104e68284612e20565b600b60008282546104f79190612dbf565b9250508190555034600860008282546105109190612dbf565b9091555050600580546001600160a01b03191633908117909155604080519182523460208301528101839052606081018290527f14ac8a8cd085b9923396015cbbd2ed412aecdadf81ff5838a802477e6aeb48ac9060800160405180910390a1610578610cfe565b5050600d805462ff000019166201000017905550005b34801561059a57600080fd5b506105ae6105a9366004612e4e565b610d06565b6040519081526020015b60405180910390f35b3480156105cd57600080fd5b506105e16105dc366004612e8e565b610d9f565b60405190151581526020016105b8565b3480156105fd57600080fd5b50600d546105e19062010000900460ff1681565b34801561061d57600080fd5b506105e161062c366004612e4e565b610db0565b34801561063d57600080fd5b5061065161064c366004612eab565b601655565b005b34801561065f57600080fd5b5061067361066e366004612eab565b610dc6565b6040516105b89190612f1c565b34801561068c57600080fd5b506105ae600b5481565b3480156106a257600080fd5b506105ae6106b1366004612eab565b610e5a565b3480156106c257600080fd5b506105ae600a5481565b3480156106d857600080fd5b506106516106e7366004613082565b610e7b565b3480156106f857600080fd5b506105ae610707366004612eab565b60009081526020819052604090206001015490565b34801561072857600080fd5b506105ae610737366004612eab565b610f29565b34801561074857600080fd5b5061065161075736600461311a565b610fcb565b34801561076857600080fd5b506106516107773660046131c3565b611062565b34801561078857600080fd5b506106516107973660046131c3565b61108d565b6106516107aa366004612eab565b61110b565b3480156107bb57600080fd5b506105e16107ca366004612e4e565b6111a9565b3480156107db57600080fd5b50610651610cf4565b3480156107f057600080fd5b506105ae60065481565b34801561080657600080fd5b506106516108153660046131ef565b6111e5565b34801561082657600080fd5b5061083a610835366004613243565b6111f5565b6040516105b89190613348565b34801561085357600080fd5b5061065161131e565b34801561086857600080fd5b5060075461087c906001600160a01b031681565b6040516001600160a01b0390911681526020016105b8565b3480156108a057600080fd5b506105ae600c5481565b3480156108b657600080fd5b5060045460ff166105e1565b3480156108ce57600080fd5b506106516108dd36600461335b565b611370565b3480156108ee57600080fd5b506106516108fd366004612eab565b601755565b34801561090e57600080fd5b5060055461087c906001600160a01b031681565b34801561092e57600080fd5b5061065161093d3660046133ab565b61146e565b34801561094e57600080fd5b506105ae61095d36600461341e565b6001600160a01b031660009081526019602052604090205490565b34801561098457600080fd5b50610651610993366004613439565b6114b1565b3480156109a457600080fd5b506106516109b33660046131ef565b6114c6565b3480156109c457600080fd5b50610651610cfe565b3480156109d957600080fd5b5060045461087c9061010090046001600160a01b031681565b3480156109fe57600080fd5b506105e1610a0d3660046131c3565b611548565b348015610a1e57600080fd5b506105ae60085481565b348015610a3457600080fd5b506105ae600081565b348015610a4957600080fd5b50610651610a5836600461349d565b611571565b348015610a6957600080fd5b506105e1610a78366004612e4e565b61157c565b348015610a8957600080fd5b506105ae600e5481565b348015610a9f57600080fd5b506105e1610aae366004612e4e565b611609565b348015610abf57600080fd5b50610651610ace366004613439565b611616565b348015610adf57600080fd5b50610ae861162b565b6040516105b89a999897969594939291906134d9565b348015610b0a57600080fd5b50600d546105e19060ff1681565b348015610b2457600080fd5b50600d546105e190610100900460ff1681565b610651611702565b348015610b4b57600080fd5b506105ae7f9f2df0fed2c77648de5860a4cc508cd0818c85b8b8a1ab4ceeef8d981c8956a681565b348015610b7f57600080fd5b50610651610b8e3660046131c3565b6117da565b348015610b9f57600080fd5b506105ae60095481565b348015610bb557600080fd5b506105ae610bc4366004613540565b6001600160a01b039182166000908152601b6020908152604080832093909416825291909152205490565b610651610bfd36600461356a565b611800565b348015610c0e57600080fd5b506105ae7f65d7a28e3265b37a6474929f336521b332c1681b933f6cb9f3376673440d862a81565b348015610c4257600080fd5b506105e1610c51366004613540565b6001600160a01b03918216600090815260026020908152604080832093909416825291909152205460ff1690565b348015610c8b57600080fd5b50610651611900565b348015610ca057600080fd5b506105ae610caf366004612eab565b61194a565b348015610cc057600080fd5b50610651610ccf366004613439565b61195a565b348015610ce057600080fd5b50610651610cef36600461359f565b61199f565b610cfc611a58565b565b610cfc611aeb565b60006001600160a01b038316610d775760405162461bcd60e51b815260206004820152602b60248201527f455243313135353a2062616c616e636520717565727920666f7220746865207a60448201526a65726f206164647265737360a81b60648201526084015b60405180910390fd5b5060009081526001602090815260408083206001600160a01b03949094168352929052205490565b6000610daa82611b66565b92915050565b6000610dbd338484611ba6565b50600192915050565b606060038054610dd5906135d2565b80601f0160208091040260200160405190810160405280929190818152602001828054610e01906135d2565b8015610e4e5780601f10610e2357610100808354040283529160200191610e4e565b820191906000526020600020905b815481529060010190602001808311610e3157829003601f168201915b50505050509050919050565b60248181548110610e6a57600080fd5b600091825260209091200154905081565b610ea57f9f2df0fed2c77648de5860a4cc508cd0818c85b8b8a1ab4ceeef8d981c8956a633611548565b610f175760405162461bcd60e51b815260206004820152603860248201527f455243313135355072657365744d696e7465725061757365723a206d7573742060448201527f68617665206d696e74657220726f6c6520746f206d696e7400000000000000006064820152608401610d6e565b610f2384848484611c75565b50505050565b601654600090610f3b90606490613607565b821215610fc657601654600090610f53908490613635565b601654909150610f64826064613674565b610f6e9190613607565b6017549092508212610fc4576018805460ff19166001179055610f8f610cf4565b60045460055460408051602081019091526000808252610fc4936001600160a01b03610100909104811693169160019061195a565b505b919050565b6001600160a01b038516331480610fe75750610fe78533610c51565b61104e5760405162461bcd60e51b815260206004820152603260248201527f455243313135353a207472616e736665722063616c6c6572206973206e6f74206044820152711bdddb995c881b9bdc88185c1c1c9bdd995960721b6064820152608401610d6e565b61105b8585858585611dd0565b5050505050565b60008281526020819052604090206001015461107e8133611f75565b6110888383611fd9565b505050565b6001600160a01b03811633146110fd5760405162461bcd60e51b815260206004820152602f60248201527f416363657373436f6e74726f6c3a2063616e206f6e6c792072656e6f756e636560448201526e103937b632b9903337b91039b2b63360891b6064820152608401610d6e565b611107828261205d565b5050565b6000818152602560205260408120600181015490919061112a906120c2565b9050816001015481116111975760405162461bcd60e51b815260206004820152602f60248201527f726570617920616d6f756e74206d75737420626520677265617465722074686160448201526e1b88189bdc9c9bddc8185b5bdd5b9d608a1b6064820152608401610d6e565b50600301805460ff1916600117905550565b336000818152601b602090815260408083206001600160a01b03871684529091528120549091610dbd9185906111e0908690612dbf565b611ba6565b60009250610f23848484846120ef565b6060815183511461125a5760405162461bcd60e51b815260206004820152602960248201527f455243313135353a206163636f756e747320616e6420696473206c656e677468604482015268040dad2e6dac2e8c6d60bb1b6064820152608401610d6e565b600083516001600160401b0381111561127557611275612f2f565b60405190808252806020026020018201604052801561129e578160200160208202803683370190505b50905060005b8451811015611316576112e98582815181106112c2576112c26136f9565b60200260200101518583815181106112dc576112dc6136f9565b6020026020010151610d06565b8282815181106112fb576112fb6136f9565b602090810291909101015261130f8161370f565b90506112a4565b509392505050565b600d8054600160ff19909116179055600454600b546040516101009092046001600160a01b0316916108fc82150291906000818181858888f1935050505015801561136d573d6000803e3d6000fd5b50565b6001602260008282546113839190612dbf565b90915550506022546000818152602560205260408120805490929183916113ab908490612dbf565b9091555050600181018390554360028201556003810180546001600160a81b031916610100330217905581516113ea9060048301906020850190612d10565b5060405133908490600081818185875af1925050503d806000811461142b576040519150601f19603f3d011682016040523d82523d6000602084013e611430565b606091505b5050602254602680546001810182556000919091527f744a2cf8fd7008e3d53b67916e73460df9fa5214e3ef23dd4259ca09493a3594015550505050565b6001600160a01b03831633148061148a575061148a8333610c51565b6114a65760405162461bcd60e51b8152600401610d6e9061372a565b6110888383836121b5565b6114b9610cf4565b61105b858585858561195a565b6114f07f9f2df0fed2c77648de5860a4cc508cd0818c85b8b8a1ab4ceeef8d981c8956a633611548565b61153c5760405162461bcd60e51b815260206004820152601d60248201527f6d7573742068617665206d696e74657220726f6c6520746f206d696e740000006044820152606401610d6e565b610f23848484846120ef565b6000918252602082815260408084206001600160a01b0393909316845291905290205460ff1690565b611107338383612346565b336000908152601b602090815260408083206001600160a01b0386168452909152812054828110156115f05760405162461bcd60e51b815260206004820152601f60248201527f4564656372656173656420616c6c6f77616e63652062656c6f77207a65726f006044820152606401610d6e565b6115ff33856111e08685612e20565b5060019392505050565b6000610dbd33848461241f565b611623858585858561195a565b61105b610cfe565b600f80546010805491929161163f906135d2565b80601f016020809104026020016040519081016040528092919081815260200182805461166b906135d2565b80156116b85780601f1061168d576101008083540402835291602001916116b8565b820191906000526020600020905b81548152906001019060200180831161169b57829003601f168201915b50505060028401546003850154600486015460058701546006880154600789015460088a01546009909a015498996001600160a01b03909616989497509295509093909260ff168a565b6001602160008282546117159190612dbf565b909155505060215460008181526023602052604081208054909291839161173d908490612dbf565b909155505034600182018190554360028301556003820180546001600160a81b0319166101003302179055601f546000916117789190612dd7565b90506117a033600083604051806040016040528060018152602001600160fd1b8152506114c6565b5050602154602480546001810182556000919091527f7cd332d19b93bcabe3cce7ca0c18a052f57e5fd03b4758a09f30f5ddc4b22ec40155565b6000828152602081905260409020600101546117f68133611f75565b611088838361205d565b4781101580156118295750601c546001600160a01b038316600090815260196020526040902054115b6118815760405162461bcd60e51b8152602060048201526024808201527f576974686472617761626c6520616d6f756e742063616e27742062652067726560448201526330ba32b960e11b6064820152608401610d6e565b60405133908290600081818185875af1925050503d80600081146118c1576040519150601f19603f3d011682016040523d82523d6000602084013e6118c6565b606091505b5050506118e033601f54836118db9190612dd7565b612578565b50506000908152602360205260409020600301805460ff19166001179055565b6005546009546006546001600160a01b03909216916108fc9161192291612dbf565b6040518115909202916000818181858888f1935050505015801561136d573d6000803e3d6000fd5b60268181548110610e6a57600080fd5b6001600160a01b03851633148061197657506119768533610c51565b6119925760405162461bcd60e51b8152600401610d6e9061372a565b61105b85858585856126b0565b6001600160a01b0383163314806119bb57506119bb8333610c51565b6119d75760405162461bcd60e51b8152600401610d6e9061372a565b6110888383836127bf565b60045460ff1615611a4a5760405162461bcd60e51b815260206004820152602c60248201527f455243313135355061757361626c653a20746f6b656e207472616e736665722060448201526b1dda1a5b19481c185d5cd95960a21b6064820152608401610d6e565b505050505050565b3b151590565b60045460ff16611aa15760405162461bcd60e51b815260206004820152601460248201527314185d5cd8589b194e881b9bdd081c185d5cd95960621b6044820152606401610d6e565b6004805460ff191690557f5db9ee0a495bf2e6ff9c91a7834c1ba4fdd244a5e8aa4e537bd38aeae4b073aa335b6040516001600160a01b03909116815260200160405180910390a1565b60045460ff1615611b315760405162461bcd60e51b815260206004820152601060248201526f14185d5cd8589b194e881c185d5cd95960821b6044820152606401610d6e565b6004805460ff191660011790557f62e78cea01bee320cd4e420270b5ea74000d11b0c9f74754ebdbfc544b05a258611ace3390565b60006001600160e01b03198216636cdb3d1360e11b1480611b9757506001600160e01b031982166303a24d0760e21b145b80610daa5750610daa826128b2565b6001600160a01b03831615801590611bc657506001600160a01b03821615155b611c125760405162461bcd60e51b815260206004820152601d60248201527f617070726f76652066726f6d20746865207a65726f20616464726573730000006044820152606401610d6e565b6001600160a01b038381166000818152601b60209081526040808320948716808452948252918290208590559051600181527f17307eab39ab6107e8899845ad3d59bd9653f200f220920489ca2b5937696c3191015b60405180910390a3505050565b6001600160a01b038416611c9b5760405162461bcd60e51b8152600401610d6e90613773565b8151835114611cbc5760405162461bcd60e51b8152600401610d6e906137b4565b33611ccc816000878787876128e7565b60005b8451811015611d6857838181518110611cea57611cea6136f9565b602002602001015160016000878481518110611d0857611d086136f9565b602002602001015181526020019081526020016000206000886001600160a01b03166001600160a01b031681526020019081526020016000206000828254611d509190612dbf565b90915550819050611d608161370f565b915050611ccf565b50846001600160a01b031660006001600160a01b0316826001600160a01b03167f4a39dc06d4c0dbc64b70af90fd698a233a518aa5d07e595d983b8c0526c8f7fb8787604051611db99291906137fc565b60405180910390a461105b816000878787876128f5565b8151835114611df15760405162461bcd60e51b8152600401610d6e906137b4565b6001600160a01b038416611e175760405162461bcd60e51b8152600401610d6e9061382a565b33611e268187878787876128e7565b60005b8451811015611f0f576000858281518110611e4657611e466136f9565b602002602001015190506000858381518110611e6457611e646136f9565b60209081029190910181015160008481526001835260408082206001600160a01b038e168352909352919091205490915081811015611eb55760405162461bcd60e51b8152600401610d6e9061386f565b60008381526001602090815260408083206001600160a01b038e8116855292528083208585039055908b16825281208054849290611ef4908490612dbf565b9250508190555050505080611f089061370f565b9050611e29565b50846001600160a01b0316866001600160a01b0316826001600160a01b03167f4a39dc06d4c0dbc64b70af90fd698a233a518aa5d07e595d983b8c0526c8f7fb8787604051611f5f9291906137fc565b60405180910390a4611a4a8187878787876128f5565b611f7f8282611548565b61110757611f97816001600160a01b03166014612a60565b611fa2836020612a60565b604051602001611fb39291906138b9565b60408051601f198184030181529082905262461bcd60e51b8252610d6e91600401612f1c565b611fe38282611548565b611107576000828152602081815260408083206001600160a01b03851684529091529020805460ff191660011790556120193390565b6001600160a01b0316816001600160a01b0316837f2f8788117e7eff1d82e926ec794901d17c78024a50270940304540a733656f0d60405160405180910390a45050565b6120678282611548565b15611107576000828152602081815260408083206001600160a01b0385168085529252808320805460ff1916905551339285917ff6391f5c32d9c69d2a47ea670b442974b53935d1edc7fd64eb21e047a839171b9190a45050565b60008060646120d284600a612dd7565b6120dc9190612e0c565b90506120e88184612dbf565b9392505050565b6001600160a01b0384166121155760405162461bcd60e51b8152600401610d6e90613773565b336121358160008761212688612bfb565b61212f88612bfb565b876128e7565b60008481526001602090815260408083206001600160a01b038916845290915281208054859290612167908490612dbf565b909155505060408051858152602081018590526001600160a01b038088169260009291851691600080516020613b7a833981519152910160405180910390a461105b81600087878787612c46565b6001600160a01b0383166121db5760405162461bcd60e51b8152600401610d6e9061392e565b80518251146121fc5760405162461bcd60e51b8152600401610d6e906137b4565b600033905061221f818560008686604051806020016040528060008152506128e7565b60005b83518110156122e757600084828151811061223f5761223f6136f9565b60200260200101519050600084838151811061225d5761225d6136f9565b60209081029190910181015160008481526001835260408082206001600160a01b038c1683529093529190912054909150818110156122ae5760405162461bcd60e51b8152600401610d6e90613971565b60009283526001602090815260408085206001600160a01b038b16865290915290922091039055806122df8161370f565b915050612222565b5060006001600160a01b0316846001600160a01b0316826001600160a01b03167f4a39dc06d4c0dbc64b70af90fd698a233a518aa5d07e595d983b8c0526c8f7fb86866040516123389291906137fc565b60405180910390a450505050565b816001600160a01b0316836001600160a01b031614156123ba5760405162461bcd60e51b815260206004820152602960248201527f455243313135353a2073657474696e6720617070726f76616c20737461747573604482015268103337b91039b2b63360b91b6064820152608401610d6e565b6001600160a01b03838116600081815260026020908152604080832094871680845294825291829020805460ff191686151590811790915591519182527f17307eab39ab6107e8899845ad3d59bd9653f200f220920489ca2b5937696c319101611c68565b6001600160a01b0383161580159061243f57506001600160a01b03821615155b61248b5760405162461bcd60e51b815260206004820152601e60248201527f7472616e736665722066726f6d20746865207a65726f206164647265737300006044820152606401610d6e565b6001600160a01b038316600090815260196020526040902054818110156124f45760405162461bcd60e51b815260206004820152601f60248201527f7472616e7366657220616d6f756e7420657863656564732062616c616e6365006044820152606401610d6e565b6124fe8282612e20565b6001600160a01b038086166000908152601960205260408082209390935590851681529081208054849290612534908490612dbf565b90915550506040805160008152602081018490526001600160a01b0385811692908716913391600080516020613b7a833981519152910160405180910390a4610f23565b6001600160a01b0382166125ce5760405162461bcd60e51b815260206004820152601a60248201527f6275726e2066726f6d20746865207a65726f20616464726573730000000000006044820152606401610d6e565b6001600160a01b038216600090815260196020526040902054818110156126375760405162461bcd60e51b815260206004820152601b60248201527f6275726e20616d6f756e7420657863656564732062616c616e636500000000006044820152606401610d6e565b6126418282612e20565b6001600160a01b038416600090815260196020526040812091909155601c805484929061266f908490612e20565b909155505060408051600080825260208201859052916001600160a01b038616913391600080516020613b7a833981519152910160405180910390a4505050565b6001600160a01b0384166126d65760405162461bcd60e51b8152600401610d6e9061382a565b336126e681878761212688612bfb565b60008481526001602090815260408083206001600160a01b038a168452909152902054838110156127295760405162461bcd60e51b8152600401610d6e9061386f565b60008581526001602090815260408083206001600160a01b038b8116855292528083208785039055908816825281208054869290612768908490612dbf565b909155505060408051868152602081018690526001600160a01b03808916928a82169291861691600080516020613b7a833981519152910160405180910390a46127b6828888888888612c46565b50505050505050565b6001600160a01b0383166127e55760405162461bcd60e51b8152600401610d6e9061392e565b33612814818560006127f687612bfb565b6127ff87612bfb565b604051806020016040528060008152506128e7565b60008381526001602090815260408083206001600160a01b0388168452909152902054828110156128575760405162461bcd60e51b8152600401610d6e90613971565b60008481526001602090815260408083206001600160a01b0389811680865291845282852088870390558251898152938401889052909290861691600080516020613b7a833981519152910160405180910390a45050505050565b60006001600160e01b03198216637965db0b60e01b1480610daa57506301ffc9a760e01b6001600160e01b0319831614610daa565b611a4a8686868686866119e2565b6001600160a01b0384163b15611a4a5760405163bc197c8160e01b81526001600160a01b0385169063bc197c819061293990899089908890889088906004016139b5565b602060405180830381600087803b15801561295357600080fd5b505af1925050508015612983575060408051601f3d908101601f1916820190925261298091810190613a13565b60015b612a305761298f613a30565b806308c379a014156129c957506129a4613a4c565b806129af57506129cb565b8060405162461bcd60e51b8152600401610d6e9190612f1c565b505b60405162461bcd60e51b815260206004820152603460248201527f455243313135353a207472616e7366657220746f206e6f6e20455243313135356044820152732932b1b2b4bb32b91034b6b83632b6b2b73a32b960611b6064820152608401610d6e565b6001600160e01b0319811663bc197c8160e01b146127b65760405162461bcd60e51b8152600401610d6e90613ad5565b60606000612a6f836002612dd7565b612a7a906002612dbf565b6001600160401b03811115612a9157612a91612f2f565b6040519080825280601f01601f191660200182016040528015612abb576020820181803683370190505b509050600360fc1b81600081518110612ad657612ad66136f9565b60200101906001600160f81b031916908160001a905350600f60fb1b81600181518110612b0557612b056136f9565b60200101906001600160f81b031916908160001a9053506000612b29846002612dd7565b612b34906001612dbf565b90505b6001811115612bac576f181899199a1a9b1b9c1cb0b131b232b360811b85600f1660108110612b6857612b686136f9565b1a60f81b828281518110612b7e57612b7e6136f9565b60200101906001600160f81b031916908160001a90535060049490941c93612ba581613b1d565b9050612b37565b5083156120e85760405162461bcd60e51b815260206004820181905260248201527f537472696e67733a20686578206c656e67746820696e73756666696369656e746044820152606401610d6e565b60408051600180825281830190925260609160009190602080830190803683370190505090508281600081518110612c3557612c356136f9565b602090810291909101015292915050565b6001600160a01b0384163b15611a4a5760405163f23a6e6160e01b81526001600160a01b0385169063f23a6e6190612c8a9089908990889088908890600401613b34565b602060405180830381600087803b158015612ca457600080fd5b505af1925050508015612cd4575060408051601f3d908101601f19168201909252612cd191810190613a13565b60015b612ce05761298f613a30565b6001600160e01b0319811663f23a6e6160e01b146127b65760405162461bcd60e51b8152600401610d6e90613ad5565b828054612d1c906135d2565b90600052602060002090601f016020900481019282612d3e5760008555612d84565b82601f10612d5757805160ff1916838001178555612d84565b82800160010185558215612d84579182015b82811115612d84578251825591602001919060010190612d69565b50612d90929150612d94565b5090565b5b80821115612d905760008155600101612d95565b634e487b7160e01b600052601160045260246000fd5b60008219821115612dd257612dd2612da9565b500190565b6000816000190483118215151615612df157612df1612da9565b500290565b634e487b7160e01b600052601260045260246000fd5b600082612e1b57612e1b612df6565b500490565b600082821015612e3257612e32612da9565b500390565b80356001600160a01b0381168114610fc657600080fd5b60008060408385031215612e6157600080fd5b612e6a83612e37565b946020939093013593505050565b6001600160e01b03198116811461136d57600080fd5b600060208284031215612ea057600080fd5b81356120e881612e78565b600060208284031215612ebd57600080fd5b5035919050565b60005b83811015612edf578181015183820152602001612ec7565b83811115610f235750506000910152565b60008151808452612f08816020860160208601612ec4565b601f01601f19169290920160200192915050565b6020815260006120e86020830184612ef0565b634e487b7160e01b600052604160045260246000fd5b601f8201601f191681016001600160401b0381118282101715612f6a57612f6a612f2f565b6040525050565b60006001600160401b03821115612f8a57612f8a612f2f565b5060051b60200190565b600082601f830112612fa557600080fd5b81356020612fb282612f71565b604051612fbf8282612f45565b83815260059390931b8501820192828101915086841115612fdf57600080fd5b8286015b84811015612ffa5780358352918301918301612fe3565b509695505050505050565b60006001600160401b0383111561301e5761301e612f2f565b604051613035601f8501601f191660200182612f45565b80915083815284848401111561304a57600080fd5b83836020830137600060208583010152509392505050565b600082601f83011261307357600080fd5b6120e883833560208501613005565b6000806000806080858703121561309857600080fd5b6130a185612e37565b935060208501356001600160401b03808211156130bd57600080fd5b6130c988838901612f94565b945060408701359150808211156130df57600080fd5b6130eb88838901612f94565b9350606087013591508082111561310157600080fd5b5061310e87828801613062565b91505092959194509250565b600080600080600060a0868803121561313257600080fd5b61313b86612e37565b945061314960208701612e37565b935060408601356001600160401b038082111561316557600080fd5b61317189838a01612f94565b9450606088013591508082111561318757600080fd5b61319389838a01612f94565b935060808801359150808211156131a957600080fd5b506131b688828901613062565b9150509295509295909350565b600080604083850312156131d657600080fd5b823591506131e660208401612e37565b90509250929050565b6000806000806080858703121561320557600080fd5b61320e85612e37565b9350602085013592506040850135915060608501356001600160401b0381111561323757600080fd5b61310e87828801613062565b6000806040838503121561325657600080fd5b82356001600160401b038082111561326d57600080fd5b818501915085601f83011261328157600080fd5b8135602061328e82612f71565b60405161329b8282612f45565b83815260059390931b85018201928281019150898411156132bb57600080fd5b948201945b838610156132e0576132d186612e37565b825294820194908201906132c0565b965050860135925050808211156132f657600080fd5b5061330385828601612f94565b9150509250929050565b600081518084526020808501945080840160005b8381101561333d57815187529582019590820190600101613321565b509495945050505050565b6020815260006120e8602083018461330d565b6000806040838503121561336e57600080fd5b8235915060208301356001600160401b0381111561338b57600080fd5b8301601f8101851361339c57600080fd5b61330385823560208401613005565b6000806000606084860312156133c057600080fd5b6133c984612e37565b925060208401356001600160401b03808211156133e557600080fd5b6133f187838801612f94565b9350604086013591508082111561340757600080fd5b5061341486828701612f94565b9150509250925092565b60006020828403121561343057600080fd5b6120e882612e37565b600080600080600060a0868803121561345157600080fd5b61345a86612e37565b945061346860208701612e37565b9350604086013592506060860135915060808601356001600160401b0381111561349157600080fd5b6131b688828901613062565b600080604083850312156134b057600080fd5b6134b983612e37565b9150602083013580151581146134ce57600080fd5b809150509250929050565b60006101408c83528060208401526134f38184018d612ef0565b6001600160a01b039b909b16604084015250506060810197909752608087019590955260a086019390935260c085019190915260e084015261010083015215156101209091015292915050565b6000806040838503121561355357600080fd5b61355c83612e37565b91506131e660208401612e37565b60008060006060848603121561357f57600080fd5b8335925061358f60208501612e37565b9150604084013590509250925092565b6000806000606084860312156135b457600080fd5b6135bd84612e37565b95602085013595506040909401359392505050565b600181811c908216806135e657607f821691505b60208210811415610fc457634e487b7160e01b600052602260045260246000fd5b60008261361657613616612df6565b600160ff1b82146000198414161561363057613630612da9565b500590565b60008083128015600160ff1b85018412161561365357613653612da9565b6001600160ff1b038401831381161561366e5761366e612da9565b50500390565b60006001600160ff1b038184138284138082168684048611161561369a5761369a612da9565b600160ff1b60008712828116878305891216156136b9576136b9612da9565b600087129250878205871284841616156136d5576136d5612da9565b878505871281841616156136eb576136eb612da9565b505050929093029392505050565b634e487b7160e01b600052603260045260246000fd5b600060001982141561372357613723612da9565b5060010190565b60208082526029908201527f455243313135353a2063616c6c6572206973206e6f74206f776e6572206e6f7260408201526808185c1c1c9bdd995960ba1b606082015260800190565b60208082526021908201527f455243313135353a206d696e7420746f20746865207a65726f206164647265736040820152607360f81b606082015260800190565b60208082526028908201527f455243313135353a2069647320616e6420616d6f756e7473206c656e677468206040820152670dad2e6dac2e8c6d60c31b606082015260800190565b60408152600061380f604083018561330d565b8281036020840152613821818561330d565b95945050505050565b60208082526025908201527f455243313135353a207472616e7366657220746f20746865207a65726f206164604082015264647265737360d81b606082015260800190565b6020808252602a908201527f455243313135353a20696e73756666696369656e742062616c616e636520666f60408201526939103a3930b739b332b960b11b606082015260800190565b7f416363657373436f6e74726f6c3a206163636f756e74200000000000000000008152600083516138f1816017850160208801612ec4565b7001034b99036b4b9b9b4b733903937b6329607d1b6017918401918201528351613922816028840160208801612ec4565b01602801949350505050565b60208082526023908201527f455243313135353a206275726e2066726f6d20746865207a65726f206164647260408201526265737360e81b606082015260800190565b60208082526024908201527f455243313135353a206275726e20616d6f756e7420657863656564732062616c604082015263616e636560e01b606082015260800190565b6001600160a01b0386811682528516602082015260a0604082018190526000906139e19083018661330d565b82810360608401526139f3818661330d565b90508281036080840152613a078185612ef0565b98975050505050505050565b600060208284031215613a2557600080fd5b81516120e881612e78565b600060033d1115613a495760046000803e5060005160e01c5b90565b600060443d1015613a5a5790565b6040516003193d81016004833e81513d6001600160401b038160248401118184111715613a8957505050505090565b8285019150815181811115613aa15750505050505090565b843d8701016020828501011115613abb5750505050505090565b613aca60208286010187612f45565b509095945050505050565b60208082526028908201527f455243313135353a204552433131353552656365697665722072656a656374656040820152676420746f6b656e7360c01b606082015260800190565b600081613b2c57613b2c612da9565b506000190190565b6001600160a01b03868116825285166020820152604081018490526060810183905260a060808201819052600090613b6e90830184612ef0565b97965050505050505056fec3d58168c5ae7397731d063d5bbf3d657854427343f4c083240f7aacaa2d0f62a264697066735822122047dd74f86389b713cb27cdcc05c206d8b4ebc0d70bfeb22b94973e51b00c1a6064736f6c63430008090033",
    "sourcePath": "/media/dell/Hard Disk/Projects/openzeppelin-contracts/contracts/bEth.sol",
    "compiler": {
        "name": "solc",
        "version": "0.8.9+commit.e5eed63a"
    },
    "functionHashes": {
        "DEFAULT_ADMIN_ROLE()": "a217fddf",
        "MINTER_ROLE()": "d5391393",
        "PAUSER_ROLE()": "e63ab1e9",
        "Withdraw()": "57ea89b6",
        "_borrowsHistory(uint256)": "f1c6aa8c",
        "_depositsHistory(uint256)": "1cd24450",
        "allowance(address,address)": "dd62ed3e",
        "approve(address,uint256)": "095ea7b3",
        "balanceOf(address)": "70a08231",
        "balanceOf(address,uint256)": "00fdd58e",
        "balanceOfBatch(address[],uint256[])": "4e1273f4",
        "borrow(uint256,string)": "61ef17e9",
        "borrowQTY()": "5b0f7c6f",
        "borrowQuantity()": "a8fef00a",
        "borrowerRepaymentStatus()": "cebbb091",
        "borrowerTokenTransfer(address,address,uint256,uint256,bytes)": "b0307475",
        "borrowerWithdraw()": "5cdb9829",
        "borrowerWithdrawStatus()": "c36d2cfa",
        "burn(address,uint256,uint256)": "f5298aca",
        "burnBatch(address,uint256[],uint256[])": "6b20c454",
        "createToken(address,uint256,uint256,bytes)": "4bd2d6dd",
        "decreaseAllowance(address,uint256)": "a457c2d7",
        "deposit()": "d0e30db0",
        "feeDepositor()": "5930e3b5",
        "getRoleAdmin(bytes32)": "248a9ca3",
        "grantRole(bytes32,address)": "2f2ff15d",
        "hasRole(bytes32,address)": "91d14854",
        "increaseAllowance(address,uint256)": "39509351",
        "isApprovedForAll(address,address)": "e985e9c5",
        "lenderAddress()": "69d81255",
        "lenderTokenTransfer(address,address,uint256,uint256,bytes)": "729a7b58",
        "lenderWithdraw()": "f14f6e17",
        "loanAmount()": "9d585f7f",
        "loanAmtToPay()": "1bed003e",
        "mTwoMCheck(int256)": "2b689c0d",
        "mint(address,uint256,uint256,bytes)": "731133e9",
        "mintBatch(address,uint256[],uint256[],bytes)": "1f7fdffa",
        "owner()": "8da5cb5b",
        "pause()": "8456cb59",
        "paused()": "5c975abb",
        "pausedStatus()": "03246140",
        "renounceRole(bytes32,address)": "36568abe",
        "repay(uint256)": "371fd8e6",
        "repaymentAmount()": "44dc4b18",
        "revokeRole(bytes32,address)": "d547741f",
        "safeBatchTransferFrom(address,address,uint256[],uint256[],bytes)": "2eb2c2d6",
        "safeTransferFrom(address,address,uint256,uint256,bytes)": "f242432a",
        "setApprovalForAll(address,bool)": "a22cb465",
        "supportsInterface(bytes4)": "01ffc9a7",
        "totalCal()": "1dcd109c",
        "totalInt()": "d764d9df",
        "transfer(address,uint256)": "a9059cbb",
        "unpause()": "3f4ba83a",
        "updateEthPrice(int256)": "0af14a18",
        "updateRatio(int256)": "65a9cbdb",
        "uri(uint256)": "0e89341c",
        "whr()": "b272c54f",
        "withdraw(uint256,address,uint256)": "e63697c8"
    },
    "gasEstimates": {
        "creation": {
            "codeDepositCost": "3062200",
            "executionCost": "infinite",
            "totalCost": "infinite"
        },
        "external": {
            "": "infinite",
            "DEFAULT_ADMIN_ROLE()": "274",
            "MINTER_ROLE()": "273",
            "PAUSER_ROLE()": "295",
            "Withdraw()": "infinite",
            "_borrowsHistory(uint256)": "4652",
            "_depositsHistory(uint256)": "4633",
            "allowance(address,address)": "infinite",
            "approve(address,uint256)": "24686",
            "balanceOf(address)": "2617",
            "balanceOf(address,uint256)": "2744",
            "balanceOfBatch(address[],uint256[])": "infinite",
            "borrow(uint256,string)": "infinite",
            "borrowQTY()": "2396",
            "borrowQuantity()": "2373",
            "borrowerRepaymentStatus()": "2433",
            "borrowerTokenTransfer(address,address,uint256,uint256,bytes)": "infinite",
            "borrowerWithdraw()": "infinite",
            "borrowerWithdrawStatus()": "2400",
            "burn(address,uint256,uint256)": "infinite",
            "burnBatch(address,uint256[],uint256[])": "infinite",
            "createToken(address,uint256,uint256,bytes)": "infinite",
            "decreaseAllowance(address,uint256)": "27034",
            "deposit()": "infinite",
            "feeDepositor()": "2427",
            "getRoleAdmin(bytes32)": "2504",
            "grantRole(bytes32,address)": "infinite",
            "hasRole(bytes32,address)": "2796",
            "increaseAllowance(address,uint256)": "27068",
            "isApprovedForAll(address,address)": "infinite",
            "lenderAddress()": "2470",
            "lenderTokenTransfer(address,address,uint256,uint256,bytes)": "infinite",
            "lenderWithdraw()": "infinite",
            "loanAmount()": "2352",
            "loanAmtToPay()": "2419",
            "mTwoMCheck(int256)": "infinite",
            "mint(address,uint256,uint256,bytes)": "infinite",
            "mintBatch(address,uint256[],uint256[],bytes)": "infinite",
            "owner()": "2460",
            "pause()": "27700",
            "paused()": "2438",
            "pausedStatus()": "2435",
            "renounceRole(bytes32,address)": "29064",
            "repay(uint256)": "29115",
            "repaymentAmount()": "2374",
            "revokeRole(bytes32,address)": "infinite",
            "safeBatchTransferFrom(address,address,uint256[],uint256[],bytes)": "infinite",
            "safeTransferFrom(address,address,uint256,uint256,bytes)": "infinite",
            "setApprovalForAll(address,bool)": "26810",
            "supportsInterface(bytes4)": "infinite",
            "totalCal()": "2375",
            "totalInt()": "2417",
            "transfer(address,uint256)": "infinite",
            "unpause()": "27655",
            "updateEthPrice(int256)": "22403",
            "updateRatio(int256)": "22423",
            "uri(uint256)": "infinite",
            "whr()": "infinite",
            "withdraw(uint256,address,uint256)": "infinite"
        },
        "internal": {
            "_afterTokenTransfer(address,address,uint256)": "infinite",
            "_approve(address,address,uint256)": "infinite",
            "_beforeTokenTransfer(address,address,uint256)": "infinite",
            "_burn(address,uint256)": "infinite",
            "_transfer(address,address,uint256)": "infinite",
            "calculateAmountPayable(uint256)": "270",
            "calculatedepositorInterest(uint256,uint256)": "infinite",
            "getBorrow(uint256)": "infinite",
            "getBorrows()": "infinite",
            "getDeposit(uint256)": "infinite",
            "getDeposits()": "infinite",
            "tokenEthunit()": "infinite",
            "transferFrom(address,address,uint256)": "infinite"
        }
    }
}