{
  "_format": "hh-sol-artifact-1",
  "contractName": "BToken",
  "sourceName": "contracts/BToken.sol",
  "abi": [
    {
      "inputs": [
        {
          "internalType": "contract ComptrollerInterface",
          "name": "comptroller_",
          "type": "address"
        },
        {
          "internalType": "contract InterestRateModel",
          "name": "interestRateModel_",
          "type": "address"
        },
        {
          "internalType": "uint256",
          "name": "initialExchangeRateMantissa_",
          "type": "uint256"
        },
        {
          "internalType": "string",
          "name": "name_",
          "type": "string"
        },
        {
          "internalType": "string",
          "name": "symbol_",
          "type": "string"
        },
        {
          "internalType": "uint8",
          "name": "decimals_",
          "type": "uint8"
        }
      ],
      "stateMutability": "nonpayable",
      "type": "constructor"
    },
    {
      "anonymous": false,
      "inputs": [
        {
          "indexed": false,
          "internalType": "uint256",
          "name": "cashPrior",
          "type": "uint256"
        },
        {
          "indexed": false,
          "internalType": "uint256",
          "name": "interestAccumulated",
          "type": "uint256"
        },
        {
          "indexed": false,
          "internalType": "uint256",
          "name": "borrowIndex",
          "type": "uint256"
        },
        {
          "indexed": false,
          "internalType": "uint256",
          "name": "totalBorrows",
          "type": "uint256"
        }
      ],
      "name": "AccrueInterest",
      "type": "event"
    },
    {
      "anonymous": false,
      "inputs": [
        {
          "indexed": false,
          "internalType": "uint256",
          "name": "allowed",
          "type": "uint256"
        }
      ],
      "name": "Allowed",
      "type": "event"
    },
    {
      "anonymous": false,
      "inputs": [
        {
          "indexed": true,
          "internalType": "address",
          "name": "owner",
          "type": "address"
        },
        {
          "indexed": true,
          "internalType": "address",
          "name": "spender",
          "type": "address"
        },
        {
          "indexed": false,
          "internalType": "uint256",
          "name": "amount",
          "type": "uint256"
        }
      ],
      "name": "Approval",
      "type": "event"
    },
    {
      "anonymous": false,
      "inputs": [
        {
          "indexed": false,
          "internalType": "address",
          "name": "borrower",
          "type": "address"
        },
        {
          "indexed": false,
          "internalType": "uint256",
          "name": "borrowAmount",
          "type": "uint256"
        },
        {
          "indexed": false,
          "internalType": "uint256",
          "name": "accountBorrows",
          "type": "uint256"
        },
        {
          "indexed": false,
          "internalType": "uint256",
          "name": "totalBorrows",
          "type": "uint256"
        }
      ],
      "name": "Borrow",
      "type": "event"
    },
    {
      "anonymous": false,
      "inputs": [
        {
          "indexed": false,
          "internalType": "uint256",
          "name": "error",
          "type": "uint256"
        },
        {
          "indexed": false,
          "internalType": "uint256",
          "name": "info",
          "type": "uint256"
        },
        {
          "indexed": false,
          "internalType": "uint256",
          "name": "detail",
          "type": "uint256"
        }
      ],
      "name": "Failure",
      "type": "event"
    },
    {
      "anonymous": false,
      "inputs": [
        {
          "indexed": false,
          "internalType": "address",
          "name": "liquidator",
          "type": "address"
        },
        {
          "indexed": false,
          "internalType": "address",
          "name": "borrower",
          "type": "address"
        },
        {
          "indexed": false,
          "internalType": "uint256",
          "name": "repayAmount",
          "type": "uint256"
        },
        {
          "indexed": false,
          "internalType": "address",
          "name": "cTokenCollateral",
          "type": "address"
        },
        {
          "indexed": false,
          "internalType": "uint256",
          "name": "seizeTokens",
          "type": "uint256"
        }
      ],
      "name": "LiquidateBorrow",
      "type": "event"
    },
    {
      "anonymous": false,
      "inputs": [
        {
          "indexed": false,
          "internalType": "address",
          "name": "minter",
          "type": "address"
        },
        {
          "indexed": false,
          "internalType": "uint256",
          "name": "mintAmount",
          "type": "uint256"
        },
        {
          "indexed": false,
          "internalType": "uint256",
          "name": "mintTokens",
          "type": "uint256"
        }
      ],
      "name": "Mint",
      "type": "event"
    },
    {
      "anonymous": false,
      "inputs": [
        {
          "indexed": false,
          "internalType": "address",
          "name": "oldAdmin",
          "type": "address"
        },
        {
          "indexed": false,
          "internalType": "address",
          "name": "newAdmin",
          "type": "address"
        }
      ],
      "name": "NewAdmin",
      "type": "event"
    },
    {
      "anonymous": false,
      "inputs": [
        {
          "indexed": false,
          "internalType": "contract ComptrollerInterface",
          "name": "oldComptroller",
          "type": "address"
        },
        {
          "indexed": false,
          "internalType": "contract ComptrollerInterface",
          "name": "newComptroller",
          "type": "address"
        }
      ],
      "name": "NewComptroller",
      "type": "event"
    },
    {
      "anonymous": false,
      "inputs": [
        {
          "indexed": false,
          "internalType": "contract InterestRateModel",
          "name": "oldInterestRateModel",
          "type": "address"
        },
        {
          "indexed": false,
          "internalType": "contract InterestRateModel",
          "name": "newInterestRateModel",
          "type": "address"
        }
      ],
      "name": "NewMarketInterestRateModel",
      "type": "event"
    },
    {
      "anonymous": false,
      "inputs": [
        {
          "indexed": false,
          "internalType": "address",
          "name": "oldPendingAdmin",
          "type": "address"
        },
        {
          "indexed": false,
          "internalType": "address",
          "name": "newPendingAdmin",
          "type": "address"
        }
      ],
      "name": "NewPendingAdmin",
      "type": "event"
    },
    {
      "anonymous": false,
      "inputs": [
        {
          "indexed": false,
          "internalType": "uint256",
          "name": "oldReserveFactorMantissa",
          "type": "uint256"
        },
        {
          "indexed": false,
          "internalType": "uint256",
          "name": "newReserveFactorMantissa",
          "type": "uint256"
        }
      ],
      "name": "NewReserveFactor",
      "type": "event"
    },
    {
      "anonymous": false,
      "inputs": [
        {
          "indexed": false,
          "internalType": "address",
          "name": "redeemer",
          "type": "address"
        },
        {
          "indexed": false,
          "internalType": "uint256",
          "name": "redeemAmount",
          "type": "uint256"
        },
        {
          "indexed": false,
          "internalType": "uint256",
          "name": "redeemTokens",
          "type": "uint256"
        }
      ],
      "name": "Redeem",
      "type": "event"
    },
    {
      "anonymous": false,
      "inputs": [
        {
          "indexed": false,
          "internalType": "address",
          "name": "payer",
          "type": "address"
        },
        {
          "indexed": false,
          "internalType": "address",
          "name": "borrower",
          "type": "address"
        },
        {
          "indexed": false,
          "internalType": "uint256",
          "name": "repayAmount",
          "type": "uint256"
        },
        {
          "indexed": false,
          "internalType": "uint256",
          "name": "accountBorrows",
          "type": "uint256"
        },
        {
          "indexed": false,
          "internalType": "uint256",
          "name": "totalBorrows",
          "type": "uint256"
        }
      ],
      "name": "RepayBorrow",
      "type": "event"
    },
    {
      "anonymous": false,
      "inputs": [
        {
          "indexed": false,
          "internalType": "address",
          "name": "benefactor",
          "type": "address"
        },
        {
          "indexed": false,
          "internalType": "uint256",
          "name": "addAmount",
          "type": "uint256"
        },
        {
          "indexed": false,
          "internalType": "uint256",
          "name": "newTotalReserves",
          "type": "uint256"
        }
      ],
      "name": "ReservesAdded",
      "type": "event"
    },
    {
      "anonymous": false,
      "inputs": [
        {
          "indexed": false,
          "internalType": "address",
          "name": "admin",
          "type": "address"
        },
        {
          "indexed": false,
          "internalType": "uint256",
          "name": "reduceAmount",
          "type": "uint256"
        },
        {
          "indexed": false,
          "internalType": "uint256",
          "name": "newTotalReserves",
          "type": "uint256"
        }
      ],
      "name": "ReservesReduced",
      "type": "event"
    },
    {
      "anonymous": false,
      "inputs": [
        {
          "indexed": false,
          "internalType": "uint256",
          "name": "_var",
          "type": "uint256"
        }
      ],
      "name": "Test1",
      "type": "event"
    },
    {
      "anonymous": false,
      "inputs": [
        {
          "indexed": true,
          "internalType": "address",
          "name": "from",
          "type": "address"
        },
        {
          "indexed": true,
          "internalType": "address",
          "name": "to",
          "type": "address"
        },
        {
          "indexed": false,
          "internalType": "uint256",
          "name": "amount",
          "type": "uint256"
        }
      ],
      "name": "Transfer",
      "type": "event"
    },
    {
      "inputs": [],
      "name": "_acceptAdmin",
      "outputs": [
        {
          "internalType": "uint256",
          "name": "",
          "type": "uint256"
        }
      ],
      "stateMutability": "nonpayable",
      "type": "function"
    },
    {
      "inputs": [],
      "name": "_addReservesFresh",
      "outputs": [
        {
          "internalType": "uint256",
          "name": "",
          "type": "uint256"
        },
        {
          "internalType": "uint256",
          "name": "",
          "type": "uint256"
        }
      ],
      "stateMutability": "payable",
      "type": "function"
    },
    {
      "inputs": [],
      "name": "_addReservesInternal",
      "outputs": [
        {
          "internalType": "uint256",
          "name": "",
          "type": "uint256"
        }
      ],
      "stateMutability": "payable",
      "type": "function"
    },
    {
      "inputs": [
        {
          "internalType": "uint256",
          "name": "reduceAmount",
          "type": "uint256"
        }
      ],
      "name": "_reduceReserves",
      "outputs": [
        {
          "internalType": "uint256",
          "name": "",
          "type": "uint256"
        }
      ],
      "stateMutability": "payable",
      "type": "function"
    },
    {
      "inputs": [
        {
          "internalType": "uint256",
          "name": "reduceAmount",
          "type": "uint256"
        }
      ],
      "name": "_reduceReservesFresh",
      "outputs": [
        {
          "internalType": "uint256",
          "name": "",
          "type": "uint256"
        }
      ],
      "stateMutability": "payable",
      "type": "function"
    },
    {
      "inputs": [
        {
          "internalType": "contract ComptrollerInterface",
          "name": "newComptroller",
          "type": "address"
        }
      ],
      "name": "_setComptroller",
      "outputs": [
        {
          "internalType": "uint256",
          "name": "",
          "type": "uint256"
        }
      ],
      "stateMutability": "nonpayable",
      "type": "function"
    },
    {
      "inputs": [
        {
          "internalType": "contract InterestRateModel",
          "name": "newInterestRateModel",
          "type": "address"
        }
      ],
      "name": "_setInterestRateModel",
      "outputs": [
        {
          "internalType": "uint256",
          "name": "",
          "type": "uint256"
        }
      ],
      "stateMutability": "nonpayable",
      "type": "function"
    },
    {
      "inputs": [
        {
          "internalType": "address payable",
          "name": "newPendingAdmin",
          "type": "address"
        }
      ],
      "name": "_setPendingAdmin",
      "outputs": [
        {
          "internalType": "uint256",
          "name": "",
          "type": "uint256"
        }
      ],
      "stateMutability": "nonpayable",
      "type": "function"
    },
    {
      "inputs": [
        {
          "internalType": "uint256",
          "name": "newReserveFactorMantissa",
          "type": "uint256"
        }
      ],
      "name": "_setReserveFactor",
      "outputs": [
        {
          "internalType": "uint256",
          "name": "",
          "type": "uint256"
        }
      ],
      "stateMutability": "nonpayable",
      "type": "function"
    },
    {
      "inputs": [],
      "name": "accrualBlockNumber",
      "outputs": [
        {
          "internalType": "uint256",
          "name": "",
          "type": "uint256"
        }
      ],
      "stateMutability": "view",
      "type": "function"
    },
    {
      "inputs": [],
      "name": "accrueInterest",
      "outputs": [
        {
          "internalType": "uint256",
          "name": "",
          "type": "uint256"
        }
      ],
      "stateMutability": "nonpayable",
      "type": "function"
    },
    {
      "inputs": [],
      "name": "admin",
      "outputs": [
        {
          "internalType": "address",
          "name": "",
          "type": "address"
        }
      ],
      "stateMutability": "view",
      "type": "function"
    },
    {
      "inputs": [
        {
          "internalType": "address",
          "name": "owner",
          "type": "address"
        },
        {
          "internalType": "address",
          "name": "spender",
          "type": "address"
        }
      ],
      "name": "allowance",
      "outputs": [
        {
          "internalType": "uint256",
          "name": "",
          "type": "uint256"
        }
      ],
      "stateMutability": "view",
      "type": "function"
    },
    {
      "inputs": [
        {
          "internalType": "address",
          "name": "spender",
          "type": "address"
        },
        {
          "internalType": "uint256",
          "name": "amount",
          "type": "uint256"
        }
      ],
      "name": "approve",
      "outputs": [
        {
          "internalType": "bool",
          "name": "",
          "type": "bool"
        }
      ],
      "stateMutability": "nonpayable",
      "type": "function"
    },
    {
      "inputs": [
        {
          "internalType": "address",
          "name": "account",
          "type": "address"
        }
      ],
      "name": "balanceOf",
      "outputs": [
        {
          "internalType": "uint256",
          "name": "",
          "type": "uint256"
        }
      ],
      "stateMutability": "view",
      "type": "function"
    },
    {
      "inputs": [
        {
          "internalType": "address",
          "name": "owner",
          "type": "address"
        }
      ],
      "name": "balanceOfUnderlying",
      "outputs": [
        {
          "internalType": "uint256",
          "name": "",
          "type": "uint256"
        }
      ],
      "stateMutability": "nonpayable",
      "type": "function"
    },
    {
      "inputs": [
        {
          "internalType": "address",
          "name": "account",
          "type": "address"
        }
      ],
      "name": "borrowBalanceCurrent",
      "outputs": [
        {
          "internalType": "uint256",
          "name": "",
          "type": "uint256"
        }
      ],
      "stateMutability": "nonpayable",
      "type": "function"
    },
    {
      "inputs": [
        {
          "internalType": "address",
          "name": "account",
          "type": "address"
        }
      ],
      "name": "borrowBalanceStored",
      "outputs": [
        {
          "internalType": "uint256",
          "name": "",
          "type": "uint256"
        }
      ],
      "stateMutability": "view",
      "type": "function"
    },
    {
      "inputs": [],
      "name": "borrowIndex",
      "outputs": [
        {
          "internalType": "uint256",
          "name": "",
          "type": "uint256"
        }
      ],
      "stateMutability": "view",
      "type": "function"
    },
    {
      "inputs": [
        {
          "internalType": "uint256",
          "name": "borrowAmount",
          "type": "uint256"
        }
      ],
      "name": "borrowInternal",
      "outputs": [
        {
          "internalType": "uint256",
          "name": "",
          "type": "uint256"
        }
      ],
      "stateMutability": "nonpayable",
      "type": "function"
    },
    {
      "inputs": [],
      "name": "borrowRatePerBlock",
      "outputs": [
        {
          "internalType": "uint256",
          "name": "",
          "type": "uint256"
        }
      ],
      "stateMutability": "view",
      "type": "function"
    },
    {
      "inputs": [],
      "name": "comptroller",
      "outputs": [
        {
          "internalType": "contract ComptrollerInterface",
          "name": "",
          "type": "address"
        }
      ],
      "stateMutability": "view",
      "type": "function"
    },
    {
      "inputs": [],
      "name": "decimals",
      "outputs": [
        {
          "internalType": "uint8",
          "name": "",
          "type": "uint8"
        }
      ],
      "stateMutability": "view",
      "type": "function"
    },
    {
      "inputs": [
        {
          "internalType": "address payable",
          "name": "to",
          "type": "address"
        },
        {
          "internalType": "uint256",
          "name": "amount",
          "type": "uint256"
        }
      ],
      "name": "doTransferOut",
      "outputs": [
        {
          "internalType": "enum TokenErrorReporter.Error",
          "name": "",
          "type": "uint8"
        }
      ],
      "stateMutability": "payable",
      "type": "function"
    },
    {
      "inputs": [],
      "name": "exchangeRateCurrent",
      "outputs": [
        {
          "internalType": "uint256",
          "name": "",
          "type": "uint256"
        }
      ],
      "stateMutability": "nonpayable",
      "type": "function"
    },
    {
      "inputs": [],
      "name": "exchangeRateStored",
      "outputs": [
        {
          "internalType": "uint256",
          "name": "",
          "type": "uint256"
        }
      ],
      "stateMutability": "view",
      "type": "function"
    },
    {
      "inputs": [
        {
          "internalType": "address",
          "name": "account",
          "type": "address"
        }
      ],
      "name": "getAccountSnapshot",
      "outputs": [
        {
          "internalType": "uint256",
          "name": "",
          "type": "uint256"
        },
        {
          "internalType": "uint256",
          "name": "",
          "type": "uint256"
        },
        {
          "internalType": "uint256",
          "name": "",
          "type": "uint256"
        },
        {
          "internalType": "uint256",
          "name": "",
          "type": "uint256"
        }
      ],
      "stateMutability": "view",
      "type": "function"
    },
    {
      "inputs": [],
      "name": "getCash",
      "outputs": [
        {
          "internalType": "uint256",
          "name": "",
          "type": "uint256"
        }
      ],
      "stateMutability": "view",
      "type": "function"
    },
    {
      "inputs": [],
      "name": "implementation",
      "outputs": [
        {
          "internalType": "address",
          "name": "",
          "type": "address"
        }
      ],
      "stateMutability": "view",
      "type": "function"
    },
    {
      "inputs": [],
      "name": "interestRateModel",
      "outputs": [
        {
          "internalType": "contract InterestRateModel",
          "name": "",
          "type": "address"
        }
      ],
      "stateMutability": "view",
      "type": "function"
    },
    {
      "inputs": [],
      "name": "isBToken",
      "outputs": [
        {
          "internalType": "bool",
          "name": "",
          "type": "bool"
        }
      ],
      "stateMutability": "view",
      "type": "function"
    },
    {
      "inputs": [],
      "name": "isComptroller",
      "outputs": [
        {
          "internalType": "bool",
          "name": "",
          "type": "bool"
        }
      ],
      "stateMutability": "view",
      "type": "function"
    },
    {
      "inputs": [],
      "name": "isInterestRateModel",
      "outputs": [
        {
          "internalType": "bool",
          "name": "",
          "type": "bool"
        }
      ],
      "stateMutability": "view",
      "type": "function"
    },
    {
      "inputs": [],
      "name": "mintInternal",
      "outputs": [
        {
          "internalType": "uint256",
          "name": "",
          "type": "uint256"
        }
      ],
      "stateMutability": "payable",
      "type": "function"
    },
    {
      "inputs": [],
      "name": "name",
      "outputs": [
        {
          "internalType": "string",
          "name": "",
          "type": "string"
        }
      ],
      "stateMutability": "view",
      "type": "function"
    },
    {
      "inputs": [],
      "name": "pendingAdmin",
      "outputs": [
        {
          "internalType": "address payable",
          "name": "",
          "type": "address"
        }
      ],
      "stateMutability": "view",
      "type": "function"
    },
    {
      "inputs": [],
      "name": "protocolSeizeShareMantissa",
      "outputs": [
        {
          "internalType": "uint256",
          "name": "",
          "type": "uint256"
        }
      ],
      "stateMutability": "view",
      "type": "function"
    },
    {
      "inputs": [
        {
          "internalType": "uint256",
          "name": "redeemTokens",
          "type": "uint256"
        }
      ],
      "name": "redeemInternal",
      "outputs": [
        {
          "internalType": "uint256",
          "name": "",
          "type": "uint256"
        }
      ],
      "stateMutability": "nonpayable",
      "type": "function"
    },
    {
      "inputs": [
        {
          "internalType": "address",
          "name": "borrower",
          "type": "address"
        }
      ],
      "name": "repayBorrowBehalfInternal",
      "outputs": [
        {
          "internalType": "uint256",
          "name": "",
          "type": "uint256"
        },
        {
          "internalType": "uint256",
          "name": "",
          "type": "uint256"
        }
      ],
      "stateMutability": "payable",
      "type": "function"
    },
    {
      "inputs": [
        {
          "internalType": "address",
          "name": "payer",
          "type": "address"
        },
        {
          "internalType": "address",
          "name": "borrower",
          "type": "address"
        }
      ],
      "name": "repayBorrowFresh",
      "outputs": [
        {
          "internalType": "uint256",
          "name": "",
          "type": "uint256"
        },
        {
          "internalType": "uint256",
          "name": "",
          "type": "uint256"
        }
      ],
      "stateMutability": "payable",
      "type": "function"
    },
    {
      "inputs": [],
      "name": "repayBorrowInternal",
      "outputs": [
        {
          "internalType": "uint256",
          "name": "",
          "type": "uint256"
        },
        {
          "internalType": "uint256",
          "name": "",
          "type": "uint256"
        }
      ],
      "stateMutability": "payable",
      "type": "function"
    },
    {
      "inputs": [],
      "name": "reserveFactorMantissa",
      "outputs": [
        {
          "internalType": "uint256",
          "name": "",
          "type": "uint256"
        }
      ],
      "stateMutability": "view",
      "type": "function"
    },
    {
      "inputs": [
        {
          "internalType": "address",
          "name": "liquidator",
          "type": "address"
        },
        {
          "internalType": "address",
          "name": "borrower",
          "type": "address"
        },
        {
          "internalType": "uint256",
          "name": "seizeTokens",
          "type": "uint256"
        }
      ],
      "name": "seize",
      "outputs": [
        {
          "internalType": "uint256",
          "name": "",
          "type": "uint256"
        }
      ],
      "stateMutability": "nonpayable",
      "type": "function"
    },
    {
      "inputs": [],
      "name": "supplyRatePerBlock",
      "outputs": [
        {
          "internalType": "uint256",
          "name": "",
          "type": "uint256"
        }
      ],
      "stateMutability": "view",
      "type": "function"
    },
    {
      "inputs": [],
      "name": "symbol",
      "outputs": [
        {
          "internalType": "string",
          "name": "",
          "type": "string"
        }
      ],
      "stateMutability": "view",
      "type": "function"
    },
    {
      "inputs": [],
      "name": "totalBorrows",
      "outputs": [
        {
          "internalType": "uint256",
          "name": "",
          "type": "uint256"
        }
      ],
      "stateMutability": "view",
      "type": "function"
    },
    {
      "inputs": [],
      "name": "totalBorrowsCurrent",
      "outputs": [
        {
          "internalType": "uint256",
          "name": "",
          "type": "uint256"
        }
      ],
      "stateMutability": "nonpayable",
      "type": "function"
    },
    {
      "inputs": [],
      "name": "totalReserves",
      "outputs": [
        {
          "internalType": "uint256",
          "name": "",
          "type": "uint256"
        }
      ],
      "stateMutability": "view",
      "type": "function"
    },
    {
      "inputs": [],
      "name": "totalSupply",
      "outputs": [
        {
          "internalType": "uint256",
          "name": "",
          "type": "uint256"
        }
      ],
      "stateMutability": "view",
      "type": "function"
    },
    {
      "inputs": [
        {
          "internalType": "address",
          "name": "dst",
          "type": "address"
        },
        {
          "internalType": "uint256",
          "name": "amount",
          "type": "uint256"
        }
      ],
      "name": "transfer",
      "outputs": [
        {
          "internalType": "bool",
          "name": "",
          "type": "bool"
        }
      ],
      "stateMutability": "nonpayable",
      "type": "function"
    },
    {
      "inputs": [
        {
          "internalType": "address",
          "name": "src",
          "type": "address"
        },
        {
          "internalType": "address",
          "name": "dst",
          "type": "address"
        },
        {
          "internalType": "uint256",
          "name": "amount",
          "type": "uint256"
        }
      ],
      "name": "transferFrom",
      "outputs": [
        {
          "internalType": "bool",
          "name": "",
          "type": "bool"
        }
      ],
      "stateMutability": "nonpayable",
      "type": "function"
    },
    {
      "inputs": [],
      "name": "underlying",
      "outputs": [
        {
          "internalType": "address",
          "name": "",
          "type": "address"
        }
      ],
      "stateMutability": "view",
      "type": "function"
    }
  ],
  "bytecode": "0x6080604052600080546001600160a01b031916331790553480156200002357600080fd5b50604051620050c7380380620050c7833981016040819052620000469162000512565b6200005686868686868662000075565b5050600080546001600160a01b0319163317905550620007b392505050565b6000546001600160a01b03163314620000ab5760405162461bcd60e51b8152600401620000a290620005e1565b60405180910390fd5b600854158015620000bc5750600954155b620000db5760405162461bcd60e51b8152600401620000a29062000625565b600684905583620001005760405162461bcd60e51b8152600401620000a29062000668565b60006200010d87620001d3565b90508015620001305760405162461bcd60e51b8152600401620000a290620006fa565b6200013a6200026b565b600855670de0b6b3a764000060095562000154866200026f565b90508015620001775760405162461bcd60e51b8152600401620000a290620006b8565b83516200018c906001906020870190620003c1565b508251620001a2906002906020860190620003c1565b50506003805460ff90921660ff1990921691909117905550506000805460ff60a01b1916600160a01b179055505050565b600080546001600160a01b03163314620001fd57620001f56001603f62000319565b905062000266565b6004546001600160a01b0316600480546001600160a01b0319166001600160a01b0385161790556040517f7ac369dbd14fa5ea3f473ed67cc9d598964a77501540ba6751eb0b3decf5870d90620002589083908690620005c7565b60405180910390a160009150505b919050565b4390565b6000805481906001600160a01b031633146200029c57620002936001604262000319565b91505062000266565b620002a66200026b565b60085414620002bd5762000293600a604162000319565b506005546001600160a01b0316600580546001600160a01b0319166001600160a01b0385161790556040517fedffc32e068c7c95dfd4bdfd5c4d939a084d6b11c4199eac8436ed234d72f92690620002589083908690620005c7565b60007f45b96fe442630264581b197e84bbada861235052c5a1aadfff9ea4e40a969aa08360108111156200035d57634e487b7160e01b600052602160045260246000fd5b8360508111156200037e57634e487b7160e01b600052602160045260246000fd5b6000604051620003919392919062000731565b60405180910390a1826010811115620003ba57634e487b7160e01b600052602160045260246000fd5b9392505050565b828054620003cf9062000747565b90600052602060002090601f016020900481019282620003f357600085556200043e565b82601f106200040e57805160ff19168380011785556200043e565b828001600101855582156200043e579182015b828111156200043e57825182559160200191906001019062000421565b506200044c92915062000450565b5090565b5b808211156200044c576000815560010162000451565b600082601f83011262000478578081fd5b81516001600160401b038082111562000495576200049562000784565b6040516020601f8401601f1916820181018381118382101715620004bd57620004bd62000784565b6040528382528584018101871015620004d4578485fd5b8492505b83831015620004f75785830181015182840182015291820191620004d8565b838311156200050857848185840101525b5095945050505050565b60008060008060008060c087890312156200052b578182fd5b865162000538816200079a565b60208801519096506200054b816200079a565b6040880151606089015191965094506001600160401b03808211156200056f578384fd5b6200057d8a838b0162000467565b9450608089015191508082111562000593578384fd5b50620005a289828a0162000467565b92505060a087015160ff81168114620005b9578182fd5b809150509295509295509295565b6001600160a01b0392831681529116602082015260400190565b60208082526024908201527f6f6e6c792061646d696e206d617920696e697469616c697a6520746865206d616040820152631c9ad95d60e21b606082015260800190565b60208082526023908201527f6d61726b6574206d6179206f6e6c7920626520696e697469616c697a6564206f6040820152626e636560e81b606082015260800190565b60208082526030908201527f696e697469616c2065786368616e67652072617465206d75737420626520677260408201526f32b0ba32b9103a3430b7103d32b9379760811b606082015260800190565b60208082526022908201527f73657474696e6720696e7465726573742072617465206d6f64656c206661696c604082015261195960f21b606082015260800190565b6020808252601a908201527f73657474696e6720636f6d7074726f6c6c6572206661696c6564000000000000604082015260600190565b9283526020830191909152604082015260600190565b6002810460018216806200075c57607f821691505b602082108114156200077e57634e487b7160e01b600052602260045260246000fd5b50919050565b634e487b7160e01b600052604160045260246000fd5b6001600160a01b0381168114620007b057600080fd5b50565b61490480620007c36000396000f3fe60806040526004361061024e5760003560e01c80627e3dd21461025357806306fdde031461027e578063092a8596146102a0578063095ea7b3146102c15780630da80b00146102e1578063124d0e07146102e9578063173b99041461030957806317bfdfbc1461032b57806318160ddd1461034b578063182df0f51461036057806318beeeb4146103755780632191f92a1461025357806323b872dd1461039557806326782247146103b5578063313ce567146103d75780633af9e669146103f95780633b1d21a2146104195780633ef530da1461042e5780634576b5db1461044157806347bd3718146104615780635c60da1b146104765780635fe3b5671461048b578063601a0bf1146104a05780636752e702146104b35780636c540baf146104c85780636f307dc3146104dd57806370a08231146104f257806373acee98146105125780638f840ddd1461052757806390795e181461053c57806394c62a721461055c57806395d89b411461056457806395dd919314610579578063980d147b14610599578063a67de58e146105ac578063a6afed95146105b4578063a9059cbb146105c9578063aa5af0fd146105e9578063ae9d70b0146105fe578063b2a02ff114610613578063b71d1a0c14610633578063bd6d894d14610653578063c37f68e214610668578063dd62ed3e14610698578063e6035b49146106b8578063e9c714f2146106c0578063f2b3abbd146106d5578063f3fdb15a146106f5578063f851a4401461070a578063f8f9da281461071f578063fbb6233714610253578063fca7820b14610734575b600080fd5b34801561025f57600080fd5b50610268610754565b604051610275919061426b565b60405180910390f35b34801561028a57600080fd5b50610293610759565b604051610275919061429e565b6102b36102ae36600461401a565b6107e7565b6040516102759291906146f0565b3480156102cd57600080fd5b506102686102dc3660046140d9565b61087d565b6102b36108eb565b6102fc6102f7366004614036565b61097e565b6040516102759190614276565b34801561031557600080fd5b5061031e6109c0565b60405161027591906146e7565b34801561033757600080fd5b5061031e61034636600461401a565b6109c6565b34801561035757600080fd5b5061031e610a3c565b34801561036c57600080fd5b5061031e610a42565b34801561038157600080fd5b5061031e6103903660046140eb565b610a9a565b3480156103a157600080fd5b506102686103b0366004614099565b610b18565b3480156103c157600080fd5b506103ca610b65565b604051610275919061411b565b3480156103e357600080fd5b506103ec610b79565b604051610275919061472f565b34801561040557600080fd5b5061031e61041436600461401a565b610b82565b34801561042557600080fd5b5061031e610c12565b61031e61043c3660046140eb565b610c21565b34801561044d57600080fd5b5061031e61045c36600461401a565b610d21565b34801561046d57600080fd5b5061031e610db2565b34801561048257600080fd5b506103ca610db8565b34801561049757600080fd5b506103ca610dc7565b61031e6104ae3660046140eb565b610dd6565b3480156104bf57600080fd5b5061031e610e58565b3480156104d457600080fd5b5061031e610e63565b3480156104e957600080fd5b506103ca610e69565b3480156104fe57600080fd5b5061031e61050d36600461401a565b610e78565b34801561051e57600080fd5b5061031e610e93565b34801561053357600080fd5b5061031e610ef7565b34801561054857600080fd5b5061031e6105573660046140eb565b610efd565b61031e610f65565b34801561057057600080fd5b50610293610fee565b34801561058557600080fd5b5061031e61059436600461401a565b610ffb565b6102b36105a7366004614061565b61104d565b61031e611480565b3480156105c057600080fd5b5061031e611500565b3480156105d557600080fd5b506102686105e43660046140d9565b6118b9565b3480156105f557600080fd5b5061031e611905565b34801561060a57600080fd5b5061031e61190b565b34801561061f57600080fd5b5061031e61062e366004614099565b611bf7565b34801561063f57600080fd5b5061031e61064e36600461401a565b611c43565b34801561065f57600080fd5b5061031e611cad565b34801561067457600080fd5b5061068861068336600461401a565b611d16565b6040516102759493929190614714565b3480156106a457600080fd5b5061031e6106b3366004614061565b611dd3565b6102b3611dfe565b3480156106cc57600080fd5b5061031e611e91565b3480156106e157600080fd5b5061031e6106f036600461401a565b611f83565b34801561070157600080fd5b506103ca611fc9565b34801561071657600080fd5b506103ca611fd8565b34801561072b57600080fd5b5061031e611fe7565b34801561074057600080fd5b5061031e61074f3660046140eb565b612077565b600181565b60018054610766906147ab565b80601f0160208091040260200160405190810160405280929190818152602001828054610792906147ab565b80156107df5780601f106107b4576101008083540402835291602001916107df565b820191906000526020600020905b8154815290600101906020018083116107c257829003601f168201915b505050505081565b600080548190600160a01b900460ff1661080057600080fd5b6000805460ff60a01b19168155610815611500565b905080156108535761084781601081111561084057634e487b7160e01b600052602160045260246000fd5b60356120de565b60009250925050610863565b61085d338561104d565b92509250505b6000805460ff60a01b1916600160a01b1790559092909150565b336000818152600e602090815260408083206001600160a01b03871680855292528083208590555191929182907f8c5be1e5ebec7d5bd14f71427d1e84f3dd0314c0f7b2291e5b200ac8c7c3b925906108d79087906146e7565b60405180910390a360019150505b92915050565b6000806000806108f9612168565b600854146109185761090d600a604f6120de565b9350915061097a9050565b610922333461216c565b905080600b54610932919061473d565b9150600b5482101561094357600080fd5b600b82905560405160008051602061480f8339815191529061096a9033908490869061424a565b60405180910390a1600093509150505b9091565b6040516000906001600160a01b0384169083156108fc0290849084818181858888f193505050501580156109b6573d6000803e3d6000fd5b5060009392505050565b60075481565b60008054600160a01b900460ff166109dd57600080fd5b6000805460ff60a01b191681556109f2611500565b14610a185760405162461bcd60e51b8152600401610a0f906142f1565b60405180910390fd5b610a2182610ffb565b90505b6000805460ff60a01b1916600160a01b179055919050565b600c5481565b6000806000610a4f612195565b90925090506000826003811115610a7657634e487b7160e01b600052602160045260246000fd5b14610a935760405162461bcd60e51b8152600401610a0f90614692565b9150505b90565b60008054600160a01b900460ff16610ab157600080fd5b6000805460ff60a01b19168155610ac6611500565b90508015610b0057610af8816010811115610af157634e487b7160e01b600052602160045260246000fd5b60276120de565b915050610a24565b50506000805460ff60a01b1916600160a01b17905590565b60008054600160a01b900460ff16610b2f57600080fd5b6000805460ff60a01b19168155610b4833868686612267565b1490506000805460ff60a01b1916600160a01b1790559392505050565b60035461010090046001600160a01b031681565b60035460ff1681565b6000806040518060200160405280610b98611cad565b90526001600160a01b0384166000908152600d6020526040812054919250908190610bc49084906125c3565b90925090506000826003811115610beb57634e487b7160e01b600052602160045260246000fd5b14610c085760405162461bcd60e51b8152600401610a0f90614321565b925050505b919050565b6000610c1c612623565b905090565b6000805481906001600160a01b03163314610c4a57610c42600160316120de565b915050610c0d565b610c52612168565b60085414610c6657610c42600a60336120de565b82610c6f612623565b1015610c8157610c42600e60326120de565b600b54831115610c9757610c42600260346120de565b82600b54610ca59190614794565b9050600b54811115610cb657600080fd5b600b819055600054610cd1906001600160a01b03168461097e565b506000546040517f3bad0c59cf2f06e7314077049f48a93578cd16f5ef92329f1dab1420a99c177e91610d13916001600160a01b03909116908690859061424a565b60405180910390a192915050565b600080546001600160a01b03163314610d4757610d406001603f6120de565b9050610c0d565b6004546001600160a01b0316600480546001600160a01b0319166001600160a01b0385161790556040517f7ac369dbd14fa5ea3f473ed67cc9d598964a77501540ba6751eb0b3decf5870d90610da09083908690614155565b60405180910390a160005b9392505050565b600a5481565b6011546001600160a01b031681565b6004546001600160a01b031681565b60008054600160a01b900460ff16610ded57600080fd5b6000805460ff60a01b19168155610e02611500565b90508015610e3457610af8816010811115610e2d57634e487b7160e01b600052602160045260246000fd5b60306120de565b610e3d83610c21565b9150506000805460ff60a01b1916600160a01b179055919050565b666379da05b6000081565b60085481565b6010546001600160a01b031681565b6001600160a01b03166000908152600d602052604090205490565b60008054600160a01b900460ff16610eaa57600080fd5b6000805460ff60a01b19168155610ebf611500565b14610edc5760405162461bcd60e51b8152600401610a0f906142f1565b50600a545b6000805460ff60a01b1916600160a01b17905590565b600b5481565b60008054600160a01b900460ff16610f1457600080fd5b6000805460ff60a01b19168155610f29611500565b90508015610f5b57610af8816010811115610f5457634e487b7160e01b600052602160045260246000fd5b60086120de565b610e3d3384612663565b60008054600160a01b900460ff16610f7c57600080fd5b6000805460ff60a01b19168155610f91611500565b90508015610fcb57610fc3816010811115610fbc57634e487b7160e01b600052602160045260246000fd5b601e6120de565b915050610ee1565b610fd53334612b01565b9150506000805460ff60a01b1916600160a01b17905590565b60028054610766906147ab565b6000806000611009846130be565b9092509050600082600381111561103057634e487b7160e01b600052602160045260246000fd5b14610dab5760405162461bcd60e51b8152600401610a0f9061445b565b60048054604051631200453160e11b8152600092839283926001600160a01b03909116916324008a62916110899130918a918a913491016141c6565b602060405180830381600087803b1580156110a357600080fd5b505af11580156110b7573d6000803e3d6000fd5b505050506040513d601f19601f820116820180604052508101906110db9190614103565b905080156110fc576110f06003603883613199565b60009250925050611479565b611104612168565b60085414611118576110f0600a60396120de565b611120613f0d565b6001600160a01b0385166000908152600f6020526040902060010154606082015261114a856130be565b608083018190526020830182600381111561117557634e487b7160e01b600052602160045260246000fd5b600381111561119457634e487b7160e01b600052602160045260246000fd5b90525060009050816020015160038111156111bf57634e487b7160e01b600052602160045260246000fd5b14611201576111f460096037836020015160038111156111ef57634e487b7160e01b600052602160045260246000fd5b613199565b6000935093505050611479565b346001600160801b03141561121f5760808101516040820152611226565b3460408201525b611234868260400151613222565b8190601081111561125557634e487b7160e01b600052602160045260246000fd5b9081601081111561127657634e487b7160e01b600052602160045260246000fd5b90525060008151601081111561129c57634e487b7160e01b600052602160045260246000fd5b146112ae5780516111f490603c6120de565b6112c081608001518260e00151613274565b60a08301819052602083018260038111156112eb57634e487b7160e01b600052602160045260246000fd5b600381111561130a57634e487b7160e01b600052602160045260246000fd5b905250600090508160200151600381111561133557634e487b7160e01b600052602160045260246000fd5b146113525760405162461bcd60e51b8152600401610a0f90614527565b611362600a548260e00151613274565b60c083018190526020830182600381111561138d57634e487b7160e01b600052602160045260246000fd5b60038111156113ac57634e487b7160e01b600052602160045260246000fd5b90525060009050816020015160038111156113d757634e487b7160e01b600052602160045260246000fd5b146113f45760405162461bcd60e51b8152600401610a0f906145f7565b60a0810180516001600160a01b0387166000908152600f60205260409081902091825560095460019092019190915560c0830151600a81905560e0840151925191517f1a2a22cb034d26d1854bdc6666a5b91fe25efbbb5dcad3b0355478d6f5c362a193611465938b938b93614219565b60405180910390a160e00151600093509150505b9250929050565b60008054600160a01b900460ff1661149757600080fd5b6000805460ff60a01b191681556114ac611500565b905080156114de57610fc38160108111156114d757634e487b7160e01b600052602160045260246000fd5b604e6120de565b6114e66108eb565b509150506000805460ff60a01b1916600160a01b17905590565b60008061150b612168565b6008549091508082141561152457600092505050610a97565b600061152e612623565b600a54600b546009546005546040516315f2405360e01b81529495509293919290916000916001600160a01b0316906315f2405390611575908890889088906004016146fe565b60206040518083038186803b15801561158d57600080fd5b505afa1580156115a1573d6000803e3d6000fd5b505050506040513d601f19601f820116820180604052508101906115c59190614103565b905065048c273950008111156115ed5760405162461bcd60e51b8152600401610a0f906144f1565b6000806115fa8989613274565b9092509050600082600381111561162157634e487b7160e01b600052602160045260246000fd5b1461163e5760405162461bcd60e51b8152600401610a0f906145c0565b611646613f53565b60008060008061166460405180602001604052808a8152508761329f565b9097509450600087600381111561168b57634e487b7160e01b600052602160045260246000fd5b146116cc576116b7600960068960038111156111ef57634e487b7160e01b600052602160045260246000fd5b9e505050505050505050505050505050610a97565b6116d6858c6125c3565b909750935060008760038111156116fd57634e487b7160e01b600052602160045260246000fd5b14611729576116b7600960018960038111156111ef57634e487b7160e01b600052602160045260246000fd5b611733848c61331b565b9097509250600087600381111561175a57634e487b7160e01b600052602160045260246000fd5b14611786576116b7600960048960038111156111ef57634e487b7160e01b600052602160045260246000fd5b6117a16040518060200160405280600754815250858c61334b565b909750915060008760038111156117c857634e487b7160e01b600052602160045260246000fd5b146117f4576116b7600960058960038111156111ef57634e487b7160e01b600052602160045260246000fd5b6117ff858a8b61334b565b9097509050600087600381111561182657634e487b7160e01b600052602160045260246000fd5b14611852576116b7600960038960038111156111ef57634e487b7160e01b600052602160045260246000fd5b60088e90556009819055600a839055600b8290556040517f4dec04e750ca11537cabcd8a9eab06494de08da3735bc8871cd41250e190bc049061189c908e90879085908890614714565b60405180910390a160009e50505050505050505050505050505090565b60008054600160a01b900460ff166118d057600080fd5b6000805460ff60a01b191681556118e933338686612267565b1490506000805460ff60a01b1916600160a01b17905592915050565b60095481565b600080611916610a42565b6005549091506000906001600160a01b03166315f24053611935612623565b600a54600b546040518463ffffffff1660e01b8152600401611959939291906146fe565b60206040518083038186803b15801561197157600080fd5b505afa158015611985573d6000803e3d6000fd5b505050506040513d601f19601f820116820180604052508101906119a99190614103565b6005549091506000906001600160a01b03166315f240536119c8612623565b600a54600b546040518463ffffffff1660e01b81526004016119ec939291906146fe565b60206040518083038186803b158015611a0457600080fd5b505afa158015611a18573d6000803e3d6000fd5b505050506040513d601f19601f82011682018060405250810190611a3c9190614103565b90508115611a5c5760405162461bcd60e51b8152600401610a0f90614581565b600080611a79604051806020016040528087815250600c5461329f565b90925090506000826003811115611aa057634e487b7160e01b600052602160045260246000fd5b14611abd5760405162461bcd60e51b8152600401610a0f906144b2565b600080611acc600a54846133b4565b90925090506000826003811115611af357634e487b7160e01b600052602160045260246000fd5b14611b105760405162461bcd60e51b8152600401610a0f9061438c565b600080611b436040518060200160405280670de0b6b3a76400008152506040518060200160405280600754815250613427565b90925090506000826003811115611b6a57634e487b7160e01b600052602160045260246000fd5b14611b875760405162461bcd60e51b8152600401610a0f90614648565b600080611ba360405180602001604052808b8152508487613461565b90925090506000826003811115611bca57634e487b7160e01b600052602160045260246000fd5b14611be75760405162461bcd60e51b8152600401610a0f906143cb565b519a505050505050505050505090565b60008054600160a01b900460ff16611c0e57600080fd5b6000805460ff60a01b19169055611c27338585856134b8565b90506000805460ff60a01b1916600160a01b1790559392505050565b600080546001600160a01b03163314611c6257610d40600160456120de565b600380546001600160a01b03848116610100908102610100600160a81b031984161790935560405192909104169060008051602061486f83398151915290610da09083908690614155565b60008054600160a01b900460ff16611cc457600080fd5b6000805460ff60a01b19168155611cd9611500565b14611cf65760405162461bcd60e51b8152600401610a0f906142f1565b611cfe610a42565b90506000805460ff60a01b1916600160a01b17905590565b6001600160a01b0381166000908152600d6020526040812054819081908190818080611d41896130be565b935090506000816003811115611d6757634e487b7160e01b600052602160045260246000fd5b14611d855760095b6000806000975097509750975050505050611dcc565b611d8d612195565b925090506000816003811115611db357634e487b7160e01b600052602160045260246000fd5b14611dbf576009611d6f565b5060009650919450925090505b9193509193565b6001600160a01b039182166000908152600e6020908152604080832093909416825291909152205490565b600080548190600160a01b900460ff16611e1757600080fd5b6000805460ff60a01b19168155611e2c611500565b90508015611e6a57611e5e816010811115611e5757634e487b7160e01b600052602160045260246000fd5b60366120de565b60009250925050611e7a565b611e74333361104d565b92509250505b6000805460ff60a01b1916600160a01b1790559091565b60035460009061010090046001600160a01b031633141580611eb1575033155b15611ec957611ec2600160006120de565b9050610a97565b60008054600380546001600160a01b03610100820481166001600160a01b03198516811795869055610100600160a81b03199092169092556040519282169390927ff9ffabca9c8276e99321725bcb43fb076a6c66a54b7f21c4e8146d8519b417dc92611f3a928692911690614155565b60405180910390a160035460405160008051602061486f83398151915291611f7291849161010090046001600160a01b031690614155565b60405180910390a160009250505090565b600080611f8e611500565b90508015611fc057610c42816010811115611fb957634e487b7160e01b600052602160045260246000fd5b60406120de565b610dab8361390c565b6005546001600160a01b031681565b6000546001600160a01b031681565b6005546000906001600160a01b03166315f24053612003612623565b600a54600b546040518463ffffffff1660e01b8152600401612027939291906146fe565b60206040518083038186803b15801561203f57600080fd5b505afa158015612053573d6000803e3d6000fd5b505050506040513d601f19601f82011682018060405250810190610c1c9190614103565b60008054600160a01b900460ff1661208e57600080fd5b6000805460ff60a01b191681556120a3611500565b905080156120d557610af88160108111156120ce57634e487b7160e01b600052602160045260246000fd5b60466120de565b610e3d836139a3565b600060008051602061482f83398151915283601081111561210f57634e487b7160e01b600052602160045260246000fd5b83605081111561212f57634e487b7160e01b600052602160045260246000fd5b6000604051612140939291906146fe565b60405180910390a1826010811115610dab57634e487b7160e01b600052602160045260246000fd5b4390565b6000336001600160a01b0384161461218357600080fd5b81341461218f57600080fd5b50919050565b600080600c54600014156121b057505060065460009061097a565b60006121ba612623565b905060006121c6613f53565b60006121d784600a54600b54613a34565b9350905060008160038111156121fd57634e487b7160e01b600052602160045260246000fd5b146122115794506000935061097a92505050565b61221d83600c54613a86565b92509050600081600381111561224357634e487b7160e01b600052602160045260246000fd5b146122575794506000935061097a92505050565b505160009450925061097a915050565b600480546040516317b9b84b60e31b815260009283926001600160a01b03169163bdcdc2589161229f91309182918a918a91016141c6565b602060405180830381600087803b1580156122b957600080fd5b505af11580156122cd573d6000803e3d6000fd5b505050506040513d601f19601f820116820180604052508101906122f19190614103565b90506000805160206148af8339815191528160405161231091906146e7565b60405180910390a180156123335761232b6003604a83613199565b9150506125bb565b836001600160a01b0316856001600160a01b031614156123595761232b6002604b6120de565b6000856001600160a01b0316876001600160a01b0316141561237e57506000196123a6565b506001600160a01b038086166000908152600e60209081526040808320938a16835292905220545b6000806000806123b68589613274565b909450925060008460038111156123dd57634e487b7160e01b600052602160045260246000fd5b146123fb576123ee6009604b6120de565b96505050505050506125bb565b6001600160a01b038a166000908152600d602052604090205461241e9089613274565b9094509150600084600381111561244557634e487b7160e01b600052602160045260246000fd5b14612456576123ee6009604c6120de565b6001600160a01b0389166000908152600d6020526040902054612479908961331b565b909450905060008460038111156124a057634e487b7160e01b600052602160045260246000fd5b146124b1576123ee6009604d6120de565b6001600160a01b03808b166000908152600d6020526040808220859055918b168152208190556000198514612509576001600160a01b03808b166000908152600e60209081526040808320938f168352929052208390555b886001600160a01b03168a6001600160a01b031660008051602061488f8339815191528a60405161253a91906146e7565b60405180910390a36004805460405163352b4a3f60e11b81526001600160a01b0390911691636a56947e916125779130918f918f918f91016141c6565b600060405180830381600087803b15801561259157600080fd5b505af11580156125a5573d6000803e3d6000fd5b50600092506125b2915050565b96505050505050505b949350505050565b6000806000806125d3868661329f565b909250905060008260038111156125fa57634e487b7160e01b600052602160045260246000fd5b1461260b5750915060009050611479565b600061261682613b5f565b9350935050509250929050565b60008060006126324734613274565b9092509050600082600381111561265957634e487b7160e01b600052602160045260246000fd5b14610a9357600080fd5b6004805460405163368f515360e21b815260009283926001600160a01b03169163da3d454c91612699913091899189910161416f565b602060405180830381600087803b1580156126b357600080fd5b505af11580156126c7573d6000803e3d6000fd5b505050506040513d601f19601f820116820180604052508101906126eb9190614103565b90506000805160206148af8339815191528160405161270a91906146e7565b60405180910390a1801561272d576127256003600e83613199565b9150506108e5565b612735612168565b6008541461274857612725600a806120de565b82612751612623565b101561276357612725600e60096120de565b61276b613f66565b612774856130be565b604083018190526020830182600381111561279f57634e487b7160e01b600052602160045260246000fd5b60038111156127be57634e487b7160e01b600052602160045260246000fd5b90525060009050816020015160038111156127e957634e487b7160e01b600052602160045260246000fd5b146128225761281960096007836020015160038111156111ef57634e487b7160e01b600052602160045260246000fd5b925050506108e5565b61283081604001518561331b565b606083018190526020830182600381111561285b57634e487b7160e01b600052602160045260246000fd5b600381111561287a57634e487b7160e01b600052602160045260246000fd5b90525060009050816020015160038111156128a557634e487b7160e01b600052602160045260246000fd5b146128d5576128196009600c836020015160038111156111ef57634e487b7160e01b600052602160045260246000fd5b6128e1600a548561331b565b608083018190526020830182600381111561290c57634e487b7160e01b600052602160045260246000fd5b600381111561292b57634e487b7160e01b600052602160045260246000fd5b905250600090508160200151600381111561295657634e487b7160e01b600052602160045260246000fd5b14612986576128196009600b836020015160038111156111ef57634e487b7160e01b600052602160045260246000fd5b612990858561097e565b819060108111156129b157634e487b7160e01b600052602160045260246000fd5b908160108111156129d257634e487b7160e01b600052602160045260246000fd5b9052506000815160108111156129f857634e487b7160e01b600052602160045260246000fd5b14612a155760405162461bcd60e51b8152600401610a0f90614358565b6060810180516001600160a01b0387166000908152600f6020526040908190209182556009546001909201919091556080830151600a819055915190517f13ed6866d4e1ee6da46f845c46d7e54120883d75c5ea9a2dacc1c4ca8984ab8092612a8292899289929061412f565b60405180910390a160048054604051635c77860560e01b81526001600160a01b0390911691635c77860591612abd9130918a918a910161416f565b600060405180830381600087803b158015612ad757600080fd5b505af1158015612aeb573d6000803e3d6000fd5b5060009250612af8915050565b95945050505050565b60048054604051634ef4c3e160e01b815260009283926001600160a01b031691634ef4c3e191612b37913091899189910161416f565b602060405180830381600087803b158015612b5157600080fd5b505af1158015612b65573d6000803e3d6000fd5b505050506040513d601f19601f82011682018060405250810190612b899190614103565b90506000805160206148af83398151915281604051612ba891906146e7565b60405180910390a18015612bc3576127256003601f83613199565b612bcb612168565b60085414612bdf57612725600a60226120de565b612be7613f96565b612bf18585613222565b81906010811115612c1257634e487b7160e01b600052602160045260246000fd5b90816010811115612c3357634e487b7160e01b600052602160045260246000fd5b905250600081516010811115612c5957634e487b7160e01b600052602160045260246000fd5b14612c6b5780516128199060266120de565b612c73612195565b6040830181905260208301826003811115612c9e57634e487b7160e01b600052602160045260246000fd5b6003811115612cbd57634e487b7160e01b600052602160045260246000fd5b9052506000905081602001516003811115612ce857634e487b7160e01b600052602160045260246000fd5b14612d185761281960096021836020015160038111156111ef57634e487b7160e01b600052602160045260246000fd5b612d348460405180602001604052808460400151815250613b77565b6060830181905260208301826003811115612d5f57634e487b7160e01b600052602160045260246000fd5b6003811115612d7e57634e487b7160e01b600052602160045260246000fd5b9052506000905081602001516003811115612da957634e487b7160e01b600052602160045260246000fd5b14612dd95761281960096020836020015160038111156111ef57634e487b7160e01b600052602160045260246000fd5b612de9600c54826060015161331b565b6080830181905260208301826003811115612e1457634e487b7160e01b600052602160045260246000fd5b6003811115612e3357634e487b7160e01b600052602160045260246000fd5b9052506000905081602001516003811115612e5e57634e487b7160e01b600052602160045260246000fd5b14612e8e5761281960096024836020015160038111156111ef57634e487b7160e01b600052602160045260246000fd5b6001600160a01b0385166000908152600d60205260409020546060820151612eb6919061331b565b60a0830181905260208301826003811115612ee157634e487b7160e01b600052602160045260246000fd5b6003811115612f0057634e487b7160e01b600052602160045260246000fd5b9052506000905081602001516003811115612f2b57634e487b7160e01b600052602160045260246000fd5b14612f5b5761281960096023836020015160038111156111ef57634e487b7160e01b600052602160045260246000fd5b612f658585613222565b81906010811115612f8657634e487b7160e01b600052602160045260246000fd5b90816010811115612fa757634e487b7160e01b600052602160045260246000fd5b905250600081516010811115612fcd57634e487b7160e01b600052602160045260246000fd5b14612fdf5780516128199060256120de565b6080810151600c5560a08101516001600160a01b0386166000908152600d60205260409081902091909155606082015190517f4c209b5fc8ad50758f13e2e1088ba56a560dff690a1c6fef26394f4c03821c4f91613040918891889161424a565b60405180910390a1846001600160a01b0316306001600160a01b031660008051602061488f833981519152836060015160405161307d91906146e7565b60405180910390a36004805460608301516040516341c728b960e01b81526001600160a01b03909216926341c728b992612abd9230928b928b9291016141f0565b6001600160a01b0381166000908152600f60205260408120805482918291829182916130f4576000809550955050505050613194565b6131048160000154600954613b87565b9094509250600084600381111561312b57634e487b7160e01b600052602160045260246000fd5b14613140578360009550955050505050613194565b61314e838260010154613bd1565b9094509150600084600381111561317557634e487b7160e01b600052602160045260246000fd5b1461318a578360009550955050505050613194565b5060009450925050505b915091565b600060008051602061482f8339815191528460108111156131ca57634e487b7160e01b600052602160045260246000fd5b8460508111156131ea57634e487b7160e01b600052602160045260246000fd5b846040516131fa939291906146fe565b60405180910390a18360108111156125bb57634e487b7160e01b600052602160045260246000fd5b6000336001600160a01b0384161461324c5760405162461bcd60e51b8152600401610a0f9061440a565b81341461326b5760405162461bcd60e51b8152600401610a0f90614433565b50600092915050565b60008083831161329357600061328a8486614794565b91509150611479565b50600390506000611479565b60006132a9613f53565b6000806132ba866000015186613b87565b909250905060008260038111156132e157634e487b7160e01b600052602160045260246000fd5b1461330057506040805160208101909152600081529092509050611479565b60408051602081019091529081526000969095509350505050565b60008080613329848661473d565b905084811061333d57600092509050611479565b600260009250925050611479565b60008060008061335b878761329f565b9092509050600082600381111561338257634e487b7160e01b600052602160045260246000fd5b1461339357509150600090506133ac565b6133a561339f82613b5f565b8661331b565b9350935050505b935093915050565b60006133be613f53565b6000806133d3670de0b6b3a764000087613b87565b909250905060008260038111156133fa57634e487b7160e01b600052602160045260246000fd5b1461341957506040805160208101909152600081529092509050611479565b612616818660000151613a86565b6000613431613f53565b60008061344686600001518660000151613274565b60408051602081019091529081529097909650945050505050565b600061346b613f53565b6000806134788787613bfc565b9092509050600082600381111561349f57634e487b7160e01b600052602160045260246000fd5b146134ae5790925090506133ac565b6133a58186613bfc565b6004805460405163d02f735160e01b815260009283926001600160a01b03169163d02f7351916134f29130918b918b918b918b9101614193565b602060405180830381600087803b15801561350c57600080fd5b505af1158015613520573d6000803e3d6000fd5b505050506040513d601f19601f820116820180604052508101906135449190614103565b905080156135595761232b6003601b83613199565b846001600160a01b0316846001600160a01b0316141561357f5761232b6006601c6120de565b613587613fcd565b6001600160a01b0385166000908152600d60205260409020546135aa9085613274565b60208301819052828260038111156135d257634e487b7160e01b600052602160045260246000fd5b60038111156135f157634e487b7160e01b600052602160045260246000fd5b905250600090508151600381111561361957634e487b7160e01b600052602160045260246000fd5b14613652576136496009601a836000015160038111156111ef57634e487b7160e01b600052602160045260246000fd5b925050506125bb565b613671846040518060200160405280666379da05b60000815250613d40565b60808201819052613683908590613d63565b6060820152613690612195565b60c08301819052828260038111156136b857634e487b7160e01b600052602160045260246000fd5b60038111156136d757634e487b7160e01b600052602160045260246000fd5b90525060009050815160038111156136ff57634e487b7160e01b600052602160045260246000fd5b1461370957600080fd5b61372960405180602001604052808360c001518152508260800151613d9d565b60a08201819052600b5461373c91613db5565b60e0820152600c5460808201516137539190613d63565b6101008201526001600160a01b0386166000908152600d60205260409020546060820151613781919061331b565b60408301819052828260038111156137a957634e487b7160e01b600052602160045260246000fd5b60038111156137c857634e487b7160e01b600052602160045260246000fd5b90525060009050815160038111156137f057634e487b7160e01b600052602160045260246000fd5b146138205761364960096019836000015160038111156111ef57634e487b7160e01b600052602160045260246000fd5b60e0810151600b55610100810151600c556020808201516001600160a01b038088166000818152600d90945260408085209390935582850151918a16808552938390209190915560608401519151909160008051602061488f8339815191529161388a91906146e7565b60405180910390a3306001600160a01b0316856001600160a01b031660008051602061488f83398151915283608001516040516138c791906146e7565b60405180910390a360a081015160e082015160405160008051602061480f833981519152926138f792309261424a565b60405180910390a16000979650505050505050565b6000805481906001600160a01b0316331461392d57610c42600160426120de565b613935612168565b6008541461394957610c42600a60416120de565b506005546001600160a01b0316600580546001600160a01b0319166001600160a01b0385161790556040517fedffc32e068c7c95dfd4bdfd5c4d939a084d6b11c4199eac8436ed234d72f92690610da09083908690614155565b600080546001600160a01b031633146139c257610d40600160476120de565b6139ca612168565b600854146139de57610d40600a60486120de565b670de0b6b3a76400008211156139fa57610d40600260496120de565b60078054908390556040517faaa68312e2ea9d50e16af5068410ab56e1a1fd06037b1a35664812c30f82146090610da090839086906146f0565b600080600080613a44878761331b565b90925090506000826003811115613a6b57634e487b7160e01b600052602160045260246000fd5b14613a7c57509150600090506133ac565b6133a58186613274565b6000613a90613f53565b600080613aa586670de0b6b3a7640000613b87565b90925090506000826003811115613acc57634e487b7160e01b600052602160045260246000fd5b14613aeb57506040805160208101909152600081529092509050611479565b600080613af88388613bd1565b90925090506000826003811115613b1f57634e487b7160e01b600052602160045260246000fd5b14613b425781604051806020016040528060008152509550955050505050611479565b604080516020810190915290815260009890975095505050505050565b80516000906108e590670de0b6b3a764000090614755565b6000806000806125d386866133b4565b60008083613b9a57506000905080611479565b6000613ba68486614775565b905083613bb38683614755565b14613bc657600260009250925050611479565b600092509050611479565b60008082613be55750600190506000611479565b6000613bf18486614755565b915091509250929050565b6000613c06613f53565b600080613c1b86600001518660000151613b87565b90925090506000826003811115613c4257634e487b7160e01b600052602160045260246000fd5b14613c6157506040805160208101909152600081529092509050611479565b600080613c80613c7a6002670de0b6b3a7640000614755565b8461331b565b90925090506000826003811115613ca757634e487b7160e01b600052602160045260246000fd5b14613cca5781604051806020016040528060008152509550955050505050611479565b600080613cdf83670de0b6b3a7640000613bd1565b90925090506000826003811115613d0657634e487b7160e01b600052602160045260246000fd5b14613d2157634e487b7160e01b600052600160045260246000fd5b604080516020810190915290815260009a909950975050505050505050565b6000670de0b6b3a7640000613d59848460000151613deb565b610dab9190614755565b6000610dab8383604051806040016040528060158152602001747375627472616374696f6e20756e646572666c6f7760581b815250613e27565b600080613daa8484613e56565b90506125bb81613b5f565b6000610dab8383604051806040016040528060118152602001706164646974696f6e206f766572666c6f7760781b815250613e80565b6000610dab8383604051806040016040528060178152602001766d756c7469706c69636174696f6e206f766572666c6f7760481b815250613eba565b60008184841115613e4b5760405162461bcd60e51b8152600401610a0f919061429e565b506125bb8385614794565b613e5e613f53565b6040518060200160405280613e77856000015185613deb565b90529392505050565b600080613e8d848661473d565b90508285821015613eb15760405162461bcd60e51b8152600401610a0f919061429e565b50949350505050565b6000831580613ec7575082155b15613ed457506000610dab565b6000613ee08486614775565b905083613eed8683614755565b148390613eb15760405162461bcd60e51b8152600401610a0f919061429e565b6040805161010081019091528060008152602001600081526020016000815260200160008152602001600081526020016000815260200160008152602001600081525090565b6040518060200160405280600081525090565b6040805160a081019091528060008152602001600081526020016000815260200160008152602001600081525090565b6040805160c08101909152806000815260200160008152602001600081526020016000815260200160008152602001600081525090565b604080516101208101909152806000815260200160008152602001600081526020016000815260200160008152602001600081526020016000815260200160008152602001600081525090565b60006020828403121561402b578081fd5b8135610dab816147f6565b60008060408385031215614048578081fd5b8235614053816147f6565b946020939093013593505050565b60008060408385031215614073578182fd5b823561407e816147f6565b9150602083013561408e816147f6565b809150509250929050565b6000806000606084860312156140ad578081fd5b83356140b8816147f6565b925060208401356140c8816147f6565b929592945050506040919091013590565b60008060408385031215614048578182fd5b6000602082840312156140fc578081fd5b5035919050565b600060208284031215614114578081fd5b5051919050565b6001600160a01b0391909116815260200190565b6001600160a01b0394909416845260208401929092526040830152606082015260800190565b6001600160a01b0392831681529116602082015260400190565b6001600160a01b039384168152919092166020820152604081019190915260600190565b6001600160a01b039586168152938516602085015291841660408401529092166060820152608081019190915260a00190565b6001600160a01b039485168152928416602084015292166040820152606081019190915260800190565b6001600160a01b0394851681529290931660208301526040820152606081019190915260800190565b6001600160a01b03958616815293909416602084015260408301919091526060820152608081019190915260a00190565b6001600160a01b039390931683526020830191909152604082015260600190565b901515815260200190565b602081016011831061429857634e487b7160e01b600052602160045260246000fd5b91905290565b6000602080835283518082850152825b818110156142ca578581018301518582016040015282016142ae565b818111156142db5783604083870101525b50601f01601f1916929092016040019392505050565b6020808252601690820152751858d8dc9d59481a5b9d195c995cdd0819985a5b195960521b604082015260600190565b6020808252601f908201527f62616c616e636520636f756c64206e6f742062652063616c63756c6174656400604082015260600190565b6020808252601a9082015279189bdc9c9bddc81d1c985b9cd9995c881bdd5d0819985a5b195960321b604082015260600190565b602080825260319082015260008051602061484f833981519152604082015270189bdc9c9bdddcd4195c8819985a5b1959607a1b606082015260800190565b602080825260319082015260008051602061484f8339815191526040820152701cdd5c1c1b1e54985d194819985a5b1959607a1b606082015260800190565b6020808252600f908201526e0e6cadcc8cae440dad2e6dac2e8c6d608b1b604082015260600190565b6020808252600e908201526d0ecc2d8eaca40dad2e6dac2e8c6d60931b604082015260600190565b60208082526037908201527f626f72726f7742616c616e636553746f7265643a20626f72726f7742616c616e60408201527618d954dd1bdc9959125b9d195c9b985b0819985a5b1959604a1b606082015260800190565b602080825260319082015260008051602061484f8339815191526040820152701d5b99195c9b1e5a5b99c819985a5b1959607a1b606082015260800190565b6020808252601c908201527b0c4dee4e4deee40e4c2e8ca40d2e640c2c4e6eae4c8d8f240d0d2ced60231b604082015260600190565b6020808252603a908201527f52455041595f424f52524f575f4e45575f4143434f554e545f424f52524f575f604082015279109053105390d157d0d05310d55310551253d397d1905253115160321b606082015260800190565b602080825260319082015260008051602061484f833981519152604082015270189bdc9c9bddd4985d194819985a5b1959607a1b606082015260800190565b6020808252601f908201527f636f756c64206e6f742063616c63756c61746520626c6f636b2064656c746100604082015260600190565b60208082526031908201527f52455041595f424f52524f575f4e45575f544f54414c5f42414c414e43455f43604082015270105310d55310551253d397d19052531151607a1b606082015260800190565b6020808252603c9082015260008051602061484f83398151915260408201527b1bdb99535a5b9d5cd4995cd95c9d99519858dd1bdc8819985a5b195960221b606082015260800190565b60208082526035908201527f65786368616e67655261746553746f7265643a2065786368616e67655261746560408201527414dd1bdc9959125b9d195c9b985b0819985a5b1959605a1b606082015260800190565b90815260200190565b918252602082015260400190565b9283526020830191909152604082015260600190565b93845260208401929092526040830152606082015260800190565b60ff91909116815260200190565b60008219821115614750576147506147e0565b500190565b60008261477057634e487b7160e01b81526012600452602481fd5b500490565b600081600019048311821515161561478f5761478f6147e0565b500290565b6000828210156147a6576147a66147e0565b500390565b6002810460018216806147bf57607f821691505b6020821081141561218f57634e487b7160e01b600052602260045260246000fd5b634e487b7160e01b600052601160045260246000fd5b6001600160a01b038116811461480b57600080fd5b5056fea91e67c5ea634cd43a12c5a482724b03de01e85ca68702a53d0c2f45cb7c1dc545b96fe442630264581b197e84bbada861235052c5a1aadfff9ea4e40a969aa0737570706c7952617465506572426c6f636b3a2063616c63756c6174696e6720ca4f2f25d0898edd99413412fb94012f9e54ec8142f9b093e7720646a95b16a9ddf252ad1be2c89b69c2b068fc378daa952ba7f163c4a11628f55a4df523b3eff659603e63125dd589ae94d6c07033fa45c0ac2e33d9084a07ac04033f16575ca2646970667358221220f1a121a4807d5bfa93ee0040a9aab65b36babb1128f00b9543c868d6a0185d8564736f6c63430008000033",
  "linkReferences": {},
  "deployedLinkReferences": {},
  "Owner": "0x0E8125aE8373b79DB639196529bbF6dA8a366891"
}