{
    "_format": "hh-sol-artifact-1",
    "contractName": "BToken",
    "sourceName": "contracts/BToken.sol",
    "abi": [
        {
            "inputs": [
                {
                    "internalType": "contract ComptrollerInterface",
                    "name": "comptroller_",
                    "type": "address"
                },
                {
                    "internalType": "contract InterestRateModel",
                    "name": "interestRateModel_",
                    "type": "address"
                },
                {
                    "internalType": "uint256",
                    "name": "initialExchangeRateMantissa_",
                    "type": "uint256"
                },
                {
                    "internalType": "string",
                    "name": "name_",
                    "type": "string"
                },
                {
                    "internalType": "string",
                    "name": "symbol_",
                    "type": "string"
                },
                {
                    "internalType": "uint8",
                    "name": "decimals_",
                    "type": "uint8"
                }
            ],
            "stateMutability": "nonpayable",
            "type": "constructor"
        },
        {
            "anonymous": false,
            "inputs": [
                {
                    "indexed": false,
                    "internalType": "uint256",
                    "name": "cashPrior",
                    "type": "uint256"
                },
                {
                    "indexed": false,
                    "internalType": "uint256",
                    "name": "interestAccumulated",
                    "type": "uint256"
                },
                {
                    "indexed": false,
                    "internalType": "uint256",
                    "name": "borrowIndex",
                    "type": "uint256"
                },
                {
                    "indexed": false,
                    "internalType": "uint256",
                    "name": "totalBorrows",
                    "type": "uint256"
                }
            ],
            "name": "AccrueInterest",
            "type": "event"
        },
        {
            "anonymous": false,
            "inputs": [
                {
                    "indexed": false,
                    "internalType": "uint256",
                    "name": "allowed",
                    "type": "uint256"
                }
            ],
            "name": "Allowed",
            "type": "event"
        },
        {
            "anonymous": false,
            "inputs": [
                {
                    "indexed": true,
                    "internalType": "address",
                    "name": "owner",
                    "type": "address"
                },
                {
                    "indexed": true,
                    "internalType": "address",
                    "name": "spender",
                    "type": "address"
                },
                {
                    "indexed": false,
                    "internalType": "uint256",
                    "name": "amount",
                    "type": "uint256"
                }
            ],
            "name": "Approval",
            "type": "event"
        },
        {
            "anonymous": false,
            "inputs": [
                {
                    "indexed": false,
                    "internalType": "address",
                    "name": "borrower",
                    "type": "address"
                },
                {
                    "indexed": false,
                    "internalType": "uint256",
                    "name": "borrowAmount",
                    "type": "uint256"
                },
                {
                    "indexed": false,
                    "internalType": "uint256",
                    "name": "accountBorrows",
                    "type": "uint256"
                },
                {
                    "indexed": false,
                    "internalType": "uint256",
                    "name": "totalBorrows",
                    "type": "uint256"
                }
            ],
            "name": "Borrow",
            "type": "event"
        },
        {
            "anonymous": false,
            "inputs": [
                {
                    "indexed": false,
                    "internalType": "uint256",
                    "name": "error",
                    "type": "uint256"
                },
                {
                    "indexed": false,
                    "internalType": "uint256",
                    "name": "info",
                    "type": "uint256"
                },
                {
                    "indexed": false,
                    "internalType": "uint256",
                    "name": "detail",
                    "type": "uint256"
                }
            ],
            "name": "Failure",
            "type": "event"
        },
        {
            "anonymous": false,
            "inputs": [
                {
                    "indexed": false,
                    "internalType": "address",
                    "name": "liquidator",
                    "type": "address"
                },
                {
                    "indexed": false,
                    "internalType": "address",
                    "name": "borrower",
                    "type": "address"
                },
                {
                    "indexed": false,
                    "internalType": "uint256",
                    "name": "repayAmount",
                    "type": "uint256"
                },
                {
                    "indexed": false,
                    "internalType": "address",
                    "name": "cTokenCollateral",
                    "type": "address"
                },
                {
                    "indexed": false,
                    "internalType": "uint256",
                    "name": "seizeTokens",
                    "type": "uint256"
                }
            ],
            "name": "LiquidateBorrow",
            "type": "event"
        },
        {
            "anonymous": false,
            "inputs": [
                {
                    "indexed": false,
                    "internalType": "address",
                    "name": "minter",
                    "type": "address"
                },
                {
                    "indexed": false,
                    "internalType": "uint256",
                    "name": "mintAmount",
                    "type": "uint256"
                },
                {
                    "indexed": false,
                    "internalType": "uint256",
                    "name": "mintTokens",
                    "type": "uint256"
                }
            ],
            "name": "Mint",
            "type": "event"
        },
        {
            "anonymous": false,
            "inputs": [
                {
                    "indexed": false,
                    "internalType": "address",
                    "name": "oldAdmin",
                    "type": "address"
                },
                {
                    "indexed": false,
                    "internalType": "address",
                    "name": "newAdmin",
                    "type": "address"
                }
            ],
            "name": "NewAdmin",
            "type": "event"
        },
        {
            "anonymous": false,
            "inputs": [
                {
                    "indexed": false,
                    "internalType": "contract ComptrollerInterface",
                    "name": "oldComptroller",
                    "type": "address"
                },
                {
                    "indexed": false,
                    "internalType": "contract ComptrollerInterface",
                    "name": "newComptroller",
                    "type": "address"
                }
            ],
            "name": "NewComptroller",
            "type": "event"
        },
        {
            "anonymous": false,
            "inputs": [
                {
                    "indexed": false,
                    "internalType": "contract InterestRateModel",
                    "name": "oldInterestRateModel",
                    "type": "address"
                },
                {
                    "indexed": false,
                    "internalType": "contract InterestRateModel",
                    "name": "newInterestRateModel",
                    "type": "address"
                }
            ],
            "name": "NewMarketInterestRateModel",
            "type": "event"
        },
        {
            "anonymous": false,
            "inputs": [
                {
                    "indexed": false,
                    "internalType": "address",
                    "name": "oldPendingAdmin",
                    "type": "address"
                },
                {
                    "indexed": false,
                    "internalType": "address",
                    "name": "newPendingAdmin",
                    "type": "address"
                }
            ],
            "name": "NewPendingAdmin",
            "type": "event"
        },
        {
            "anonymous": false,
            "inputs": [
                {
                    "indexed": false,
                    "internalType": "uint256",
                    "name": "oldReserveFactorMantissa",
                    "type": "uint256"
                },
                {
                    "indexed": false,
                    "internalType": "uint256",
                    "name": "newReserveFactorMantissa",
                    "type": "uint256"
                }
            ],
            "name": "NewReserveFactor",
            "type": "event"
        },
        {
            "anonymous": false,
            "inputs": [
                {
                    "indexed": false,
                    "internalType": "address",
                    "name": "redeemer",
                    "type": "address"
                },
                {
                    "indexed": false,
                    "internalType": "uint256",
                    "name": "redeemAmount",
                    "type": "uint256"
                },
                {
                    "indexed": false,
                    "internalType": "uint256",
                    "name": "redeemTokens",
                    "type": "uint256"
                }
            ],
            "name": "Redeem",
            "type": "event"
        },
        {
            "anonymous": false,
            "inputs": [
                {
                    "indexed": false,
                    "internalType": "address",
                    "name": "payer",
                    "type": "address"
                },
                {
                    "indexed": false,
                    "internalType": "address",
                    "name": "borrower",
                    "type": "address"
                },
                {
                    "indexed": false,
                    "internalType": "uint256",
                    "name": "repayAmount",
                    "type": "uint256"
                },
                {
                    "indexed": false,
                    "internalType": "uint256",
                    "name": "accountBorrows",
                    "type": "uint256"
                },
                {
                    "indexed": false,
                    "internalType": "uint256",
                    "name": "totalBorrows",
                    "type": "uint256"
                }
            ],
            "name": "RepayBorrow",
            "type": "event"
        },
        {
            "anonymous": false,
            "inputs": [
                {
                    "indexed": false,
                    "internalType": "address",
                    "name": "benefactor",
                    "type": "address"
                },
                {
                    "indexed": false,
                    "internalType": "uint256",
                    "name": "addAmount",
                    "type": "uint256"
                },
                {
                    "indexed": false,
                    "internalType": "uint256",
                    "name": "newTotalReserves",
                    "type": "uint256"
                }
            ],
            "name": "ReservesAdded",
            "type": "event"
        },
        {
            "anonymous": false,
            "inputs": [
                {
                    "indexed": false,
                    "internalType": "address",
                    "name": "admin",
                    "type": "address"
                },
                {
                    "indexed": false,
                    "internalType": "uint256",
                    "name": "reduceAmount",
                    "type": "uint256"
                },
                {
                    "indexed": false,
                    "internalType": "uint256",
                    "name": "newTotalReserves",
                    "type": "uint256"
                }
            ],
            "name": "ReservesReduced",
            "type": "event"
        },
        {
            "anonymous": false,
            "inputs": [
                {
                    "indexed": false,
                    "internalType": "uint256",
                    "name": "_var",
                    "type": "uint256"
                }
            ],
            "name": "Test1",
            "type": "event"
        },
        {
            "anonymous": false,
            "inputs": [
                {
                    "indexed": true,
                    "internalType": "address",
                    "name": "from",
                    "type": "address"
                },
                {
                    "indexed": true,
                    "internalType": "address",
                    "name": "to",
                    "type": "address"
                },
                {
                    "indexed": false,
                    "internalType": "uint256",
                    "name": "amount",
                    "type": "uint256"
                }
            ],
            "name": "Transfer",
            "type": "event"
        },
        {
            "inputs": [],
            "name": "_acceptAdmin",
            "outputs": [
                {
                    "internalType": "uint256",
                    "name": "",
                    "type": "uint256"
                }
            ],
            "stateMutability": "nonpayable",
            "type": "function"
        },
        {
            "inputs": [],
            "name": "_addReservesFresh",
            "outputs": [
                {
                    "internalType": "uint256",
                    "name": "",
                    "type": "uint256"
                },
                {
                    "internalType": "uint256",
                    "name": "",
                    "type": "uint256"
                }
            ],
            "stateMutability": "payable",
            "type": "function"
        },
        {
            "inputs": [],
            "name": "_addReservesInternal",
            "outputs": [
                {
                    "internalType": "uint256",
                    "name": "",
                    "type": "uint256"
                }
            ],
            "stateMutability": "payable",
            "type": "function"
        },
        {
            "inputs": [
                {
                    "internalType": "uint256",
                    "name": "reduceAmount",
                    "type": "uint256"
                }
            ],
            "name": "_reduceReserves",
            "outputs": [
                {
                    "internalType": "uint256",
                    "name": "",
                    "type": "uint256"
                }
            ],
            "stateMutability": "payable",
            "type": "function"
        },
        {
            "inputs": [
                {
                    "internalType": "uint256",
                    "name": "reduceAmount",
                    "type": "uint256"
                }
            ],
            "name": "_reduceReservesFresh",
            "outputs": [
                {
                    "internalType": "uint256",
                    "name": "",
                    "type": "uint256"
                }
            ],
            "stateMutability": "payable",
            "type": "function"
        },
        {
            "inputs": [
                {
                    "internalType": "contract ComptrollerInterface",
                    "name": "newComptroller",
                    "type": "address"
                }
            ],
            "name": "_setComptroller",
            "outputs": [
                {
                    "internalType": "uint256",
                    "name": "",
                    "type": "uint256"
                }
            ],
            "stateMutability": "nonpayable",
            "type": "function"
        },
        {
            "inputs": [
                {
                    "internalType": "contract InterestRateModel",
                    "name": "newInterestRateModel",
                    "type": "address"
                }
            ],
            "name": "_setInterestRateModel",
            "outputs": [
                {
                    "internalType": "uint256",
                    "name": "",
                    "type": "uint256"
                }
            ],
            "stateMutability": "nonpayable",
            "type": "function"
        },
        {
            "inputs": [
                {
                    "internalType": "address payable",
                    "name": "newPendingAdmin",
                    "type": "address"
                }
            ],
            "name": "_setPendingAdmin",
            "outputs": [
                {
                    "internalType": "uint256",
                    "name": "",
                    "type": "uint256"
                }
            ],
            "stateMutability": "nonpayable",
            "type": "function"
        },
        {
            "inputs": [
                {
                    "internalType": "uint256",
                    "name": "newReserveFactorMantissa",
                    "type": "uint256"
                }
            ],
            "name": "_setReserveFactor",
            "outputs": [
                {
                    "internalType": "uint256",
                    "name": "",
                    "type": "uint256"
                }
            ],
            "stateMutability": "nonpayable",
            "type": "function"
        },
        {
            "inputs": [],
            "name": "accrualBlockNumber",
            "outputs": [
                {
                    "internalType": "uint256",
                    "name": "",
                    "type": "uint256"
                }
            ],
            "stateMutability": "view",
            "type": "function"
        },
        {
            "inputs": [],
            "name": "accrueInterest",
            "outputs": [
                {
                    "internalType": "uint256",
                    "name": "",
                    "type": "uint256"
                }
            ],
            "stateMutability": "nonpayable",
            "type": "function"
        },
        {
            "inputs": [],
            "name": "admin",
            "outputs": [
                {
                    "internalType": "address",
                    "name": "",
                    "type": "address"
                }
            ],
            "stateMutability": "view",
            "type": "function"
        },
        {
            "inputs": [
                {
                    "internalType": "address",
                    "name": "owner",
                    "type": "address"
                },
                {
                    "internalType": "address",
                    "name": "spender",
                    "type": "address"
                }
            ],
            "name": "allowance",
            "outputs": [
                {
                    "internalType": "uint256",
                    "name": "",
                    "type": "uint256"
                }
            ],
            "stateMutability": "view",
            "type": "function"
        },
        {
            "inputs": [
                {
                    "internalType": "address",
                    "name": "spender",
                    "type": "address"
                },
                {
                    "internalType": "uint256",
                    "name": "amount",
                    "type": "uint256"
                }
            ],
            "name": "approve",
            "outputs": [
                {
                    "internalType": "bool",
                    "name": "",
                    "type": "bool"
                }
            ],
            "stateMutability": "nonpayable",
            "type": "function"
        },
        {
            "inputs": [
                {
                    "internalType": "address",
                    "name": "account",
                    "type": "address"
                }
            ],
            "name": "balanceOf",
            "outputs": [
                {
                    "internalType": "uint256",
                    "name": "",
                    "type": "uint256"
                }
            ],
            "stateMutability": "view",
            "type": "function"
        },
        {
            "inputs": [
                {
                    "internalType": "address",
                    "name": "owner",
                    "type": "address"
                }
            ],
            "name": "balanceOfUnderlying",
            "outputs": [
                {
                    "internalType": "uint256",
                    "name": "",
                    "type": "uint256"
                }
            ],
            "stateMutability": "nonpayable",
            "type": "function"
        },
        {
            "inputs": [
                {
                    "internalType": "address",
                    "name": "account",
                    "type": "address"
                }
            ],
            "name": "borrowBalanceCurrent",
            "outputs": [
                {
                    "internalType": "uint256",
                    "name": "",
                    "type": "uint256"
                }
            ],
            "stateMutability": "nonpayable",
            "type": "function"
        },
        {
            "inputs": [
                {
                    "internalType": "address",
                    "name": "account",
                    "type": "address"
                }
            ],
            "name": "borrowBalanceStored",
            "outputs": [
                {
                    "internalType": "uint256",
                    "name": "",
                    "type": "uint256"
                }
            ],
            "stateMutability": "view",
            "type": "function"
        },
        {
            "inputs": [],
            "name": "borrowIndex",
            "outputs": [
                {
                    "internalType": "uint256",
                    "name": "",
                    "type": "uint256"
                }
            ],
            "stateMutability": "view",
            "type": "function"
        },
        {
            "inputs": [
                {
                    "internalType": "uint256",
                    "name": "borrowAmount",
                    "type": "uint256"
                }
            ],
            "name": "borrowInternal",
            "outputs": [
                {
                    "internalType": "uint256",
                    "name": "",
                    "type": "uint256"
                }
            ],
            "stateMutability": "nonpayable",
            "type": "function"
        },
        {
            "inputs": [],
            "name": "borrowRatePerBlock",
            "outputs": [
                {
                    "internalType": "uint256",
                    "name": "",
                    "type": "uint256"
                }
            ],
            "stateMutability": "view",
            "type": "function"
        },
        {
            "inputs": [],
            "name": "comptroller",
            "outputs": [
                {
                    "internalType": "contract ComptrollerInterface",
                    "name": "",
                    "type": "address"
                }
            ],
            "stateMutability": "view",
            "type": "function"
        },
        {
            "inputs": [],
            "name": "decimals",
            "outputs": [
                {
                    "internalType": "uint8",
                    "name": "",
                    "type": "uint8"
                }
            ],
            "stateMutability": "view",
            "type": "function"
        },
        {
            "inputs": [
                {
                    "internalType": "address payable",
                    "name": "to",
                    "type": "address"
                },
                {
                    "internalType": "uint256",
                    "name": "amount",
                    "type": "uint256"
                }
            ],
            "name": "doTransferOut",
            "outputs": [
                {
                    "internalType": "enum TokenErrorReporter.Error",
                    "name": "",
                    "type": "uint8"
                }
            ],
            "stateMutability": "payable",
            "type": "function"
        },
        {
            "inputs": [],
            "name": "exchangeRateCurrent",
            "outputs": [
                {
                    "internalType": "uint256",
                    "name": "",
                    "type": "uint256"
                }
            ],
            "stateMutability": "nonpayable",
            "type": "function"
        },
        {
            "inputs": [],
            "name": "exchangeRateStored",
            "outputs": [
                {
                    "internalType": "uint256",
                    "name": "",
                    "type": "uint256"
                }
            ],
            "stateMutability": "view",
            "type": "function"
        },
        {
            "inputs": [
                {
                    "internalType": "address",
                    "name": "account",
                    "type": "address"
                }
            ],
            "name": "getAccountSnapshot",
            "outputs": [
                {
                    "internalType": "uint256",
                    "name": "",
                    "type": "uint256"
                },
                {
                    "internalType": "uint256",
                    "name": "",
                    "type": "uint256"
                },
                {
                    "internalType": "uint256",
                    "name": "",
                    "type": "uint256"
                },
                {
                    "internalType": "uint256",
                    "name": "",
                    "type": "uint256"
                }
            ],
            "stateMutability": "view",
            "type": "function"
        },
        {
            "inputs": [],
            "name": "getCash",
            "outputs": [
                {
                    "internalType": "uint256",
                    "name": "",
                    "type": "uint256"
                }
            ],
            "stateMutability": "view",
            "type": "function"
        },
        {
            "inputs": [],
            "name": "implementation",
            "outputs": [
                {
                    "internalType": "address",
                    "name": "",
                    "type": "address"
                }
            ],
            "stateMutability": "view",
            "type": "function"
        },
        {
            "inputs": [],
            "name": "interestRateModel",
            "outputs": [
                {
                    "internalType": "contract InterestRateModel",
                    "name": "",
                    "type": "address"
                }
            ],
            "stateMutability": "view",
            "type": "function"
        },
        {
            "inputs": [],
            "name": "isBToken",
            "outputs": [
                {
                    "internalType": "bool",
                    "name": "",
                    "type": "bool"
                }
            ],
            "stateMutability": "view",
            "type": "function"
        },
        {
            "inputs": [],
            "name": "isComptroller",
            "outputs": [
                {
                    "internalType": "bool",
                    "name": "",
                    "type": "bool"
                }
            ],
            "stateMutability": "view",
            "type": "function"
        },
        {
            "inputs": [],
            "name": "isInterestRateModel",
            "outputs": [
                {
                    "internalType": "bool",
                    "name": "",
                    "type": "bool"
                }
            ],
            "stateMutability": "view",
            "type": "function"
        },
        {
            "inputs": [],
            "name": "mintInternal",
            "outputs": [
                {
                    "internalType": "uint256",
                    "name": "",
                    "type": "uint256"
                }
            ],
            "stateMutability": "payable",
            "type": "function"
        },
        {
            "inputs": [],
            "name": "name",
            "outputs": [
                {
                    "internalType": "string",
                    "name": "",
                    "type": "string"
                }
            ],
            "stateMutability": "view",
            "type": "function"
        },
        {
            "inputs": [],
            "name": "pendingAdmin",
            "outputs": [
                {
                    "internalType": "address payable",
                    "name": "",
                    "type": "address"
                }
            ],
            "stateMutability": "view",
            "type": "function"
        },
        {
            "inputs": [],
            "name": "protocolSeizeShareMantissa",
            "outputs": [
                {
                    "internalType": "uint256",
                    "name": "",
                    "type": "uint256"
                }
            ],
            "stateMutability": "view",
            "type": "function"
        },
        {
            "inputs": [
                {
                    "internalType": "uint256",
                    "name": "redeemTokens",
                    "type": "uint256"
                }
            ],
            "name": "redeemInternal",
            "outputs": [
                {
                    "internalType": "uint256",
                    "name": "",
                    "type": "uint256"
                }
            ],
            "stateMutability": "nonpayable",
            "type": "function"
        },
        {
            "inputs": [
                {
                    "internalType": "address",
                    "name": "borrower",
                    "type": "address"
                }
            ],
            "name": "repayBorrowBehalfInternal",
            "outputs": [
                {
                    "internalType": "uint256",
                    "name": "",
                    "type": "uint256"
                },
                {
                    "internalType": "uint256",
                    "name": "",
                    "type": "uint256"
                }
            ],
            "stateMutability": "payable",
            "type": "function"
        },
        {
            "inputs": [
                {
                    "internalType": "address",
                    "name": "payer",
                    "type": "address"
                },
                {
                    "internalType": "address",
                    "name": "borrower",
                    "type": "address"
                }
            ],
            "name": "repayBorrowFresh",
            "outputs": [
                {
                    "internalType": "uint256",
                    "name": "",
                    "type": "uint256"
                },
                {
                    "internalType": "uint256",
                    "name": "",
                    "type": "uint256"
                }
            ],
            "stateMutability": "payable",
            "type": "function"
        },
        {
            "inputs": [],
            "name": "repayBorrowInternal",
            "outputs": [
                {
                    "internalType": "uint256",
                    "name": "",
                    "type": "uint256"
                },
                {
                    "internalType": "uint256",
                    "name": "",
                    "type": "uint256"
                }
            ],
            "stateMutability": "payable",
            "type": "function"
        },
        {
            "inputs": [],
            "name": "reserveFactorMantissa",
            "outputs": [
                {
                    "internalType": "uint256",
                    "name": "",
                    "type": "uint256"
                }
            ],
            "stateMutability": "view",
            "type": "function"
        },
        {
            "inputs": [
                {
                    "internalType": "address",
                    "name": "liquidator",
                    "type": "address"
                },
                {
                    "internalType": "address",
                    "name": "borrower",
                    "type": "address"
                },
                {
                    "internalType": "uint256",
                    "name": "seizeTokens",
                    "type": "uint256"
                }
            ],
            "name": "seize",
            "outputs": [
                {
                    "internalType": "uint256",
                    "name": "",
                    "type": "uint256"
                }
            ],
            "stateMutability": "nonpayable",
            "type": "function"
        },
        {
            "inputs": [],
            "name": "supplyRatePerBlock",
            "outputs": [
                {
                    "internalType": "uint256",
                    "name": "",
                    "type": "uint256"
                }
            ],
            "stateMutability": "view",
            "type": "function"
        },
        {
            "inputs": [],
            "name": "symbol",
            "outputs": [
                {
                    "internalType": "string",
                    "name": "",
                    "type": "string"
                }
            ],
            "stateMutability": "view",
            "type": "function"
        },
        {
            "inputs": [],
            "name": "totalBorrows",
            "outputs": [
                {
                    "internalType": "uint256",
                    "name": "",
                    "type": "uint256"
                }
            ],
            "stateMutability": "view",
            "type": "function"
        },
        {
            "inputs": [],
            "name": "totalBorrowsCurrent",
            "outputs": [
                {
                    "internalType": "uint256",
                    "name": "",
                    "type": "uint256"
                }
            ],
            "stateMutability": "nonpayable",
            "type": "function"
        },
        {
            "inputs": [],
            "name": "totalReserves",
            "outputs": [
                {
                    "internalType": "uint256",
                    "name": "",
                    "type": "uint256"
                }
            ],
            "stateMutability": "view",
            "type": "function"
        },
        {
            "inputs": [],
            "name": "totalSupply",
            "outputs": [
                {
                    "internalType": "uint256",
                    "name": "",
                    "type": "uint256"
                }
            ],
            "stateMutability": "view",
            "type": "function"
        },
        {
            "inputs": [
                {
                    "internalType": "address",
                    "name": "dst",
                    "type": "address"
                },
                {
                    "internalType": "uint256",
                    "name": "amount",
                    "type": "uint256"
                }
            ],
            "name": "transfer",
            "outputs": [
                {
                    "internalType": "bool",
                    "name": "",
                    "type": "bool"
                }
            ],
            "stateMutability": "nonpayable",
            "type": "function"
        },
        {
            "inputs": [
                {
                    "internalType": "address",
                    "name": "src",
                    "type": "address"
                },
                {
                    "internalType": "address",
                    "name": "dst",
                    "type": "address"
                },
                {
                    "internalType": "uint256",
                    "name": "amount",
                    "type": "uint256"
                }
            ],
            "name": "transferFrom",
            "outputs": [
                {
                    "internalType": "bool",
                    "name": "",
                    "type": "bool"
                }
            ],
            "stateMutability": "nonpayable",
            "type": "function"
        },
        {
            "inputs": [],
            "name": "underlying",
            "outputs": [
                {
                    "internalType": "address",
                    "name": "",
                    "type": "address"
                }
            ],
            "stateMutability": "view",
            "type": "function"
        }
    ],
    "bytecode": "0x6080604052600080546001600160a01b031916331790553480156200002357600080fd5b5060405162005b1238038062005b12833981016040819052620000469162000512565b6200005686868686868662000075565b5050600080546001600160a01b0319163317905550620007b392505050565b6000546001600160a01b03163314620000ab5760405162461bcd60e51b8152600401620000a290620005e1565b60405180910390fd5b600854158015620000bc5750600954155b620000db5760405162461bcd60e51b8152600401620000a29062000625565b600684905583620001005760405162461bcd60e51b8152600401620000a29062000668565b60006200010d87620001d3565b90508015620001305760405162461bcd60e51b8152600401620000a290620006fa565b6200013a6200026b565b600855670de0b6b3a764000060095562000154866200026f565b90508015620001775760405162461bcd60e51b8152600401620000a290620006b8565b83516200018c906001906020870190620003c1565b508251620001a2906002906020860190620003c1565b50506003805460ff90921660ff1990921691909117905550506000805460ff60a01b1916600160a01b179055505050565b600080546001600160a01b03163314620001fd57620001f56001603f62000319565b905062000266565b6004546001600160a01b0316600480546001600160a01b0319166001600160a01b0385161790556040517f7ac369dbd14fa5ea3f473ed67cc9d598964a77501540ba6751eb0b3decf5870d90620002589083908690620005c7565b60405180910390a160009150505b919050565b4390565b6000805481906001600160a01b031633146200029c57620002936001604262000319565b91505062000266565b620002a66200026b565b60085414620002bd5762000293600a604162000319565b506005546001600160a01b0316600580546001600160a01b0319166001600160a01b0385161790556040517fedffc32e068c7c95dfd4bdfd5c4d939a084d6b11c4199eac8436ed234d72f92690620002589083908690620005c7565b60007f45b96fe442630264581b197e84bbada861235052c5a1aadfff9ea4e40a969aa08360108111156200035d57634e487b7160e01b600052602160045260246000fd5b8360508111156200037e57634e487b7160e01b600052602160045260246000fd5b6000604051620003919392919062000731565b60405180910390a1826010811115620003ba57634e487b7160e01b600052602160045260246000fd5b9392505050565b828054620003cf9062000747565b90600052602060002090601f016020900481019282620003f357600085556200043e565b82601f106200040e57805160ff19168380011785556200043e565b828001600101855582156200043e579182015b828111156200043e57825182559160200191906001019062000421565b506200044c92915062000450565b5090565b5b808211156200044c576000815560010162000451565b600082601f83011262000478578081fd5b81516001600160401b038082111562000495576200049562000784565b6040516020601f8401601f1916820181018381118382101715620004bd57620004bd62000784565b6040528382528584018101871015620004d4578485fd5b8492505b83831015620004f75785830181015182840182015291820191620004d8565b838311156200050857848185840101525b5095945050505050565b60008060008060008060c087890312156200052b578182fd5b865162000538816200079a565b60208801519096506200054b816200079a565b6040880151606089015191965094506001600160401b03808211156200056f578384fd5b6200057d8a838b0162000467565b9450608089015191508082111562000593578384fd5b50620005a289828a0162000467565b92505060a087015160ff81168114620005b9578182fd5b809150509295509295509295565b6001600160a01b0392831681529116602082015260400190565b60208082526024908201527f6f6e6c792061646d696e206d617920696e697469616c697a6520746865206d616040820152631c9ad95d60e21b606082015260800190565b60208082526023908201527f6d61726b6574206d6179206f6e6c7920626520696e697469616c697a6564206f6040820152626e636560e81b606082015260800190565b60208082526030908201527f696e697469616c2065786368616e67652072617465206d75737420626520677260408201526f32b0ba32b9103a3430b7103d32b9379760811b606082015260800190565b60208082526022908201527f73657474696e6720696e7465726573742072617465206d6f64656c206661696c604082015261195960f21b606082015260800190565b6020808252601a908201527f73657474696e6720636f6d7074726f6c6c6572206661696c6564000000000000604082015260600190565b9283526020830191909152604082015260600190565b6002810460018216806200075c57607f821691505b602082108114156200077e57634e487b7160e01b600052602260045260246000fd5b50919050565b634e487b7160e01b600052604160045260246000fd5b6001600160a01b0381168114620007b057600080fd5b50565b61534f80620007c36000396000f3fe60806040526004361061033e5760003560e01c806370a08231116101b0578063b2a02ff1116100ec578063e9c714f211610095578063f851a4401161006f578063f851a440146107fa578063f8f9da281461080f578063fbb6233714610343578063fca7820b146108245761033e565b8063e9c714f2146107b0578063f2b3abbd146107c5578063f3fdb15a146107e55761033e565b8063c37f68e2116100c6578063c37f68e214610758578063dd62ed3e14610788578063e6035b49146107a85761033e565b8063b2a02ff114610703578063b71d1a0c14610723578063bd6d894d146107435761033e565b806395dd919311610159578063a6afed9511610133578063a6afed95146106a4578063a9059cbb146106b9578063aa5af0fd146106d9578063ae9d70b0146106ee5761033e565b806395dd919314610669578063980d147b14610689578063a67de58e1461069c5761033e565b806390795e181161018a57806390795e181461062c57806394c62a721461064c57806395d89b41146106545761033e565b806370a08231146105e257806373acee98146106025780638f840ddd146106175761033e565b8063267822471161027f57806347bd371811610228578063601a0bf111610202578063601a0bf1146105905780636752e702146105a35780636c540baf146105b85780636f307dc3146105cd5761033e565b806347bd3718146105515780635c60da1b146105665780635fe3b5671461057b5761033e565b80633b1d21a2116102595780633b1d21a2146105095780633ef530da1461051e5780634576b5db146105315761033e565b806326782247146104a5578063313ce567146104c75780633af9e669146104e95761033e565b8063173b9904116102ec578063182df0f5116102c6578063182df0f51461045057806318beeeb4146104655780632191f92a1461034357806323b872dd146104855761033e565b8063173b9904146103f957806317bfdfbc1461041b57806318160ddd1461043b5761033e565b8063095ea7b31161031d578063095ea7b3146103b15780630da80b00146103d1578063124d0e07146103d95761033e565b80627e3dd21461034357806306fdde031461036e578063092a859614610390575b600080fd5b34801561034f57600080fd5b50610358610844565b6040516103659190614c49565b60405180910390f35b34801561037a57600080fd5b50610383610849565b6040516103659190614c7c565b6103a361039e3660046149f8565b6108d7565b6040516103659291906151fb565b3480156103bd57600080fd5b506103586103cc366004614ab7565b61096d565b6103a36109db565b6103ec6103e7366004614a14565b610a80565b6040516103659190614c54565b34801561040557600080fd5b5061040e610ac2565b60405161036591906151f2565b34801561042757600080fd5b5061040e6104363660046149f8565b610ac8565b34801561044757600080fd5b5061040e610b3e565b34801561045c57600080fd5b5061040e610b44565b34801561047157600080fd5b5061040e610480366004614ac9565b610b9c565b34801561049157600080fd5b506103586104a0366004614a77565b610c60565b3480156104b157600080fd5b506104ba610cad565b6040516103659190614af9565b3480156104d357600080fd5b506104dc610cc1565b604051610365919061523a565b3480156104f557600080fd5b5061040e6105043660046149f8565b610cca565b34801561051557600080fd5b5061040e610d5a565b61040e61052c366004614ac9565b610d69565b34801561053d57600080fd5b5061040e61054c3660046149f8565b610e69565b34801561055d57600080fd5b5061040e610f07565b34801561057257600080fd5b506104ba610f0d565b34801561058757600080fd5b506104ba610f1c565b61040e61059e366004614ac9565b610f2b565b3480156105af57600080fd5b5061040e610f92565b3480156105c457600080fd5b5061040e610f9d565b3480156105d957600080fd5b506104ba610fa3565b3480156105ee57600080fd5b5061040e6105fd3660046149f8565b610fb2565b34801561060e57600080fd5b5061040e610fcd565b34801561062357600080fd5b5061040e611031565b34801561063857600080fd5b5061040e610647366004614ac9565b611037565b61040e61109f565b34801561066057600080fd5b50610383611128565b34801561067557600080fd5b5061040e6106843660046149f8565b611135565b6103a3610697366004614a3f565b611187565b61040e6115dc565b3480156106b057600080fd5b5061040e61165c565b3480156106c557600080fd5b506103586106d4366004614ab7565b611a2e565b3480156106e557600080fd5b5061040e611a7a565b3480156106fa57600080fd5b5061040e611a80565b34801561070f57600080fd5b5061040e61071e366004614a77565b611d6c565b34801561072f57600080fd5b5061040e61073e3660046149f8565b611db8565b34801561074f57600080fd5b5061040e611e41565b34801561076457600080fd5b506107786107733660046149f8565b611eaa565b604051610365949392919061521f565b34801561079457600080fd5b5061040e6107a3366004614a3f565b611f67565b6103a3611f92565b3480156107bc57600080fd5b5061040e612025565b3480156107d157600080fd5b5061040e6107e03660046149f8565b612143565b3480156107f157600080fd5b506104ba612189565b34801561080657600080fd5b506104ba612198565b34801561081b57600080fd5b5061040e6121a7565b34801561083057600080fd5b5061040e61083f366004614ac9565b612237565b600181565b60018054610856906152b6565b80601f0160208091040260200160405190810160405280929190818152602001828054610882906152b6565b80156108cf5780601f106108a4576101008083540402835291602001916108cf565b820191906000526020600020905b8154815290600101906020018083116108b257829003601f168201915b505050505081565b600080548190600160a01b900460ff166108f057600080fd5b6000805460ff60a01b1916815561090561165c565b905080156109435761093781601081111561093057634e487b7160e01b600052602160045260246000fd5b603561229e565b60009250925050610953565b61094d3385611187565b92509250505b6000805460ff60a01b1916600160a01b1790559092909150565b336000818152600e602090815260408083206001600160a01b03871680855292528083208590555191929182907f8c5be1e5ebec7d5bd14f71427d1e84f3dd0314c0f7b2291e5b200ac8c7c3b925906109c79087906151f2565b60405180910390a360019150505b92915050565b6000806000806109e961233a565b60085414610a08576109fd600a604f61229e565b93509150610a7c9050565b610a12333461233e565b905080600b54610a229190615248565b9150600b54821015610a3357600080fd5b600b8290556040517fa91e67c5ea634cd43a12c5a482724b03de01e85ca68702a53d0c2f45cb7c1dc590610a6c90339084908690614b31565b60405180910390a1600093509150505b9091565b6040516000906001600160a01b0384169083156108fc0290849084818181858888f19350505050158015610ab8573d6000803e3d6000fd5b5060009392505050565b60075481565b60008054600160a01b900460ff16610adf57600080fd5b6000805460ff60a01b19168155610af461165c565b14610b1a5760405162461bcd60e51b8152600401610b1190614ccf565b60405180910390fd5b610b2382611135565b90505b6000805460ff60a01b1916600160a01b179055919050565b600c5481565b6000806000610b51612367565b90925090506000826003811115610b7857634e487b7160e01b600052602160045260246000fd5b14610b955760405162461bcd60e51b8152600401610b1190615138565b9150505b90565b60008054600160a01b900460ff16610bb357600080fd5b6000805460ff60a01b19168155610bc861165c565b90508015610c0257610bfa816010811115610bf357634e487b7160e01b600052602160045260246000fd5b602761229e565b915050610b26565b7f43789b30e4c6d53e2735e5701207b0529b2cc229b1bb02b9691d39ea218da7d783604051610c3191906151f2565b60405180910390a1610c4533846000612439565b9150506000805460ff60a01b1916600160a01b179055919050565b60008054600160a01b900460ff16610c7757600080fd5b6000805460ff60a01b19168155610c9033868686612a8f565b1490506000805460ff60a01b1916600160a01b1790559392505050565b60035461010090046001600160a01b031681565b60035460ff1681565b6000806040518060200160405280610ce0611e41565b90526001600160a01b0384166000908152600d6020526040812054919250908190610d0c908490612e41565b90925090506000826003811115610d3357634e487b7160e01b600052602160045260246000fd5b14610d505760405162461bcd60e51b8152600401610b1190614d06565b925050505b919050565b6000610d64612ea1565b905090565b6000805481906001600160a01b03163314610d9257610d8a6001603161229e565b915050610d55565b610d9a61233a565b60085414610dae57610d8a600a603361229e565b82610db7612ea1565b1015610dc957610d8a600e603261229e565b600b54831115610ddf57610d8a6002603461229e565b82600b54610ded919061529f565b9050600b54811115610dfe57600080fd5b600b819055600054610e19906001600160a01b031684610a80565b506000546040517f3bad0c59cf2f06e7314077049f48a93578cd16f5ef92329f1dab1420a99c177e91610e5b916001600160a01b039091169086908590614b31565b60405180910390a192915050565b600080546001600160a01b03163314610e8f57610e886001603f61229e565b9050610d55565b6004546001600160a01b03166004805473ffffffffffffffffffffffffffffffffffffffff19166001600160a01b0385161790556040517f7ac369dbd14fa5ea3f473ed67cc9d598964a77501540ba6751eb0b3decf5870d90610ef59083908690614b78565b60405180910390a160005b9392505050565b600a5481565b6011546001600160a01b031681565b6004546001600160a01b031681565b60008054600160a01b900460ff16610f4257600080fd5b6000805460ff60a01b19168155610f5761165c565b90508015610f8957610bfa816010811115610f8257634e487b7160e01b600052602160045260246000fd5b603061229e565b610c4583610d69565b666379da05b6000081565b60085481565b6010546001600160a01b031681565b6001600160a01b03166000908152600d602052604090205490565b60008054600160a01b900460ff16610fe457600080fd5b6000805460ff60a01b19168155610ff961165c565b146110165760405162461bcd60e51b8152600401610b1190614ccf565b50600a545b6000805460ff60a01b1916600160a01b17905590565b600b5481565b60008054600160a01b900460ff1661104e57600080fd5b6000805460ff60a01b1916815561106361165c565b9050801561109557610bfa81601081111561108e57634e487b7160e01b600052602160045260246000fd5b600861229e565b610c453384612ee1565b60008054600160a01b900460ff166110b657600080fd5b6000805460ff60a01b191681556110cb61165c565b90508015611105576110fd8160108111156110f657634e487b7160e01b600052602160045260246000fd5b601e61229e565b91505061101b565b61110f33346133c3565b9150506000805460ff60a01b1916600160a01b17905590565b60028054610856906152b6565b6000806000611143846139d6565b9092509050600082600381111561116a57634e487b7160e01b600052602160045260246000fd5b14610f005760405162461bcd60e51b8152600401610b1190614e9c565b600480546040517f24008a62000000000000000000000000000000000000000000000000000000008152600092839283926001600160a01b03909116916324008a62916111dc9130918a918a91349101614bee565b602060405180830381600087803b1580156111f657600080fd5b505af115801561120a573d6000803e3d6000fd5b505050506040513d601f19601f8201168201806040525081019061122e9190614ae1565b9050801561124f576112436003603883613ab1565b600092509250506115d5565b61125761233a565b6008541461126b57611243600a603961229e565b6112736148ad565b6001600160a01b0385166000908152600f6020526040902060010154606082015261129d856139d6565b60808301819052602083018260038111156112c857634e487b7160e01b600052602160045260246000fd5b60038111156112e757634e487b7160e01b600052602160045260246000fd5b905250600090508160200151600381111561131257634e487b7160e01b600052602160045260246000fd5b1461135457611347600960378360200151600381111561134257634e487b7160e01b600052602160045260246000fd5b613ab1565b60009350935050506115d5565b346fffffffffffffffffffffffffffffffff141561137b5760808101516040820152611382565b3460408201525b611390868260400151613b4c565b819060108111156113b157634e487b7160e01b600052602160045260246000fd5b908160108111156113d257634e487b7160e01b600052602160045260246000fd5b9052506000815160108111156113f857634e487b7160e01b600052602160045260246000fd5b1461140a57805161134790603c61229e565b61141c81608001518260e00151613b9e565b60a083018190526020830182600381111561144757634e487b7160e01b600052602160045260246000fd5b600381111561146657634e487b7160e01b600052602160045260246000fd5b905250600090508160200151600381111561149157634e487b7160e01b600052602160045260246000fd5b146114ae5760405162461bcd60e51b8152600401610b1190614f8d565b6114be600a548260e00151613b9e565b60c08301819052602083018260038111156114e957634e487b7160e01b600052602160045260246000fd5b600381111561150857634e487b7160e01b600052602160045260246000fd5b905250600090508160200151600381111561153357634e487b7160e01b600052602160045260246000fd5b146115505760405162461bcd60e51b8152600401610b119061507e565b60a0810180516001600160a01b0387166000908152600f60205260409081902091825560095460019092019190915560c0830151600a81905560e0840151925191517f1a2a22cb034d26d1854bdc6666a5b91fe25efbbb5dcad3b0355478d6f5c362a1936115c1938b938b93614c18565b60405180910390a160e00151600093509150505b9250929050565b60008054600160a01b900460ff166115f357600080fd5b6000805460ff60a01b1916815561160861165c565b9050801561163a576110fd81601081111561163357634e487b7160e01b600052602160045260246000fd5b604e61229e565b6116426109db565b509150506000805460ff60a01b1916600160a01b17905590565b60008061166761233a565b6008549091508082141561168057600092505050610b99565b600061168a612ea1565b600a54600b546009546005546040517f15f240530000000000000000000000000000000000000000000000000000000081529495509293919290916000916001600160a01b0316906315f24053906116ea90889088908890600401615209565b60206040518083038186803b15801561170257600080fd5b505afa158015611716573d6000803e3d6000fd5b505050506040513d601f19601f8201168201806040525081019061173a9190614ae1565b905065048c273950008111156117625760405162461bcd60e51b8152600401610b1190614f56565b60008061176f8989613b9e565b9092509050600082600381111561179657634e487b7160e01b600052602160045260246000fd5b146117b35760405162461bcd60e51b8152600401610b1190615047565b6117bb6148f3565b6000806000806117d960405180602001604052808a81525087613bc9565b9097509450600087600381111561180057634e487b7160e01b600052602160045260246000fd5b146118415761182c6009600689600381111561134257634e487b7160e01b600052602160045260246000fd5b9e505050505050505050505050505050610b99565b61184b858c612e41565b9097509350600087600381111561187257634e487b7160e01b600052602160045260246000fd5b1461189e5761182c6009600189600381111561134257634e487b7160e01b600052602160045260246000fd5b6118a8848c613c45565b909750925060008760038111156118cf57634e487b7160e01b600052602160045260246000fd5b146118fb5761182c6009600489600381111561134257634e487b7160e01b600052602160045260246000fd5b6119166040518060200160405280600754815250858c613c75565b9097509150600087600381111561193d57634e487b7160e01b600052602160045260246000fd5b146119695761182c6009600589600381111561134257634e487b7160e01b600052602160045260246000fd5b611974858a8b613c75565b9097509050600087600381111561199b57634e487b7160e01b600052602160045260246000fd5b146119c75761182c6009600389600381111561134257634e487b7160e01b600052602160045260246000fd5b60088e90556009819055600a839055600b8290556040517f4dec04e750ca11537cabcd8a9eab06494de08da3735bc8871cd41250e190bc0490611a11908e9087908590889061521f565b60405180910390a160009e50505050505050505050505050505090565b60008054600160a01b900460ff16611a4557600080fd5b6000805460ff60a01b19168155611a5e33338686612a8f565b1490506000805460ff60a01b1916600160a01b17905592915050565b60095481565b600080611a8b610b44565b6005549091506000906001600160a01b03166315f24053611aaa612ea1565b600a54600b546040518463ffffffff1660e01b8152600401611ace93929190615209565b60206040518083038186803b158015611ae657600080fd5b505afa158015611afa573d6000803e3d6000fd5b505050506040513d601f19601f82011682018060405250810190611b1e9190614ae1565b6005549091506000906001600160a01b03166315f24053611b3d612ea1565b600a54600b546040518463ffffffff1660e01b8152600401611b6193929190615209565b60206040518083038186803b158015611b7957600080fd5b505afa158015611b8d573d6000803e3d6000fd5b505050506040513d601f19601f82011682018060405250810190611bb19190614ae1565b90508115611bd15760405162461bcd60e51b8152600401610b1190614fea565b600080611bee604051806020016040528087815250600c54613bc9565b90925090506000826003811115611c1557634e487b7160e01b600052602160045260246000fd5b14611c325760405162461bcd60e51b8152600401610b1190614ef9565b600080611c41600a5484613cde565b90925090506000826003811115611c6857634e487b7160e01b600052602160045260246000fd5b14611c855760405162461bcd60e51b8152600401610b1190614d74565b600080611cb86040518060200160405280670de0b6b3a76400008152506040518060200160405280600754815250613d51565b90925090506000826003811115611cdf57634e487b7160e01b600052602160045260246000fd5b14611cfc5760405162461bcd60e51b8152600401610b11906150db565b600080611d1860405180602001604052808b8152508487613d8b565b90925090506000826003811115611d3f57634e487b7160e01b600052602160045260246000fd5b14611d5c5760405162461bcd60e51b8152600401610b1190614dd1565b519a505050505050505050505090565b60008054600160a01b900460ff16611d8357600080fd5b6000805460ff60a01b19169055611d9c33858585613de2565b90506000805460ff60a01b1916600160a01b1790559392505050565b600080546001600160a01b03163314611dd757610e886001604561229e565b600380546001600160a01b0384811661010090810274ffffffffffffffffffffffffffffffffffffffff00198416179093556040519290910416907fca4f2f25d0898edd99413412fb94012f9e54ec8142f9b093e7720646a95b16a990610ef59083908690614b78565b60008054600160a01b900460ff16611e5857600080fd5b6000805460ff60a01b19168155611e6d61165c565b14611e8a5760405162461bcd60e51b8152600401610b1190614ccf565b611e92610b44565b90506000805460ff60a01b1916600160a01b17905590565b6001600160a01b0381166000908152600d6020526040812054819081908190818080611ed5896139d6565b935090506000816003811115611efb57634e487b7160e01b600052602160045260246000fd5b14611f195760095b6000806000975097509750975050505050611f60565b611f21612367565b925090506000816003811115611f4757634e487b7160e01b600052602160045260246000fd5b14611f53576009611f03565b5060009650919450925090505b9193509193565b6001600160a01b039182166000908152600e6020908152604080832093909416825291909152205490565b600080548190600160a01b900460ff16611fab57600080fd5b6000805460ff60a01b19168155611fc061165c565b90508015611ffe57611ff2816010811115611feb57634e487b7160e01b600052602160045260246000fd5b603661229e565b6000925092505061200e565b6120083333611187565b92509250505b6000805460ff60a01b1916600160a01b1790559091565b60035460009061010090046001600160a01b031633141580612045575033155b1561205d576120566001600061229e565b9050610b99565b60008054600380546001600160a01b036101008204811673ffffffffffffffffffffffffffffffffffffffff19851681179586905574ffffffffffffffffffffffffffffffffffffffff00199092169092556040519282169390927ff9ffabca9c8276e99321725bcb43fb076a6c66a54b7f21c4e8146d8519b417dc926120e8928692911690614b78565b60405180910390a16003546040517fca4f2f25d0898edd99413412fb94012f9e54ec8142f9b093e7720646a95b16a99161213291849161010090046001600160a01b031690614b78565b60405180910390a160009250505090565b60008061214e61165c565b9050801561218057610d8a81601081111561217957634e487b7160e01b600052602160045260246000fd5b604061229e565b610f0083614285565b6005546001600160a01b031681565b6000546001600160a01b031681565b6005546000906001600160a01b03166315f240536121c3612ea1565b600a54600b546040518463ffffffff1660e01b81526004016121e793929190615209565b60206040518083038186803b1580156121ff57600080fd5b505afa158015612213573d6000803e3d6000fd5b505050506040513d601f19601f82011682018060405250810190610d649190614ae1565b60008054600160a01b900460ff1661224e57600080fd5b6000805460ff60a01b1916815561226361165c565b9050801561229557610bfa81601081111561228e57634e487b7160e01b600052602160045260246000fd5b604661229e565b610c4583614329565b60007f45b96fe442630264581b197e84bbada861235052c5a1aadfff9ea4e40a969aa08360108111156122e157634e487b7160e01b600052602160045260246000fd5b83605081111561230157634e487b7160e01b600052602160045260246000fd5b600060405161231293929190615209565b60405180910390a1826010811115610f0057634e487b7160e01b600052602160045260246000fd5b4390565b6000336001600160a01b0384161461235557600080fd5b81341461236157600080fd5b50919050565b600080600c5460001415612382575050600654600090610a7c565b600061238c612ea1565b905060006123986148f3565b60006123a984600a54600b546143ba565b9350905060008160038111156123cf57634e487b7160e01b600052602160045260246000fd5b146123e357945060009350610a7c92505050565b6123ef83600c5461440c565b92509050600081600381111561241557634e487b7160e01b600052602160045260246000fd5b1461242957945060009350610a7c92505050565b5051600094509250610a7c915050565b6000821580612446575081155b6124625760405162461bcd60e51b8152600401610b1190615195565b61246a614906565b612472612367565b604083018190526020830182600381111561249d57634e487b7160e01b600052602160045260246000fd5b60038111156124bc57634e487b7160e01b600052602160045260246000fd5b90525060009050816020015160038111156124e757634e487b7160e01b600052602160045260246000fd5b1461251f576125176009602b8360200151600381111561134257634e487b7160e01b600052602160045260246000fd5b915050610f00565b83156125f05760608101849052604080516020810182529082015181526125469085612e41565b608083018190526020830182600381111561257157634e487b7160e01b600052602160045260246000fd5b600381111561259057634e487b7160e01b600052602160045260246000fd5b90525060009050816020015160038111156125bb57634e487b7160e01b600052602160045260246000fd5b146125eb57612517600960298360200151600381111561134257634e487b7160e01b600052602160045260246000fd5b6126b9565b61260c83604051806020016040528084604001518152506144e5565b606083018190526020830182600381111561263757634e487b7160e01b600052602160045260246000fd5b600381111561265657634e487b7160e01b600052602160045260246000fd5b905250600090508160200151600381111561268157634e487b7160e01b600052602160045260246000fd5b146126b1576125176009602a8360200151600381111561134257634e487b7160e01b600052602160045260246000fd5b608081018390525b6004805460608301516040517feabe7d910000000000000000000000000000000000000000000000000000000081526000936001600160a01b039093169263eabe7d919261270c9230928c929101614b0d565b602060405180830381600087803b15801561272657600080fd5b505af115801561273a573d6000803e3d6000fd5b505050506040513d601f19601f8201168201806040525081019061275e9190614ae1565b9050801561277c576127736003602883613ab1565b92505050610f00565b61278461233a565b6008541461279857612773600a602c61229e565b6127a8600c548360600151613b9e565b60a08401819052602084018260038111156127d357634e487b7160e01b600052602160045260246000fd5b60038111156127f257634e487b7160e01b600052602160045260246000fd5b905250600090508260200151600381111561281d57634e487b7160e01b600052602160045260246000fd5b1461284d576127736009602e8460200151600381111561134257634e487b7160e01b600052602160045260246000fd5b6001600160a01b0386166000908152600d602052604090205460608301516128759190613b9e565b60c08401819052602084018260038111156128a057634e487b7160e01b600052602160045260246000fd5b60038111156128bf57634e487b7160e01b600052602160045260246000fd5b90525060009050826020015160038111156128ea57634e487b7160e01b600052602160045260246000fd5b1461291a576127736009602d8460200151600381111561134257634e487b7160e01b600052602160045260246000fd5b8160800151612927612ea1565b101561293957612773600e602f61229e565b612947868360800151610a80565b5060a0820151600c5560c08201516001600160a01b0387166000818152600d602052604090819020929092556060840151915130927fddf252ad1be2c89b69c2b068fc378daa952ba7f163c4a11628f55a4df523b3ef916129a891906151f2565b60405180910390a3608082015160608301516040517fe5b754fb1abb7f01b499791d0b820ae3b6af3424ac1c59768edb53f4ec31a929926129ea928a92614b31565b60405180910390a160048054608084015160608501516040517f51dff9890000000000000000000000000000000000000000000000000000000081526001600160a01b03909316936351dff98993612a4a9330938d939192909101614b92565b600060405180830381600087803b158015612a6457600080fd5b505af1158015612a78573d6000803e3d6000fd5b5060009250612a85915050565b9695505050505050565b600480546040517fbdcdc25800000000000000000000000000000000000000000000000000000000815260009283926001600160a01b03169163bdcdc25891612ae091309182918a918a9101614bee565b602060405180830381600087803b158015612afa57600080fd5b505af1158015612b0e573d6000803e3d6000fd5b505050506040513d601f19601f82011682018060405250810190612b329190614ae1565b90507ff659603e63125dd589ae94d6c07033fa45c0ac2e33d9084a07ac04033f16575c81604051612b6391906151f2565b60405180910390a18015612b8657612b7e6003604a83613ab1565b915050612e39565b836001600160a01b0316856001600160a01b03161415612bac57612b7e6002604b61229e565b6000856001600160a01b0316876001600160a01b03161415612bd15750600019612bf9565b506001600160a01b038086166000908152600e60209081526040808320938a16835292905220545b600080600080612c098589613b9e565b90945092506000846003811115612c3057634e487b7160e01b600052602160045260246000fd5b14612c4e57612c416009604b61229e565b9650505050505050612e39565b6001600160a01b038a166000908152600d6020526040902054612c719089613b9e565b90945091506000846003811115612c9857634e487b7160e01b600052602160045260246000fd5b14612ca957612c416009604c61229e565b6001600160a01b0389166000908152600d6020526040902054612ccc9089613c45565b90945090506000846003811115612cf357634e487b7160e01b600052602160045260246000fd5b14612d0457612c416009604d61229e565b6001600160a01b03808b166000908152600d6020526040808220859055918b168152208190556000198514612d5c576001600160a01b03808b166000908152600e60209081526040808320938f168352929052208390555b886001600160a01b03168a6001600160a01b03167fddf252ad1be2c89b69c2b068fc378daa952ba7f163c4a11628f55a4df523b3ef8a604051612d9f91906151f2565b60405180910390a3600480546040517f6a56947e0000000000000000000000000000000000000000000000000000000081526001600160a01b0390911691636a56947e91612df59130918f918f918f9101614bee565b600060405180830381600087803b158015612e0f57600080fd5b505af1158015612e23573d6000803e3d6000fd5b5060009250612e30915050565b96505050505050505b949350505050565b600080600080612e518686613bc9565b90925090506000826003811115612e7857634e487b7160e01b600052602160045260246000fd5b14612e8957509150600090506115d5565b6000612e94826144f5565b9350935050509250929050565b6000806000612eb04734613b9e565b90925090506000826003811115612ed757634e487b7160e01b600052602160045260246000fd5b14610b9557600080fd5b600480546040517fda3d454c00000000000000000000000000000000000000000000000000000000815260009283926001600160a01b03169163da3d454c91612f309130918991899101614b0d565b602060405180830381600087803b158015612f4a57600080fd5b505af1158015612f5e573d6000803e3d6000fd5b505050506040513d601f19601f82011682018060405250810190612f829190614ae1565b90507ff659603e63125dd589ae94d6c07033fa45c0ac2e33d9084a07ac04033f16575c81604051612fb391906151f2565b60405180910390a18015612fd657612fce6003600e83613ab1565b9150506109d5565b612fde61233a565b60085414612ff157612fce600a8061229e565b82612ffa612ea1565b101561300c57612fce600e600961229e565b613014614944565b61301d856139d6565b604083018190526020830182600381111561304857634e487b7160e01b600052602160045260246000fd5b600381111561306757634e487b7160e01b600052602160045260246000fd5b905250600090508160200151600381111561309257634e487b7160e01b600052602160045260246000fd5b146130cb576130c2600960078360200151600381111561134257634e487b7160e01b600052602160045260246000fd5b925050506109d5565b6130d9816040015185613c45565b606083018190526020830182600381111561310457634e487b7160e01b600052602160045260246000fd5b600381111561312357634e487b7160e01b600052602160045260246000fd5b905250600090508160200151600381111561314e57634e487b7160e01b600052602160045260246000fd5b1461317e576130c26009600c8360200151600381111561134257634e487b7160e01b600052602160045260246000fd5b61318a600a5485613c45565b60808301819052602083018260038111156131b557634e487b7160e01b600052602160045260246000fd5b60038111156131d457634e487b7160e01b600052602160045260246000fd5b90525060009050816020015160038111156131ff57634e487b7160e01b600052602160045260246000fd5b1461322f576130c26009600b8360200151600381111561134257634e487b7160e01b600052602160045260246000fd5b6132398585610a80565b8190601081111561325a57634e487b7160e01b600052602160045260246000fd5b9081601081111561327b57634e487b7160e01b600052602160045260246000fd5b9052506000815160108111156132a157634e487b7160e01b600052602160045260246000fd5b146132be5760405162461bcd60e51b8152600401610b1190614d3d565b6060810180516001600160a01b0387166000908152600f6020526040908190209182556009546001909201919091556080830151600a819055915190517f13ed6866d4e1ee6da46f845c46d7e54120883d75c5ea9a2dacc1c4ca8984ab809261332b928992899290614b52565b60405180910390a1600480546040517f5c7786050000000000000000000000000000000000000000000000000000000081526001600160a01b0390911691635c7786059161337f9130918a918a9101614b0d565b600060405180830381600087803b15801561339957600080fd5b505af11580156133ad573d6000803e3d6000fd5b50600092506133ba915050565b95945050505050565b600480546040517f4ef4c3e100000000000000000000000000000000000000000000000000000000815260009283926001600160a01b031691634ef4c3e1916134129130918991899101614b0d565b602060405180830381600087803b15801561342c57600080fd5b505af1158015613440573d6000803e3d6000fd5b505050506040513d601f19601f820116820180604052508101906134649190614ae1565b90507ff659603e63125dd589ae94d6c07033fa45c0ac2e33d9084a07ac04033f16575c8160405161349591906151f2565b60405180910390a180156134b057612fce6003601f83613ab1565b6134b861233a565b600854146134cc57612fce600a602261229e565b6134d4614974565b6134de8585613b4c565b819060108111156134ff57634e487b7160e01b600052602160045260246000fd5b9081601081111561352057634e487b7160e01b600052602160045260246000fd5b90525060008151601081111561354657634e487b7160e01b600052602160045260246000fd5b146135585780516130c290602661229e565b613560612367565b604083018190526020830182600381111561358b57634e487b7160e01b600052602160045260246000fd5b60038111156135aa57634e487b7160e01b600052602160045260246000fd5b90525060009050816020015160038111156135d557634e487b7160e01b600052602160045260246000fd5b14613605576130c2600960218360200151600381111561134257634e487b7160e01b600052602160045260246000fd5b61362184604051806020016040528084604001518152506144e5565b606083018190526020830182600381111561364c57634e487b7160e01b600052602160045260246000fd5b600381111561366b57634e487b7160e01b600052602160045260246000fd5b905250600090508160200151600381111561369657634e487b7160e01b600052602160045260246000fd5b146136c6576130c2600960208360200151600381111561134257634e487b7160e01b600052602160045260246000fd5b6136d6600c548260600151613c45565b608083018190526020830182600381111561370157634e487b7160e01b600052602160045260246000fd5b600381111561372057634e487b7160e01b600052602160045260246000fd5b905250600090508160200151600381111561374b57634e487b7160e01b600052602160045260246000fd5b1461377b576130c2600960248360200151600381111561134257634e487b7160e01b600052602160045260246000fd5b6001600160a01b0385166000908152600d602052604090205460608201516137a39190613c45565b60a08301819052602083018260038111156137ce57634e487b7160e01b600052602160045260246000fd5b60038111156137ed57634e487b7160e01b600052602160045260246000fd5b905250600090508160200151600381111561381857634e487b7160e01b600052602160045260246000fd5b14613848576130c2600960238360200151600381111561134257634e487b7160e01b600052602160045260246000fd5b6138528585613b4c565b8190601081111561387357634e487b7160e01b600052602160045260246000fd5b9081601081111561389457634e487b7160e01b600052602160045260246000fd5b9052506000815160108111156138ba57634e487b7160e01b600052602160045260246000fd5b146138cc5780516130c290602561229e565b6080810151600c5560a08101516001600160a01b0386166000908152600d60205260409081902091909155606082015190517f4c209b5fc8ad50758f13e2e1088ba56a560dff690a1c6fef26394f4c03821c4f9161392d9188918891614b31565b60405180910390a1846001600160a01b0316306001600160a01b03167fddf252ad1be2c89b69c2b068fc378daa952ba7f163c4a11628f55a4df523b3ef836060015160405161397c91906151f2565b60405180910390a36004805460608301516040517f41c728b90000000000000000000000000000000000000000000000000000000081526001600160a01b03909216926341c728b99261337f9230928b928b929101614b92565b6001600160a01b0381166000908152600f6020526040812080548291829182918291613a0c576000809550955050505050613aac565b613a1c816000015460095461450d565b90945092506000846003811115613a4357634e487b7160e01b600052602160045260246000fd5b14613a58578360009550955050505050613aac565b613a66838260010154614557565b90945091506000846003811115613a8d57634e487b7160e01b600052602160045260246000fd5b14613aa2578360009550955050505050613aac565b5060009450925050505b915091565b60007f45b96fe442630264581b197e84bbada861235052c5a1aadfff9ea4e40a969aa0846010811115613af457634e487b7160e01b600052602160045260246000fd5b846050811115613b1457634e487b7160e01b600052602160045260246000fd5b84604051613b2493929190615209565b60405180910390a1836010811115612e3957634e487b7160e01b600052602160045260246000fd5b6000336001600160a01b03841614613b765760405162461bcd60e51b8152600401610b1190614e2e565b813414613b955760405162461bcd60e51b8152600401610b1190614e65565b50600092915050565b600080838311613bbd576000613bb4848661529f565b915091506115d5565b506003905060006115d5565b6000613bd36148f3565b600080613be486600001518661450d565b90925090506000826003811115613c0b57634e487b7160e01b600052602160045260246000fd5b14613c2a575060408051602081019091526000815290925090506115d5565b60408051602081019091529081526000969095509350505050565b60008080613c538486615248565b9050848110613c67576000925090506115d5565b6002600092509250506115d5565b600080600080613c858787613bc9565b90925090506000826003811115613cac57634e487b7160e01b600052602160045260246000fd5b14613cbd5750915060009050613cd6565b613ccf613cc9826144f5565b86613c45565b9350935050505b935093915050565b6000613ce86148f3565b600080613cfd670de0b6b3a76400008761450d565b90925090506000826003811115613d2457634e487b7160e01b600052602160045260246000fd5b14613d43575060408051602081019091526000815290925090506115d5565b612e9481866000015161440c565b6000613d5b6148f3565b600080613d7086600001518660000151613b9e565b60408051602081019091529081529097909650945050505050565b6000613d956148f3565b600080613da28787614582565b90925090506000826003811115613dc957634e487b7160e01b600052602160045260246000fd5b14613dd8579092509050613cd6565b613ccf8186614582565b600480546040517fd02f735100000000000000000000000000000000000000000000000000000000815260009283926001600160a01b03169163d02f735191613e359130918b918b918b918b9101614bbb565b602060405180830381600087803b158015613e4f57600080fd5b505af1158015613e63573d6000803e3d6000fd5b505050506040513d601f19601f82011682018060405250810190613e879190614ae1565b90508015613e9c57612b7e6003601b83613ab1565b846001600160a01b0316846001600160a01b03161415613ec257612b7e6006601c61229e565b613eca6149ab565b6001600160a01b0385166000908152600d6020526040902054613eed9085613b9e565b6020830181905282826003811115613f1557634e487b7160e01b600052602160045260246000fd5b6003811115613f3457634e487b7160e01b600052602160045260246000fd5b9052506000905081516003811115613f5c57634e487b7160e01b600052602160045260246000fd5b14613f9557613f8c6009601a8360000151600381111561134257634e487b7160e01b600052602160045260246000fd5b92505050612e39565b613fb4846040518060200160405280666379da05b600008152506146c6565b60808201819052613fc69085906146e9565b6060820152613fd3612367565b60c0830181905282826003811115613ffb57634e487b7160e01b600052602160045260246000fd5b600381111561401a57634e487b7160e01b600052602160045260246000fd5b905250600090508151600381111561404257634e487b7160e01b600052602160045260246000fd5b1461404c57600080fd5b61406c60405180602001604052808360c00151815250826080015161472b565b60a08201819052600b5461407f91614743565b60e0820152600c54608082015161409691906146e9565b6101008201526001600160a01b0386166000908152600d602052604090205460608201516140c49190613c45565b60408301819052828260038111156140ec57634e487b7160e01b600052602160045260246000fd5b600381111561410b57634e487b7160e01b600052602160045260246000fd5b905250600090508151600381111561413357634e487b7160e01b600052602160045260246000fd5b1461416357613f8c600960198360000151600381111561134257634e487b7160e01b600052602160045260246000fd5b60e0810151600b55610100810151600c556020808201516001600160a01b038088166000818152600d90945260408085209390935582850151918a1680855293839020919091556060840151915190917fddf252ad1be2c89b69c2b068fc378daa952ba7f163c4a11628f55a4df523b3ef916141df91906151f2565b60405180910390a3306001600160a01b0316856001600160a01b03167fddf252ad1be2c89b69c2b068fc378daa952ba7f163c4a11628f55a4df523b3ef836080015160405161422e91906151f2565b60405180910390a360a081015160e08201516040517fa91e67c5ea634cd43a12c5a482724b03de01e85ca68702a53d0c2f45cb7c1dc592614270923092614b31565b60405180910390a16000979650505050505050565b6000805481906001600160a01b031633146142a657610d8a6001604261229e565b6142ae61233a565b600854146142c257610d8a600a604161229e565b506005546001600160a01b03166005805473ffffffffffffffffffffffffffffffffffffffff19166001600160a01b0385161790556040517fedffc32e068c7c95dfd4bdfd5c4d939a084d6b11c4199eac8436ed234d72f92690610ef59083908690614b78565b600080546001600160a01b0316331461434857610e886001604761229e565b61435061233a565b6008541461436457610e88600a604861229e565b670de0b6b3a764000082111561438057610e886002604961229e565b60078054908390556040517faaa68312e2ea9d50e16af5068410ab56e1a1fd06037b1a35664812c30f82146090610ef590839086906151fb565b6000806000806143ca8787613c45565b909250905060008260038111156143f157634e487b7160e01b600052602160045260246000fd5b146144025750915060009050613cd6565b613ccf8186613b9e565b60006144166148f3565b60008061442b86670de0b6b3a764000061450d565b9092509050600082600381111561445257634e487b7160e01b600052602160045260246000fd5b14614471575060408051602081019091526000815290925090506115d5565b60008061447e8388614557565b909250905060008260038111156144a557634e487b7160e01b600052602160045260246000fd5b146144c857816040518060200160405280600081525095509550505050506115d5565b604080516020810190915290815260009890975095505050505050565b600080600080612e518686613cde565b80516000906109d590670de0b6b3a764000090615260565b60008083614520575060009050806115d5565b600061452c8486615280565b9050836145398683615260565b1461454c576002600092509250506115d5565b6000925090506115d5565b6000808261456b57506001905060006115d5565b60006145778486615260565b915091509250929050565b600061458c6148f3565b6000806145a18660000151866000015161450d565b909250905060008260038111156145c857634e487b7160e01b600052602160045260246000fd5b146145e7575060408051602081019091526000815290925090506115d5565b6000806146066146006002670de0b6b3a7640000615260565b84613c45565b9092509050600082600381111561462d57634e487b7160e01b600052602160045260246000fd5b1461465057816040518060200160405280600081525095509550505050506115d5565b60008061466583670de0b6b3a7640000614557565b9092509050600082600381111561468c57634e487b7160e01b600052602160045260246000fd5b146146a757634e487b7160e01b600052600160045260246000fd5b604080516020810190915290815260009a909950975050505050505050565b6000670de0b6b3a76400006146df848460000151614785565b610f009190615260565b6000610f0083836040518060400160405280601581526020017f7375627472616374696f6e20756e646572666c6f7700000000000000000000008152506147c7565b60008061473884846147f6565b9050612e39816144f5565b6000610f0083836040518060400160405280601181526020017f6164646974696f6e206f766572666c6f77000000000000000000000000000000815250614820565b6000610f0083836040518060400160405280601781526020017f6d756c7469706c69636174696f6e206f766572666c6f7700000000000000000081525061485a565b600081848411156147eb5760405162461bcd60e51b8152600401610b119190614c7c565b50612e39838561529f565b6147fe6148f3565b6040518060200160405280614817856000015185614785565b90529392505050565b60008061482d8486615248565b905082858210156148515760405162461bcd60e51b8152600401610b119190614c7c565b50949350505050565b6000831580614867575082155b1561487457506000610f00565b60006148808486615280565b90508361488d8683615260565b1483906148515760405162461bcd60e51b8152600401610b119190614c7c565b6040805161010081019091528060008152602001600081526020016000815260200160008152602001600081526020016000815260200160008152602001600081525090565b6040518060200160405280600081525090565b6040805160e0810190915280600081526020016000815260200160008152602001600081526020016000815260200160008152602001600081525090565b6040805160a081019091528060008152602001600081526020016000815260200160008152602001600081525090565b6040805160c08101909152806000815260200160008152602001600081526020016000815260200160008152602001600081525090565b604080516101208101909152806000815260200160008152602001600081526020016000815260200160008152602001600081526020016000815260200160008152602001600081525090565b600060208284031215614a09578081fd5b8135610f0081615301565b60008060408385031215614a26578081fd5b8235614a3181615301565b946020939093013593505050565b60008060408385031215614a51578182fd5b8235614a5c81615301565b91506020830135614a6c81615301565b809150509250929050565b600080600060608486031215614a8b578081fd5b8335614a9681615301565b92506020840135614aa681615301565b929592945050506040919091013590565b60008060408385031215614a26578182fd5b600060208284031215614ada578081fd5b5035919050565b600060208284031215614af2578081fd5b5051919050565b6001600160a01b0391909116815260200190565b6001600160a01b039384168152919092166020820152604081019190915260600190565b6001600160a01b039390931683526020830191909152604082015260600190565b6001600160a01b0394909416845260208401929092526040830152606082015260800190565b6001600160a01b0392831681529116602082015260400190565b6001600160a01b0394851681529290931660208301526040820152606081019190915260800190565b6001600160a01b039586168152938516602085015291841660408401529092166060820152608081019190915260a00190565b6001600160a01b039485168152928416602084015292166040820152606081019190915260800190565b6001600160a01b03958616815293909416602084015260408301919091526060820152608081019190915260a00190565b901515815260200190565b6020810160118310614c7657634e487b7160e01b600052602160045260246000fd5b91905290565b6000602080835283518082850152825b81811015614ca857858101830151858201604001528201614c8c565b81811115614cb95783604083870101525b50601f01601f1916929092016040019392505050565b60208082526016908201527f61636372756520696e746572657374206661696c656400000000000000000000604082015260600190565b6020808252601f908201527f62616c616e636520636f756c64206e6f742062652063616c63756c6174656400604082015260600190565b6020808252601a908201527f626f72726f77207472616e73666572206f7574206661696c6564000000000000604082015260600190565b60208082526031908201527f737570706c7952617465506572426c6f636b3a2063616c63756c6174696e672060408201527f626f72726f7773506572206661696c6564000000000000000000000000000000606082015260800190565b60208082526031908201527f737570706c7952617465506572426c6f636b3a2063616c63756c6174696e672060408201527f737570706c7952617465206661696c6564000000000000000000000000000000606082015260800190565b6020808252600f908201527f73656e646572206d69736d617463680000000000000000000000000000000000604082015260600190565b6020808252600e908201527f76616c7565206d69736d61746368000000000000000000000000000000000000604082015260600190565b60208082526037908201527f626f72726f7742616c616e636553746f7265643a20626f72726f7742616c616e60408201527f636553746f726564496e7465726e616c206661696c6564000000000000000000606082015260800190565b60208082526031908201527f737570706c7952617465506572426c6f636b3a2063616c63756c6174696e672060408201527f756e6465726c79696e67206661696c6564000000000000000000000000000000606082015260800190565b6020808252601c908201527f626f72726f772072617465206973206162737572646c79206869676800000000604082015260600190565b6020808252603a908201527f52455041595f424f52524f575f4e45575f4143434f554e545f424f52524f575f60408201527f42414c414e43455f43414c43554c4154494f4e5f4641494c4544000000000000606082015260800190565b60208082526031908201527f737570706c7952617465506572426c6f636b3a2063616c63756c6174696e672060408201527f626f72726f7752617465206661696c6564000000000000000000000000000000606082015260800190565b6020808252601f908201527f636f756c64206e6f742063616c63756c61746520626c6f636b2064656c746100604082015260600190565b60208082526031908201527f52455041595f424f52524f575f4e45575f544f54414c5f42414c414e43455f4360408201527f414c43554c4154494f4e5f4641494c4544000000000000000000000000000000606082015260800190565b6020808252603c908201527f737570706c7952617465506572426c6f636b3a2063616c63756c6174696e672060408201527f6f6e654d696e757352657365727665466163746f72206661696c656400000000606082015260800190565b60208082526035908201527f65786368616e67655261746553746f7265643a2065786368616e67655261746560408201527f53746f726564496e7465726e616c206661696c65640000000000000000000000606082015260800190565b60208082526034908201527f6f6e65206f662072656465656d546f6b656e73496e206f722072656465656d4160408201527f6d6f756e74496e206d757374206265207a65726f000000000000000000000000606082015260800190565b90815260200190565b918252602082015260400190565b9283526020830191909152604082015260600190565b93845260208401929092526040830152606082015260800190565b60ff91909116815260200190565b6000821982111561525b5761525b6152eb565b500190565b60008261527b57634e487b7160e01b81526012600452602481fd5b500490565b600081600019048311821515161561529a5761529a6152eb565b500290565b6000828210156152b1576152b16152eb565b500390565b6002810460018216806152ca57607f821691505b6020821081141561236157634e487b7160e01b600052602260045260246000fd5b634e487b7160e01b600052601160045260246000fd5b6001600160a01b038116811461531657600080fd5b5056fea2646970667358221220989f667afffa1d5e8b3f114b39afbde94ad29615100ab5b4b138ad74e0f3b88c64736f6c63430008000033",
    "linkReferences": {},
    "deployedLinkReferences": {},
    "compiler": {
        "name": "solc",
        "version": "0.5.0+commit.1d4f565a.Emscripten.clang"
    },
    "schemaVersion": "3.0.0",
    "updatedAt": "2021-10-08T13:31:58.835Z",
    "devdoc": {
        "methods": {}
    },
    "userdoc": {
        "methods": {}
    },
    "Owner": "0x0e8125ae8373b79db639196529bbf6da8a366891"
}