{
    "contractName": "BEther",
    "abi": [
        {
            "inputs": [
                {
                    "internalType": "contract ComptrollerInterface",
                    "name": "comptroller_",
                    "type": "address"
                },
                {
                    "internalType": "contract InterestRateModel",
                    "name": "interestRateModel_",
                    "type": "address"
                },
                {
                    "internalType": "uint256",
                    "name": "initialExchangeRateMantissa_",
                    "type": "uint256"
                },
                {
                    "internalType": "string",
                    "name": "name_",
                    "type": "string"
                },
                {
                    "internalType": "string",
                    "name": "symbol_",
                    "type": "string"
                },
                {
                    "internalType": "uint8",
                    "name": "decimals_",
                    "type": "uint8"
                },
                {
                    "internalType": "address payable",
                    "name": "admin_",
                    "type": "address"
                }
            ],
            "stateMutability": "nonpayable",
            "type": "constructor"
        },
        {
            "anonymous": false,
            "inputs": [
                {
                    "indexed": false,
                    "internalType": "uint256",
                    "name": "cashPrior",
                    "type": "uint256"
                },
                {
                    "indexed": false,
                    "internalType": "uint256",
                    "name": "interestAccumulated",
                    "type": "uint256"
                },
                {
                    "indexed": false,
                    "internalType": "uint256",
                    "name": "borrowIndex",
                    "type": "uint256"
                },
                {
                    "indexed": false,
                    "internalType": "uint256",
                    "name": "totalBorrows",
                    "type": "uint256"
                }
            ],
            "name": "AccrueInterest",
            "type": "event"
        },
        {
            "anonymous": false,
            "inputs": [
                {
                    "indexed": true,
                    "internalType": "address",
                    "name": "owner",
                    "type": "address"
                },
                {
                    "indexed": true,
                    "internalType": "address",
                    "name": "spender",
                    "type": "address"
                },
                {
                    "indexed": false,
                    "internalType": "uint256",
                    "name": "amount",
                    "type": "uint256"
                }
            ],
            "name": "Approval",
            "type": "event"
        },
        {
            "anonymous": false,
            "inputs": [
                {
                    "indexed": false,
                    "internalType": "address",
                    "name": "borrower",
                    "type": "address"
                },
                {
                    "indexed": false,
                    "internalType": "uint256",
                    "name": "borrowAmount",
                    "type": "uint256"
                },
                {
                    "indexed": false,
                    "internalType": "uint256",
                    "name": "accountBorrows",
                    "type": "uint256"
                },
                {
                    "indexed": false,
                    "internalType": "uint256",
                    "name": "totalBorrows",
                    "type": "uint256"
                }
            ],
            "name": "Borrow",
            "type": "event"
        },
        {
            "anonymous": false,
            "inputs": [
                {
                    "indexed": false,
                    "internalType": "uint256",
                    "name": "error",
                    "type": "uint256"
                },
                {
                    "indexed": false,
                    "internalType": "uint256",
                    "name": "info",
                    "type": "uint256"
                },
                {
                    "indexed": false,
                    "internalType": "uint256",
                    "name": "detail",
                    "type": "uint256"
                }
            ],
            "name": "Failure",
            "type": "event"
        },
        {
            "anonymous": false,
            "inputs": [
                {
                    "indexed": false,
                    "internalType": "address",
                    "name": "liquidator",
                    "type": "address"
                },
                {
                    "indexed": false,
                    "internalType": "address",
                    "name": "borrower",
                    "type": "address"
                },
                {
                    "indexed": false,
                    "internalType": "uint256",
                    "name": "repayAmount",
                    "type": "uint256"
                },
                {
                    "indexed": false,
                    "internalType": "address",
                    "name": "cTokenCollateral",
                    "type": "address"
                },
                {
                    "indexed": false,
                    "internalType": "uint256",
                    "name": "seizeTokens",
                    "type": "uint256"
                }
            ],
            "name": "LiquidateBorrow",
            "type": "event"
        },
        {
            "anonymous": false,
            "inputs": [
                {
                    "indexed": false,
                    "internalType": "address",
                    "name": "minter",
                    "type": "address"
                },
                {
                    "indexed": false,
                    "internalType": "uint256",
                    "name": "mintAmount",
                    "type": "uint256"
                },
                {
                    "indexed": false,
                    "internalType": "uint256",
                    "name": "mintTokens",
                    "type": "uint256"
                }
            ],
            "name": "Mint",
            "type": "event"
        },
        {
            "anonymous": false,
            "inputs": [
                {
                    "indexed": false,
                    "internalType": "address",
                    "name": "oldAdmin",
                    "type": "address"
                },
                {
                    "indexed": false,
                    "internalType": "address",
                    "name": "newAdmin",
                    "type": "address"
                }
            ],
            "name": "NewAdmin",
            "type": "event"
        },
        {
            "anonymous": false,
            "inputs": [
                {
                    "indexed": false,
                    "internalType": "contract ComptrollerInterface",
                    "name": "oldComptroller",
                    "type": "address"
                },
                {
                    "indexed": false,
                    "internalType": "contract ComptrollerInterface",
                    "name": "newComptroller",
                    "type": "address"
                }
            ],
            "name": "NewComptroller",
            "type": "event"
        },
        {
            "anonymous": false,
            "inputs": [
                {
                    "indexed": false,
                    "internalType": "contract InterestRateModel",
                    "name": "oldInterestRateModel",
                    "type": "address"
                },
                {
                    "indexed": false,
                    "internalType": "contract InterestRateModel",
                    "name": "newInterestRateModel",
                    "type": "address"
                }
            ],
            "name": "NewMarketInterestRateModel",
            "type": "event"
        },
        {
            "anonymous": false,
            "inputs": [
                {
                    "indexed": false,
                    "internalType": "address",
                    "name": "oldPendingAdmin",
                    "type": "address"
                },
                {
                    "indexed": false,
                    "internalType": "address",
                    "name": "newPendingAdmin",
                    "type": "address"
                }
            ],
            "name": "NewPendingAdmin",
            "type": "event"
        },
        {
            "anonymous": false,
            "inputs": [
                {
                    "indexed": false,
                    "internalType": "uint256",
                    "name": "oldReserveFactorMantissa",
                    "type": "uint256"
                },
                {
                    "indexed": false,
                    "internalType": "uint256",
                    "name": "newReserveFactorMantissa",
                    "type": "uint256"
                }
            ],
            "name": "NewReserveFactor",
            "type": "event"
        },
        {
            "anonymous": false,
            "inputs": [
                {
                    "indexed": false,
                    "internalType": "address",
                    "name": "redeemer",
                    "type": "address"
                },
                {
                    "indexed": false,
                    "internalType": "uint256",
                    "name": "redeemAmount",
                    "type": "uint256"
                },
                {
                    "indexed": false,
                    "internalType": "uint256",
                    "name": "redeemTokens",
                    "type": "uint256"
                }
            ],
            "name": "Redeem",
            "type": "event"
        },
        {
            "anonymous": false,
            "inputs": [
                {
                    "indexed": false,
                    "internalType": "address",
                    "name": "payer",
                    "type": "address"
                },
                {
                    "indexed": false,
                    "internalType": "address",
                    "name": "borrower",
                    "type": "address"
                },
                {
                    "indexed": false,
                    "internalType": "uint256",
                    "name": "repayAmount",
                    "type": "uint256"
                },
                {
                    "indexed": false,
                    "internalType": "uint256",
                    "name": "accountBorrows",
                    "type": "uint256"
                },
                {
                    "indexed": false,
                    "internalType": "uint256",
                    "name": "totalBorrows",
                    "type": "uint256"
                }
            ],
            "name": "RepayBorrow",
            "type": "event"
        },
        {
            "anonymous": false,
            "inputs": [
                {
                    "indexed": false,
                    "internalType": "address",
                    "name": "benefactor",
                    "type": "address"
                },
                {
                    "indexed": false,
                    "internalType": "uint256",
                    "name": "addAmount",
                    "type": "uint256"
                },
                {
                    "indexed": false,
                    "internalType": "uint256",
                    "name": "newTotalReserves",
                    "type": "uint256"
                }
            ],
            "name": "ReservesAdded",
            "type": "event"
        },
        {
            "anonymous": false,
            "inputs": [
                {
                    "indexed": false,
                    "internalType": "address",
                    "name": "admin",
                    "type": "address"
                },
                {
                    "indexed": false,
                    "internalType": "uint256",
                    "name": "reduceAmount",
                    "type": "uint256"
                },
                {
                    "indexed": false,
                    "internalType": "uint256",
                    "name": "newTotalReserves",
                    "type": "uint256"
                }
            ],
            "name": "ReservesReduced",
            "type": "event"
        },
        {
            "anonymous": false,
            "inputs": [
                {
                    "indexed": true,
                    "internalType": "address",
                    "name": "from",
                    "type": "address"
                },
                {
                    "indexed": true,
                    "internalType": "address",
                    "name": "to",
                    "type": "address"
                },
                {
                    "indexed": false,
                    "internalType": "uint256",
                    "name": "amount",
                    "type": "uint256"
                }
            ],
            "name": "Transfer",
            "type": "event"
        },
        {
            "stateMutability": "payable",
            "type": "fallback"
        },
        {
            "inputs": [],
            "name": "_acceptAdmin",
            "outputs": [
                {
                    "internalType": "uint256",
                    "name": "",
                    "type": "uint256"
                }
            ],
            "stateMutability": "nonpayable",
            "type": "function"
        },
        {
            "inputs": [],
            "name": "_addReserves",
            "outputs": [
                {
                    "internalType": "uint256",
                    "name": "",
                    "type": "uint256"
                }
            ],
            "stateMutability": "payable",
            "type": "function"
        },
        {
            "inputs": [
                {
                    "internalType": "uint256",
                    "name": "reduceAmount",
                    "type": "uint256"
                }
            ],
            "name": "_reduceReserves",
            "outputs": [
                {
                    "internalType": "uint256",
                    "name": "",
                    "type": "uint256"
                }
            ],
            "stateMutability": "nonpayable",
            "type": "function"
        },
        {
            "inputs": [
                {
                    "internalType": "contract ComptrollerInterface",
                    "name": "newComptroller",
                    "type": "address"
                }
            ],
            "name": "_setComptroller",
            "outputs": [
                {
                    "internalType": "uint256",
                    "name": "",
                    "type": "uint256"
                }
            ],
            "stateMutability": "nonpayable",
            "type": "function"
        },
        {
            "inputs": [
                {
                    "internalType": "contract InterestRateModel",
                    "name": "newInterestRateModel",
                    "type": "address"
                }
            ],
            "name": "_setInterestRateModel",
            "outputs": [
                {
                    "internalType": "uint256",
                    "name": "",
                    "type": "uint256"
                }
            ],
            "stateMutability": "nonpayable",
            "type": "function"
        },
        {
            "inputs": [
                {
                    "internalType": "address payable",
                    "name": "newPendingAdmin",
                    "type": "address"
                }
            ],
            "name": "_setPendingAdmin",
            "outputs": [
                {
                    "internalType": "uint256",
                    "name": "",
                    "type": "uint256"
                }
            ],
            "stateMutability": "nonpayable",
            "type": "function"
        },
        {
            "inputs": [
                {
                    "internalType": "uint256",
                    "name": "newReserveFactorMantissa",
                    "type": "uint256"
                }
            ],
            "name": "_setReserveFactor",
            "outputs": [
                {
                    "internalType": "uint256",
                    "name": "",
                    "type": "uint256"
                }
            ],
            "stateMutability": "nonpayable",
            "type": "function"
        },
        {
            "inputs": [],
            "name": "accrualBlockNumber",
            "outputs": [
                {
                    "internalType": "uint256",
                    "name": "",
                    "type": "uint256"
                }
            ],
            "stateMutability": "view",
            "type": "function"
        },
        {
            "inputs": [],
            "name": "accrueInterest",
            "outputs": [
                {
                    "internalType": "uint256",
                    "name": "",
                    "type": "uint256"
                }
            ],
            "stateMutability": "nonpayable",
            "type": "function"
        },
        {
            "inputs": [],
            "name": "admin",
            "outputs": [
                {
                    "internalType": "address payable",
                    "name": "",
                    "type": "address"
                }
            ],
            "stateMutability": "view",
            "type": "function"
        },
        {
            "inputs": [
                {
                    "internalType": "address",
                    "name": "owner",
                    "type": "address"
                },
                {
                    "internalType": "address",
                    "name": "spender",
                    "type": "address"
                }
            ],
            "name": "allowance",
            "outputs": [
                {
                    "internalType": "uint256",
                    "name": "",
                    "type": "uint256"
                }
            ],
            "stateMutability": "view",
            "type": "function"
        },
        {
            "inputs": [
                {
                    "internalType": "address",
                    "name": "spender",
                    "type": "address"
                },
                {
                    "internalType": "uint256",
                    "name": "amount",
                    "type": "uint256"
                }
            ],
            "name": "approve",
            "outputs": [
                {
                    "internalType": "bool",
                    "name": "",
                    "type": "bool"
                }
            ],
            "stateMutability": "nonpayable",
            "type": "function"
        },
        {
            "inputs": [
                {
                    "internalType": "address",
                    "name": "owner",
                    "type": "address"
                }
            ],
            "name": "balanceOf",
            "outputs": [
                {
                    "internalType": "uint256",
                    "name": "",
                    "type": "uint256"
                }
            ],
            "stateMutability": "view",
            "type": "function"
        },
        {
            "inputs": [
                {
                    "internalType": "address",
                    "name": "owner",
                    "type": "address"
                }
            ],
            "name": "balanceOfUnderlying",
            "outputs": [
                {
                    "internalType": "uint256",
                    "name": "",
                    "type": "uint256"
                }
            ],
            "stateMutability": "nonpayable",
            "type": "function"
        },
        {
            "inputs": [
                {
                    "internalType": "uint256",
                    "name": "borrowAmount",
                    "type": "uint256"
                }
            ],
            "name": "borrow",
            "outputs": [
                {
                    "internalType": "uint256",
                    "name": "",
                    "type": "uint256"
                }
            ],
            "stateMutability": "nonpayable",
            "type": "function"
        },
        {
            "inputs": [
                {
                    "internalType": "address",
                    "name": "account",
                    "type": "address"
                }
            ],
            "name": "borrowBalanceCurrent",
            "outputs": [
                {
                    "internalType": "uint256",
                    "name": "",
                    "type": "uint256"
                }
            ],
            "stateMutability": "nonpayable",
            "type": "function"
        },
        {
            "inputs": [
                {
                    "internalType": "address",
                    "name": "account",
                    "type": "address"
                }
            ],
            "name": "borrowBalanceStored",
            "outputs": [
                {
                    "internalType": "uint256",
                    "name": "",
                    "type": "uint256"
                }
            ],
            "stateMutability": "view",
            "type": "function"
        },
        {
            "inputs": [],
            "name": "borrowIndex",
            "outputs": [
                {
                    "internalType": "uint256",
                    "name": "",
                    "type": "uint256"
                }
            ],
            "stateMutability": "view",
            "type": "function"
        },
        {
            "inputs": [],
            "name": "borrowRatePerBlock",
            "outputs": [
                {
                    "internalType": "uint256",
                    "name": "",
                    "type": "uint256"
                }
            ],
            "stateMutability": "view",
            "type": "function"
        },
        {
            "inputs": [],
            "name": "comptroller",
            "outputs": [
                {
                    "internalType": "contract ComptrollerInterface",
                    "name": "",
                    "type": "address"
                }
            ],
            "stateMutability": "view",
            "type": "function"
        },
        {
            "inputs": [],
            "name": "decimals",
            "outputs": [
                {
                    "internalType": "uint8",
                    "name": "",
                    "type": "uint8"
                }
            ],
            "stateMutability": "view",
            "type": "function"
        },
        {
            "inputs": [],
            "name": "exchangeRateCurrent",
            "outputs": [
                {
                    "internalType": "uint256",
                    "name": "",
                    "type": "uint256"
                }
            ],
            "stateMutability": "nonpayable",
            "type": "function"
        },
        {
            "inputs": [],
            "name": "exchangeRateStored",
            "outputs": [
                {
                    "internalType": "uint256",
                    "name": "",
                    "type": "uint256"
                }
            ],
            "stateMutability": "view",
            "type": "function"
        },
        {
            "inputs": [
                {
                    "internalType": "address",
                    "name": "account",
                    "type": "address"
                }
            ],
            "name": "getAccountSnapshot",
            "outputs": [
                {
                    "internalType": "uint256",
                    "name": "",
                    "type": "uint256"
                },
                {
                    "internalType": "uint256",
                    "name": "",
                    "type": "uint256"
                },
                {
                    "internalType": "uint256",
                    "name": "",
                    "type": "uint256"
                },
                {
                    "internalType": "uint256",
                    "name": "",
                    "type": "uint256"
                }
            ],
            "stateMutability": "view",
            "type": "function"
        },
        {
            "inputs": [],
            "name": "getCash",
            "outputs": [
                {
                    "internalType": "uint256",
                    "name": "",
                    "type": "uint256"
                }
            ],
            "stateMutability": "view",
            "type": "function"
        },
        {
            "inputs": [],
            "name": "implementation",
            "outputs": [
                {
                    "internalType": "address",
                    "name": "",
                    "type": "address"
                }
            ],
            "stateMutability": "view",
            "type": "function"
        },
        {
            "inputs": [
                {
                    "internalType": "contract ComptrollerInterface",
                    "name": "comptroller_",
                    "type": "address"
                },
                {
                    "internalType": "contract InterestRateModel",
                    "name": "interestRateModel_",
                    "type": "address"
                },
                {
                    "internalType": "uint256",
                    "name": "initialExchangeRateMantissa_",
                    "type": "uint256"
                },
                {
                    "internalType": "string",
                    "name": "name_",
                    "type": "string"
                },
                {
                    "internalType": "string",
                    "name": "symbol_",
                    "type": "string"
                },
                {
                    "internalType": "uint8",
                    "name": "decimals_",
                    "type": "uint8"
                }
            ],
            "name": "initialize",
            "outputs": [],
            "stateMutability": "nonpayable",
            "type": "function"
        },
        {
            "inputs": [],
            "name": "interestRateModel",
            "outputs": [
                {
                    "internalType": "contract InterestRateModel",
                    "name": "",
                    "type": "address"
                }
            ],
            "stateMutability": "view",
            "type": "function"
        },
        {
            "inputs": [],
            "name": "isCToken",
            "outputs": [
                {
                    "internalType": "bool",
                    "name": "",
                    "type": "bool"
                }
            ],
            "stateMutability": "view",
            "type": "function"
        },
        {
            "inputs": [],
            "name": "isComptroller",
            "outputs": [
                {
                    "internalType": "bool",
                    "name": "",
                    "type": "bool"
                }
            ],
            "stateMutability": "view",
            "type": "function"
        },
        {
            "inputs": [],
            "name": "isInterestRateModel",
            "outputs": [
                {
                    "internalType": "bool",
                    "name": "",
                    "type": "bool"
                }
            ],
            "stateMutability": "view",
            "type": "function"
        },
        {
            "inputs": [
                {
                    "internalType": "address",
                    "name": "borrower",
                    "type": "address"
                },
                {
                    "internalType": "contract BToken",
                    "name": "cTokenCollateral",
                    "type": "address"
                }
            ],
            "name": "liquidateBorrow",
            "outputs": [],
            "stateMutability": "payable",
            "type": "function"
        },
        {
            "inputs": [],
            "name": "mint",
            "outputs": [],
            "stateMutability": "payable",
            "type": "function"
        },
        {
            "inputs": [],
            "name": "name",
            "outputs": [
                {
                    "internalType": "string",
                    "name": "",
                    "type": "string"
                }
            ],
            "stateMutability": "view",
            "type": "function"
        },
        {
            "inputs": [],
            "name": "pendingAdmin",
            "outputs": [
                {
                    "internalType": "address payable",
                    "name": "",
                    "type": "address"
                }
            ],
            "stateMutability": "view",
            "type": "function"
        },
        {
            "inputs": [],
            "name": "protocolSeizeShareMantissa",
            "outputs": [
                {
                    "internalType": "uint256",
                    "name": "",
                    "type": "uint256"
                }
            ],
            "stateMutability": "view",
            "type": "function"
        },
        {
            "inputs": [
                {
                    "internalType": "uint256",
                    "name": "redeemTokens",
                    "type": "uint256"
                }
            ],
            "name": "redeem",
            "outputs": [
                {
                    "internalType": "uint256",
                    "name": "",
                    "type": "uint256"
                }
            ],
            "stateMutability": "nonpayable",
            "type": "function"
        },
        {
            "inputs": [
                {
                    "internalType": "uint256",
                    "name": "redeemAmount",
                    "type": "uint256"
                }
            ],
            "name": "redeemUnderlying",
            "outputs": [
                {
                    "internalType": "uint256",
                    "name": "",
                    "type": "uint256"
                }
            ],
            "stateMutability": "nonpayable",
            "type": "function"
        },
        {
            "inputs": [],
            "name": "repayBorrow",
            "outputs": [],
            "stateMutability": "payable",
            "type": "function"
        },
        {
            "inputs": [
                {
                    "internalType": "address",
                    "name": "borrower",
                    "type": "address"
                }
            ],
            "name": "repayBorrowBehalf",
            "outputs": [],
            "stateMutability": "payable",
            "type": "function"
        },
        {
            "inputs": [],
            "name": "reserveFactorMantissa",
            "outputs": [
                {
                    "internalType": "uint256",
                    "name": "",
                    "type": "uint256"
                }
            ],
            "stateMutability": "view",
            "type": "function"
        },
        {
            "inputs": [
                {
                    "internalType": "address",
                    "name": "liquidator",
                    "type": "address"
                },
                {
                    "internalType": "address",
                    "name": "borrower",
                    "type": "address"
                },
                {
                    "internalType": "uint256",
                    "name": "seizeTokens",
                    "type": "uint256"
                }
            ],
            "name": "seize",
            "outputs": [
                {
                    "internalType": "uint256",
                    "name": "",
                    "type": "uint256"
                }
            ],
            "stateMutability": "nonpayable",
            "type": "function"
        },
        {
            "inputs": [],
            "name": "supplyRatePerBlock",
            "outputs": [
                {
                    "internalType": "uint256",
                    "name": "",
                    "type": "uint256"
                }
            ],
            "stateMutability": "view",
            "type": "function"
        },
        {
            "inputs": [],
            "name": "symbol",
            "outputs": [
                {
                    "internalType": "string",
                    "name": "",
                    "type": "string"
                }
            ],
            "stateMutability": "view",
            "type": "function"
        },
        {
            "inputs": [],
            "name": "totalBorrows",
            "outputs": [
                {
                    "internalType": "uint256",
                    "name": "",
                    "type": "uint256"
                }
            ],
            "stateMutability": "view",
            "type": "function"
        },
        {
            "inputs": [],
            "name": "totalBorrowsCurrent",
            "outputs": [
                {
                    "internalType": "uint256",
                    "name": "",
                    "type": "uint256"
                }
            ],
            "stateMutability": "nonpayable",
            "type": "function"
        },
        {
            "inputs": [],
            "name": "totalReserves",
            "outputs": [
                {
                    "internalType": "uint256",
                    "name": "",
                    "type": "uint256"
                }
            ],
            "stateMutability": "view",
            "type": "function"
        },
        {
            "inputs": [],
            "name": "totalSupply",
            "outputs": [
                {
                    "internalType": "uint256",
                    "name": "",
                    "type": "uint256"
                }
            ],
            "stateMutability": "view",
            "type": "function"
        },
        {
            "inputs": [
                {
                    "internalType": "address",
                    "name": "dst",
                    "type": "address"
                },
                {
                    "internalType": "uint256",
                    "name": "amount",
                    "type": "uint256"
                }
            ],
            "name": "transfer",
            "outputs": [
                {
                    "internalType": "bool",
                    "name": "",
                    "type": "bool"
                }
            ],
            "stateMutability": "nonpayable",
            "type": "function"
        },
        {
            "inputs": [
                {
                    "internalType": "address",
                    "name": "src",
                    "type": "address"
                },
                {
                    "internalType": "address",
                    "name": "dst",
                    "type": "address"
                },
                {
                    "internalType": "uint256",
                    "name": "amount",
                    "type": "uint256"
                }
            ],
            "name": "transferFrom",
            "outputs": [
                {
                    "internalType": "bool",
                    "name": "",
                    "type": "bool"
                }
            ],
            "stateMutability": "nonpayable",
            "type": "function"
        },
        {
            "inputs": [],
            "name": "underlying",
            "outputs": [
                {
                    "internalType": "address",
                    "name": "",
                    "type": "address"
                }
            ],
            "stateMutability": "view",
            "type": "function"
        },
        {
            "stateMutability": "payable",
            "type": "receive"
        }
    ],
    "bytecode": "60806040523480156200001157600080fd5b506040516200574138038062005741833981016040819052620000349162000642565b600080546001600160a01b031916331790556200005687878787878762000083565b600080546001600160a01b0319166001600160a01b03929092169190911790555062000760945050505050565b6000546001600160a01b03163314620000ef5760405162461bcd60e51b8152602060048201526024808201527f6f6e6c792061646d696e206d617920696e697469616c697a6520746865206d616044820152631c9ad95d60e21b60648201526084015b60405180910390fd5b600854158015620001005750600954155b6200015a5760405162461bcd60e51b815260206004820152602360248201527f6d61726b6574206d6179206f6e6c7920626520696e697469616c697a6564206f6044820152626e636560e81b6064820152608401620000e6565b600684905583620001c75760405162461bcd60e51b815260206004820152603060248201527f696e697469616c2065786368616e67652072617465206d75737420626520677260448201526f32b0ba32b9103a3430b7103d32b9379760811b6064820152608401620000e6565b6000620001d487620002fa565b90508015620002265760405162461bcd60e51b815260206004820152601a60248201527f73657474696e6720636f6d7074726f6c6c6572206661696c65640000000000006044820152606401620000e6565b43600855670de0b6b3a764000060095562000241866200038a565b905080156200029e5760405162461bcd60e51b815260206004820152602260248201527f73657474696e6720696e7465726573742072617465206d6f64656c206661696c604482015261195960f21b6064820152608401620000e6565b8351620002b3906001906020870190620004a4565b508251620002c9906002906020860190620004a4565b50506003805460ff90921660ff1990921691909117905550506000805460ff60a01b1916600160a01b179055505050565b600080546001600160a01b0316331462000322576200031c6001603f62000422565b92915050565b600480546001600160a01b038481166001600160a01b031983168117909355604080519190921680825260208201939093527f7ac369dbd14fa5ea3f473ed67cc9d598964a77501540ba6751eb0b3decf5870d91015b60405180910390a160005b9392505050565b6000805481906001600160a01b03163314620003ae57620003836001604262000422565b4360085414620003c65762000383600a604162000422565b50600580546001600160a01b038481166001600160a01b031983168117909355604080519190921680825260208201939093527fedffc32e068c7c95dfd4bdfd5c4d939a084d6b11c4199eac8436ed234d72f926910162000378565b60007f45b96fe442630264581b197e84bbada861235052c5a1aadfff9ea4e40a969aa08360108111156200045a576200045a6200070d565b8360508111156200046f576200046f6200070d565b60408051928352602083019190915260009082015260600160405180910390a18260108111156200038357620003836200070d565b828054620004b29062000723565b90600052602060002090601f016020900481019282620004d6576000855562000521565b82601f10620004f157805160ff191683800117855562000521565b8280016001018555821562000521579182015b828111156200052157825182559160200191906001019062000504565b506200052f92915062000533565b5090565b5b808211156200052f576000815560010162000534565b6001600160a01b03811681146200056057600080fd5b50565b634e487b7160e01b600052604160045260246000fd5b600082601f8301126200058b57600080fd5b81516001600160401b0380821115620005a857620005a862000563565b604051601f8301601f19908116603f01168101908282118183101715620005d357620005d362000563565b81604052838152602092508683858801011115620005f057600080fd5b600091505b83821015620006145785820183015181830184015290820190620005f5565b83821115620006265760008385830101525b9695505050505050565b80516200063d816200054a565b919050565b600080600080600080600060e0888a0312156200065e57600080fd5b87516200066b816200054a565b60208901519097506200067e816200054a565b604089015160608a015191975095506001600160401b0380821115620006a357600080fd5b620006b18b838c0162000579565b955060808a0151915080821115620006c857600080fd5b50620006d78a828b0162000579565b93505060a088015160ff81168114620006ef57600080fd5b9150620006ff60c0890162000630565b905092959891949750929550565b634e487b7160e01b600052602160045260246000fd5b600181811c908216806200073857607f821691505b602082108114156200075a57634e487b7160e01b600052602260045260246000fd5b50919050565b614fd180620007706000396000f3fe6080604052600436106102e75760003560e01c8063852a12e311610190578063c37f68e2116100dc578063f2b3abbd11610095578063f8f9da281161006f578063f8f9da28146108aa578063fca7820b146108bf578063fcb64147146108df578063fe9c44ae1461032c576102ee565b8063f2b3abbd1461084a578063f3fdb15a1461086a578063f851a4401461088a576102ee565b8063c37f68e21461075c578063c5ebeaec1461079c578063db006a75146107bc578063dd62ed3e146107dc578063e597461914610822578063e9c714f214610835576102ee565b8063a9059cbb11610149578063ae9d70b011610123578063ae9d70b0146106f2578063b2a02ff114610707578063b71d1a0c14610727578063bd6d894d14610747576102ee565b8063a9059cbb146106a9578063aa5af0fd146106c9578063aae40a2a146106df576102ee565b8063852a12e3146106095780638f840ddd1461062957806395d89b411461063f57806395dd91931461065457806399d8c1b414610674578063a6afed9514610694576102ee565b80633af9e6691161024f5780635fe3b567116102085780636c540baf116101e25780636c540baf146105885780636f307dc31461059e57806370a08231146105be57806373acee98146105f4576102ee565b80635fe3b5671461052d578063601a0bf11461054d5780636752e7021461056d576102ee565b80633af9e6691461049a5780633b1d21a2146104ba5780634576b5db146104cf57806347bd3718146104ef5780634e4d9fea146105055780635c60da1b1461050d576102ee565b806318160ddd116102a157806318160ddd146103e6578063182df0f5146103fc5780632191f92a1461032c57806323b872dd146104115780632678224714610431578063313ce5671461046e576102ee565b80627e3dd21461032c57806306fdde0314610356578063095ea7b3146103785780631249c58b14610398578063173b9904146103a257806317bfdfbc146103c6576102ee565b366102ee57005b60006102f9346108e7565b509050610329816040518060400160405280600b81526020016a1b5a5b9d0819985a5b195960aa1b81525061098b565b50005b34801561033857600080fd5b50610341600181565b60405190151581526020015b60405180910390f35b34801561036257600080fd5b5061036b610bb4565b60405161034d9190614af2565b34801561038457600080fd5b50610341610393366004614b5c565b610c42565b6103a0610cb2565b005b3480156103ae57600080fd5b506103b860075481565b60405190815260200161034d565b3480156103d257600080fd5b506103b86103e1366004614b88565b610cf0565b3480156103f257600080fd5b506103b8600c5481565b34801561040857600080fd5b506103b8610d70565b34801561041d57600080fd5b5061034161042c366004614ba5565b610e01565b34801561043d57600080fd5b506003546104569061010090046001600160a01b031681565b6040516001600160a01b03909116815260200161034d565b34801561047a57600080fd5b506003546104889060ff1681565b60405160ff909116815260200161034d565b3480156104a657600080fd5b506103b86104b5366004614b88565b610e61565b3480156104c657600080fd5b506103b8610f11565b3480156104db57600080fd5b506103b86104ea366004614b88565b610f20565b3480156104fb57600080fd5b506103b8600a5481565b6103a0610fa7565b34801561051957600080fd5b50601154610456906001600160a01b031681565b34801561053957600080fd5b50600454610456906001600160a01b031681565b34801561055957600080fd5b506103b8610568366004614be6565b610fe9565b34801561057957600080fd5b506103b8666379da05b6000081565b34801561059457600080fd5b506103b860085481565b3480156105aa57600080fd5b50601054610456906001600160a01b031681565b3480156105ca57600080fd5b506103b86105d9366004614b88565b6001600160a01b03166000908152600d602052604090205490565b34801561060057600080fd5b506103b8611078565b34801561061557600080fd5b506103b8610624366004614be6565b6110ee565b34801561063557600080fd5b506103b8600b5481565b34801561064b57600080fd5b5061036b6110f9565b34801561066057600080fd5b506103b861066f366004614b88565b611106565b34801561068057600080fd5b506103a061068f366004614ca2565b6111a0565b3480156106a057600080fd5b506103b8611400565b3480156106b557600080fd5b506103416106c4366004614b5c565b611781565b3480156106d557600080fd5b506103b860095481565b6103a06106ed366004614d4e565b6117e0565b3480156106fe57600080fd5b506103b861182d565b34801561071357600080fd5b506103b8610722366004614ba5565b6118d4565b34801561073357600080fd5b506103b8610742366004614b88565b611933565b34801561075357600080fd5b506103b86119b6565b34801561076857600080fd5b5061077c610777366004614b88565b611a32565b60408051948552602085019390935291830152606082015260800161034d565b3480156107a857600080fd5b506103b86107b7366004614be6565b611ad3565b3480156107c857600080fd5b506103b86107d7366004614be6565b611ade565b3480156107e857600080fd5b506103b86107f7366004614d4e565b6001600160a01b039182166000908152600e6020908152604080832093909416825291909152205490565b6103a0610830366004614b88565b611ae9565b34801561084157600080fd5b506103b8611b3b565b34801561085657600080fd5b506103b8610865366004614b88565b611c36565b34801561087657600080fd5b50600554610456906001600160a01b031681565b34801561089657600080fd5b50600054610456906001600160a01b031681565b3480156108b657600080fd5b506103b8611c6e565b3480156108cb57600080fd5b506103b86108da366004614be6565b611cc1565b6103b8611d2d565b600080548190600160a01b900460ff1661091c5760405162461bcd60e51b815260040161091390614d87565b60405180910390fd5b6000805460ff60a01b19168155610931611400565b905080156109615761095581601081111561094e5761094e614dab565b601e611d38565b60009250925050610971565b61096b3385611db1565b92509250505b6000805460ff60a01b1916600160a01b1790559092909150565b81610994575050565b6000815160056109a49190614dd7565b67ffffffffffffffff8111156109bc576109bc614bff565b6040519080825280601f01601f1916602001820160405280156109e6576020820181803683370190505b50905060005b8251811015610a4d57828181518110610a0757610a07614def565b602001015160f81c60f81b828281518110610a2457610a24614def565b60200101906001600160f81b031916908160001a90535080610a4581614e05565b9150506109ec565b600160fd1b82610a5e836000614dd7565b81518110610a6e57610a6e614def565b60200101906001600160f81b031916908160001a905350600560fb1b82610a96836001614dd7565b81518110610aa657610aa6614def565b60200101906001600160f81b031916908160001a905350610ac8600a85614e36565b610ad3906030614dd7565b60f81b82610ae2836002614dd7565b81518110610af257610af2614def565b60200101906001600160f81b031916908160001a905350610b14600a85614e4a565b610b1f906030614dd7565b60f81b82610b2e836003614dd7565b81518110610b3e57610b3e614def565b60200101906001600160f81b031916908160001a905350602960f81b82610b66836004614dd7565b81518110610b7657610b76614def565b60200101906001600160f81b031916908160001a905350818415610bad5760405162461bcd60e51b81526004016109139190614af2565b5050505050565b60018054610bc190614e5e565b80601f0160208091040260200160405190810160405280929190818152602001828054610bed90614e5e565b8015610c3a5780601f10610c0f57610100808354040283529160200191610c3a565b820191906000526020600020905b815481529060010190602001808311610c1d57829003601f168201915b505050505081565b336000818152600e602090815260408083206001600160a01b03871680855292528083208590555191929182907f8c5be1e5ebec7d5bd14f71427d1e84f3dd0314c0f7b2291e5b200ac8c7c3b92590610c9e9087815260200190565b60405180910390a360019150505b92915050565b6000610cbd346108e7565b509050610ced816040518060400160405280600b81526020016a1b5a5b9d0819985a5b195960aa1b81525061098b565b50565b60008054600160a01b900460ff16610d1a5760405162461bcd60e51b815260040161091390614d87565b6000805460ff60a01b19168155610d2f611400565b14610d4c5760405162461bcd60e51b815260040161091390614e93565b610d5582611106565b90505b6000805460ff60a01b1916600160a01b179055919050565b6000806000610d7d612247565b90925090506000826003811115610d9657610d96614dab565b14610cac5760405162461bcd60e51b815260206004820152603560248201527f65786368616e67655261746553746f7265643a2065786368616e67655261746560448201527414dd1bdc9959125b9d195c9b985b0819985a5b1959605a1b6064820152608401610913565b60008054600160a01b900460ff16610e2b5760405162461bcd60e51b815260040161091390614d87565b6000805460ff60a01b19168155610e4433868686612303565b1490506000805460ff60a01b1916600160a01b1790559392505050565b6000806040518060200160405280610e776119b6565b90526001600160a01b0384166000908152600d6020526040812054919250908190610ea39084906125bf565b90925090506000826003811115610ebc57610ebc614dab565b14610f095760405162461bcd60e51b815260206004820152601f60248201527f62616c616e636520636f756c64206e6f742062652063616c63756c61746564006044820152606401610913565b949350505050565b6000610f1b612611565b905090565b600080546001600160a01b03163314610f3f57610cac6001603f611d38565b600480546001600160a01b038481166001600160a01b031983168117909355604080519190921680825260208201939093527f7ac369dbd14fa5ea3f473ed67cc9d598964a77501540ba6751eb0b3decf5870d91015b60405180910390a160005b9392505050565b6000610fb234612643565b509050610ced81604051806040016040528060128152602001711c995c185e509bdc9c9bddc819985a5b195960721b81525061098b565b60008054600160a01b900460ff166110135760405162461bcd60e51b815260040161091390614d87565b6000805460ff60a01b19168155611028611400565b905080156110545761104c81601081111561104557611045614dab565b6030611d38565b915050610d58565b61105d836126b3565b9150506000805460ff60a01b1916600160a01b179055919050565b60008054600160a01b900460ff166110a25760405162461bcd60e51b815260040161091390614d87565b6000805460ff60a01b191681556110b7611400565b146110d45760405162461bcd60e51b815260040161091390614e93565b50600a546000805460ff60a01b1916600160a01b17905590565b6000610cac826127e4565b60028054610bc190614e5e565b600080600061111484612853565b9092509050600082600381111561112d5761112d614dab565b14610fa05760405162461bcd60e51b815260206004820152603760248201527f626f72726f7742616c616e636553746f7265643a20626f72726f7742616c616e60448201527f636553746f726564496e7465726e616c206661696c65640000000000000000006064820152608401610913565b6000546001600160a01b031633146112065760405162461bcd60e51b8152602060048201526024808201527f6f6e6c792061646d696e206d617920696e697469616c697a6520746865206d616044820152631c9ad95d60e21b6064820152608401610913565b6008541580156112165750600954155b61126e5760405162461bcd60e51b815260206004820152602360248201527f6d61726b6574206d6179206f6e6c7920626520696e697469616c697a6564206f6044820152626e636560e81b6064820152608401610913565b6006849055836112d95760405162461bcd60e51b815260206004820152603060248201527f696e697469616c2065786368616e67652072617465206d75737420626520677260448201526f32b0ba32b9103a3430b7103d32b9379760811b6064820152608401610913565b60006112e487610f20565b905080156113345760405162461bcd60e51b815260206004820152601a60248201527f73657474696e6720636f6d7074726f6c6c6572206661696c65640000000000006044820152606401610913565b43600855670de0b6b3a764000060095561134d8661290c565b905080156113a85760405162461bcd60e51b815260206004820152602260248201527f73657474696e6720696e7465726573742072617465206d6f64656c206661696c604482015261195960f21b6064820152608401610913565b83516113bb906001906020870190614a59565b5082516113cf906002906020860190614a59565b50506003805460ff90921660ff1990921691909117905550506000805460ff60a01b1916600160a01b179055505050565b60085460009043908082141561141a5760005b9250505090565b6000611424612611565b600a54600b546009546005546040516315f2405360e01b81526004810186905260248101859052604481018490529495509293919290916000916001600160a01b0316906315f240539060640160206040518083038186803b15801561148957600080fd5b505afa15801561149d573d6000803e3d6000fd5b505050506040513d601f19601f820116820180604052508101906114c19190614ec3565b905065048c273950008111156115195760405162461bcd60e51b815260206004820152601c60248201527f626f72726f772072617465206973206162737572646c792068696768000000006044820152606401610913565b600080611526898961299d565b9092509050600082600381111561153f5761153f614dab565b1461158c5760405162461bcd60e51b815260206004820152601f60248201527f636f756c64206e6f742063616c63756c61746520626c6f636b2064656c7461006044820152606401610913565b6040805160208101909152600081526000806000806115b960405180602001604052808a815250876129c8565b909750945060008760038111156115d2576115d2614dab565b14611608576115f5600960068960038111156115f0576115f0614dab565b612a44565b9e50505050505050505050505050505090565b611612858c6125bf565b9097509350600087600381111561162b5761162b614dab565b14611649576115f5600960018960038111156115f0576115f0614dab565b611653848c612abc565b9097509250600087600381111561166c5761166c614dab565b1461168a576115f5600960048960038111156115f0576115f0614dab565b6116a56040518060200160405280600754815250858c612aec565b909750915060008760038111156116be576116be614dab565b146116dc576115f5600960058960038111156115f0576115f0614dab565b6116e7858a8b612aec565b9097509050600087600381111561170057611700614dab565b1461171e576115f5600960038960038111156115f0576115f0614dab565b60088e90556009819055600a839055600b829055604080518d815260208101869052908101829052606081018490527f4dec04e750ca11537cabcd8a9eab06494de08da3735bc8871cd41250e190bc049060800160405180910390a160006115f5565b60008054600160a01b900460ff166117ab5760405162461bcd60e51b815260040161091390614d87565b6000805460ff60a01b191681556117c433338686612303565b1490506000805460ff60a01b1916600160a01b17905592915050565b60006117ed833484612b47565b50905061182881604051806040016040528060168152602001751b1a5c5d5a59185d19509bdc9c9bddc819985a5b195960521b81525061098b565b505050565b6005546000906001600160a01b031663b8168816611849612611565b600a54600b546007546040516001600160e01b031960e087901b16815260048101949094526024840192909252604483015260648201526084015b60206040518083038186803b15801561189c57600080fd5b505afa1580156118b0573d6000803e3d6000fd5b505050506040513d601f19601f82011682018060405250810190610f1b9190614ec3565b60008054600160a01b900460ff166118fe5760405162461bcd60e51b815260040161091390614d87565b6000805460ff60a01b1916905561191733858585612c7e565b90506000805460ff60a01b1916600160a01b1790559392505050565b600080546001600160a01b0316331461195257610cac60016045611d38565b600380546001600160a01b03848116610100818102610100600160a81b031985161790945560408051949093049091168084526020840191909152917fca4f2f25d0898edd99413412fb94012f9e54ec8142f9b093e7720646a95b16a99101610f95565b60008054600160a01b900460ff166119e05760405162461bcd60e51b815260040161091390614d87565b6000805460ff60a01b191681556119f5611400565b14611a125760405162461bcd60e51b815260040161091390614e93565b611a1a610d70565b90506000805460ff60a01b1916600160a01b17905590565b6001600160a01b0381166000908152600d6020526040812054819081908190818080611a5d89612853565b935090506000816003811115611a7557611a75614dab565b14611a935760095b6000806000975097509750975050505050611acc565b611a9b612247565b925090506000816003811115611ab357611ab3614dab565b14611abf576009611a7d565b5060009650919450925090505b9193509193565b6000610cac826130eb565b6000610cac82613158565b6000611af582346131c0565b509050611b37816040518060400160405280601881526020017f7265706179426f72726f77426568616c66206661696c6564000000000000000081525061098b565b5050565b60035460009061010090046001600160a01b031633141580611b5b575033155b15611b6c57610f1b60016000611d38565b60008054600380546001600160a01b03610100820481166001600160a01b031985168117909555610100600160a81b031990911690915560408051919092168082526020820184905292917ff9ffabca9c8276e99321725bcb43fb076a6c66a54b7f21c4e8146d8519b417dc910160405180910390a1600354604080516001600160a01b03808516825261010090930490921660208301527fca4f2f25d0898edd99413412fb94012f9e54ec8142f9b093e7720646a95b16a9910160405180910390a16000611413565b600080611c41611400565b90508015611c6557610fa0816010811115611c5e57611c5e614dab565b6040611d38565b610fa08361290c565b6005546000906001600160a01b03166315f24053611c8a612611565b600a54600b546040516001600160e01b031960e086901b168152600481019390935260248301919091526044820152606401611884565b60008054600160a01b900460ff16611ceb5760405162461bcd60e51b815260040161091390614d87565b6000805460ff60a01b19168155611d00611400565b90508015611d245761104c816010811115611d1d57611d1d614dab565b6046611d38565b61105d8361325e565b6000610f1b346132ec565b60007f45b96fe442630264581b197e84bbada861235052c5a1aadfff9ea4e40a969aa0836010811115611d6d57611d6d614dab565b836050811115611d7f57611d7f614dab565b60408051928352602083019190915260009082015260600160405180910390a1826010811115610fa057610fa0614dab565b60048054604051634ef4c3e160e01b8152600092839283926001600160a01b0390911691634ef4c3e191611deb9130918a918a9101614edc565b602060405180830381600087803b158015611e0557600080fd5b505af1158015611e19573d6000803e3d6000fd5b505050506040513d601f19601f82011682018060405250810190611e3d9190614ec3565b90508015611e5e57611e526003601f83612a44565b60009250925050612240565b4360085414611e7357611e52600a6022611d38565b611eb46040805160e0810190915280600081526020016000815260200160008152602001600081526020016000815260200160008152602001600081525090565b611ebc612247565b6040830181905260208301826003811115611ed957611ed9614dab565b6003811115611eea57611eea614dab565b9052506000905081602001516003811115611f0757611f07614dab565b14611f3657611f2960096021836020015160038111156115f0576115f0614dab565b6000935093505050612240565b611f408686613374565b60c0820181905260408051602081018252908301518152611f619190613406565b6060830181905260208301826003811115611f7e57611f7e614dab565b6003811115611f8f57611f8f614dab565b9052506000905081602001516003811115611fac57611fac614dab565b14611ff95760405162461bcd60e51b815260206004820181905260248201527f4d494e545f45584348414e47455f43414c43554c4154494f4e5f4641494c45446044820152606401610913565b612009600c548260600151612abc565b608083018190526020830182600381111561202657612026614dab565b600381111561203757612037614dab565b905250600090508160200151600381111561205457612054614dab565b146120b25760405162461bcd60e51b815260206004820152602860248201527f4d494e545f4e45575f544f54414c5f535550504c595f43414c43554c4154494f6044820152671397d1905253115160c21b6064820152608401610913565b6001600160a01b0386166000908152600d602052604090205460608201516120da9190612abc565b60a08301819052602083018260038111156120f7576120f7614dab565b600381111561210857612108614dab565b905250600090508160200151600381111561212557612125614dab565b146121865760405162461bcd60e51b815260206004820152602b60248201527f4d494e545f4e45575f4143434f554e545f42414c414e43455f43414c43554c4160448201526a151253d397d1905253115160aa1b6064820152608401610913565b6080810151600c5560a08101516001600160a01b0387166000908152600d6020526040908190209190915560c0820151606083015191517f4c209b5fc8ad50758f13e2e1088ba56a560dff690a1c6fef26394f4c03821c4f926121ed928a92909190614f00565b60405180910390a1856001600160a01b0316306001600160a01b0316600080516020614f7c833981519152836060015160405161222c91815260200190565b60405180910390a360c00151600093509150505b9250929050565b600c54600090819080612261575050600654600092909150565b600061226b612611565b905060006122856040518060200160405280600081525090565b600061229684600a54600b54613416565b9350905060008160038111156122ae576122ae614dab565b146122c0579660009650945050505050565b6122ca838661345a565b9250905060008160038111156122e2576122e2614dab565b146122f4579660009650945050505050565b50516000969095509350505050565b600480546040516317b9b84b60e31b815230928101929092526001600160a01b0385811660248401528481166044840152606483018490526000928392919091169063bdcdc25890608401602060405180830381600087803b15801561236857600080fd5b505af115801561237c573d6000803e3d6000fd5b505050506040513d601f19601f820116820180604052508101906123a09190614ec3565b905080156123bd576123b56003604a83612a44565b915050610f09565b836001600160a01b0316856001600160a01b031614156123e3576123b56002604b611d38565b6000856001600160a01b0316876001600160a01b0316141561240d57506001600160801b03612435565b506001600160a01b038086166000908152600e60209081526040808320938a16835292905220545b600080600080612445858961299d565b9094509250600084600381111561245e5761245e614dab565b1461247c5761246f6009604b611d38565b9650505050505050610f09565b6001600160a01b038a166000908152600d602052604090205461249f908961299d565b909450915060008460038111156124b8576124b8614dab565b146124c95761246f6009604c611d38565b6001600160a01b0389166000908152600d60205260409020546124ec9089612abc565b9094509050600084600381111561250557612505614dab565b146125165761246f6009604d611d38565b6001600160a01b03808b166000908152600d6020526040808220859055918b168152208190556001600160801b038514612573576001600160a01b03808b166000908152600e60209081526040808320938f168352929052208390555b886001600160a01b03168a6001600160a01b0316600080516020614f7c8339815191528a6040516125a691815260200190565b60405180910390a35060009a9950505050505050505050565b6000806000806125cf86866129c8565b909250905060008260038111156125e8576125e8614dab565b146125f95750915060009050612240565b600061260482613525565b9350935050509250929050565b6000806000612620473461299d565b9092509050600082600381111561263957612639614dab565b14610cac57600080fd5b600080548190600160a01b900460ff1661266f5760405162461bcd60e51b815260040161091390614d87565b6000805460ff60a01b19168155612684611400565b905080156126a8576109558160108111156126a1576126a1614dab565b6036611d38565b61096b33338661353d565b6000805481906001600160a01b031633146126d457610fa060016031611d38565b43600854146126e957610fa0600a6033611d38565b826126f2612611565b101561270457610fa0600e6032611d38565b600b5483111561271a57610fa060026034611d38565b82600b546127289190614f21565b9050600b548111156127885760405162461bcd60e51b8152602060048201526024808201527f72656475636520726573657276657320756e657870656374656420756e646572604482015263666c6f7760e01b6064820152608401610913565b600b8190556000546127a3906001600160a01b03168461396a565b6000546040517f3bad0c59cf2f06e7314077049f48a93578cd16f5ef92329f1dab1420a99c177e91610f95916001600160a01b039091169086908590614f00565b60008054600160a01b900460ff1661280e5760405162461bcd60e51b815260040161091390614d87565b6000805460ff60a01b19168155612823611400565b905080156128475761104c81601081111561284057612840614dab565b6027611d38565b61105d336000856139a0565b6001600160a01b0381166000908152600f60205260408120805482918291829182916128885750600096879650945050505050565b6128988160000154600954613f26565b909450925060008460038111156128b1576128b1614dab565b146128c457509195600095509350505050565b6128d2838260010154613f70565b909450915060008460038111156128eb576128eb614dab565b146128fe57509195600095509350505050565b506000969095509350505050565b6000805481906001600160a01b0316331461292d57610fa060016042611d38565b436008541461294257610fa0600a6041611d38565b50600580546001600160a01b038481166001600160a01b031983168117909355604080519190921680825260208201939093527fedffc32e068c7c95dfd4bdfd5c4d939a084d6b11c4199eac8436ed234d72f9269101610f95565b6000808383116129bc5760006129b38486614f21565b91509150612240565b50600390506000612240565b60006129e06040518060200160405280600081525090565b6000806129f1866000015186613f26565b90925090506000826003811115612a0a57612a0a614dab565b14612a2957506040805160208101909152600081529092509050612240565b60408051602081019091529081526000969095509350505050565b60007f45b96fe442630264581b197e84bbada861235052c5a1aadfff9ea4e40a969aa0846010811115612a7957612a79614dab565b846050811115612a8b57612a8b614dab565b604080519283526020830191909152810184905260600160405180910390a1836010811115610f0957610f09614dab565b60008080612aca8486614dd7565b9050848110612ade57600092509050612240565b600260009250925050612240565b600080600080612afc87876129c8565b90925090506000826003811115612b1557612b15614dab565b14612b265750915060009050612b3f565b612b38612b3282613525565b86612abc565b9350935050505b935093915050565b600080548190600160a01b900460ff16612b735760405162461bcd60e51b815260040161091390614d87565b6000805460ff60a01b19168155612b88611400565b90508015612bb857612bac816010811115612ba557612ba5614dab565b600f611d38565b60009250925050612c61565b836001600160a01b031663a6afed956040518163ffffffff1660e01b8152600401602060405180830381600087803b158015612bf357600080fd5b505af1158015612c07573d6000803e3d6000fd5b505050506040513d601f19601f82011682018060405250810190612c2b9190614ec3565b90508015612c4f57612bac816010811115612c4857612c48614dab565b6010611d38565b612c5b33878787613f9b565b92509250505b6000805460ff60a01b1916600160a01b1790559094909350915050565b6004805460405163d02f735160e01b815230928101929092526001600160a01b03868116602484015285811660448401528481166064840152608483018490526000928392919091169063d02f73519060a401602060405180830381600087803b158015612ceb57600080fd5b505af1158015612cff573d6000803e3d6000fd5b505050506040513d601f19601f82011682018060405250810190612d239190614ec3565b90508015612d38576123b56003601b83612a44565b846001600160a01b0316846001600160a01b03161415612d5e576123b56006601c611d38565b612dae604080516101208101909152806000815260200160008152602001600081526020016000815260200160008152602001600081526020016000815260200160008152602001600081525090565b6001600160a01b0385166000908152600d6020526040902054612dd1908561299d565b6020830181905282826003811115612deb57612deb614dab565b6003811115612dfc57612dfc614dab565b9052506000905081516003811115612e1657612e16614dab565b14612e4157612e386009601a836000015160038111156115f0576115f0614dab565b92505050610f09565b612e60846040518060200160405280666379da05b6000081525061443c565b60808201819052612e7290859061445f565b6060820152612e7f612247565b60c0830181905282826003811115612e9957612e99614dab565b6003811115612eaa57612eaa614dab565b9052506000905081516003811115612ec457612ec4614dab565b14612f115760405162461bcd60e51b815260206004820152601860248201527f65786368616e67652072617465206d617468206572726f7200000000000000006044820152606401610913565b612f3160405180602001604052808360c001518152508260800151614499565b60a08201819052600b54612f44916144b1565b60e0820152600c546080820151612f5b919061445f565b6101008201526001600160a01b0386166000908152600d60205260409020546060820151612f899190612abc565b6040830181905282826003811115612fa357612fa3614dab565b6003811115612fb457612fb4614dab565b9052506000905081516003811115612fce57612fce614dab565b14612ff057612e3860096019836000015160038111156115f0576115f0614dab565b60e0810151600b55610100810151600c556020808201516001600160a01b038781166000818152600d855260408082209490945583860151928b1680825290849020929092556060850151925192835290929091600080516020614f7c833981519152910160405180910390a3306001600160a01b0316856001600160a01b0316600080516020614f7c833981519152836080015160405161309491815260200190565b60405180910390a360a081015160e08201516040517fa91e67c5ea634cd43a12c5a482724b03de01e85ca68702a53d0c2f45cb7c1dc5926130d6923092614f00565b60405180910390a16000979650505050505050565b60008054600160a01b900460ff166131155760405162461bcd60e51b815260040161091390614d87565b6000805460ff60a01b1916815561312a611400565b9050801561314e5761104c81601081111561314757613147614dab565b6008611d38565b61105d33846144e7565b60008054600160a01b900460ff166131825760405162461bcd60e51b815260040161091390614d87565b6000805460ff60a01b19168155613197611400565b905080156131b45761104c81601081111561284057612840614dab565b61105d338460006139a0565b600080548190600160a01b900460ff166131ec5760405162461bcd60e51b815260040161091390614d87565b6000805460ff60a01b19168155613201611400565b905080156132315761322581601081111561321e5761321e614dab565b6035611d38565b60009250925050613242565b61323c33868661353d565b92509250505b6000805460ff60a01b1916600160a01b17905590939092509050565b600080546001600160a01b0316331461327d57610cac60016047611d38565b436008541461329257610cac600a6048611d38565b670de0b6b3a76400008211156132ae57610cac60026049611d38565b600780549083905560408051828152602081018590527faaa68312e2ea9d50e16af5068410ab56e1a1fd06037b1a35664812c30f8214609101610f95565b60008054600160a01b900460ff166133165760405162461bcd60e51b815260040161091390614d87565b6000805460ff60a01b1916815561332b611400565b9050801561334f5761104c81601081111561334857613348614dab565b604e611d38565b613358836147dd565b509150506000805460ff60a01b1916600160a01b179055919050565b6000336001600160a01b038416146133c05760405162461bcd60e51b815260206004820152600f60248201526e0e6cadcc8cae440dad2e6dac2e8c6d608b1b6044820152606401610913565b8134146134005760405162461bcd60e51b815260206004820152600e60248201526d0ecc2d8eaca40dad2e6dac2e8c6d60931b6044820152606401610913565b50919050565b6000806000806125cf86866148b7565b6000806000806134268787612abc565b9092509050600082600381111561343f5761343f614dab565b146134505750915060009050612b3f565b612b38818661299d565b60006134726040518060200160405280600081525090565b60008061348786670de0b6b3a7640000613f26565b909250905060008260038111156134a0576134a0614dab565b146134bf57506040805160208101909152600081529092509050612240565b6000806134cc8388613f70565b909250905060008260038111156134e5576134e5614dab565b146135085781604051806020016040528060008152509550955050505050612240565b604080516020810190915290815260009890975095505050505050565b8051600090610cac90670de0b6b3a764000090614e36565b60048054604051631200453160e11b815230928101929092526001600160a01b0385811660248401528481166044840152606483018490526000928392839216906324008a6290608401602060405180830381600087803b1580156135a157600080fd5b505af11580156135b5573d6000803e3d6000fd5b505050506040513d601f19601f820116820180604052508101906135d99190614ec3565b905080156135fa576135ee6003603883612a44565b60009250925050612b3f565b436008541461360f576135ee600a6039611d38565b6136586040805161010081019091528060008152602001600081526020016000815260200160008152602001600081526020016000815260200160008152602001600081525090565b6001600160a01b0386166000908152600f6020526040902060010154606082015261368286612853565b608083018190526020830182600381111561369f5761369f614dab565b60038111156136b0576136b0614dab565b90525060009050816020015160038111156136cd576136cd614dab565b146136fc576136ef60096037836020015160038111156115f0576115f0614dab565b6000935093505050612b3f565b6001600160801b0385141561371a5760808101516040820152613722565b604081018590525b613730878260400151613374565b60e0820181905260808201516137459161299d565b60a083018190526020830182600381111561376257613762614dab565b600381111561377357613773614dab565b905250600090508160200151600381111561379057613790614dab565b146138035760405162461bcd60e51b815260206004820152603a60248201527f52455041595f424f52524f575f4e45575f4143434f554e545f424f52524f575f60448201527f42414c414e43455f43414c43554c4154494f4e5f4641494c45440000000000006064820152608401610913565b613813600a548260e0015161299d565b60c083018190526020830182600381111561383057613830614dab565b600381111561384157613841614dab565b905250600090508160200151600381111561385e5761385e614dab565b146138c55760405162461bcd60e51b815260206004820152603160248201527f52455041595f424f52524f575f4e45575f544f54414c5f42414c414e43455f43604482015270105310d55310551253d397d19052531151607a1b6064820152608401610913565b60a081810180516001600160a01b038981166000818152600f602090815260409182902094855560095460019095019490945560c0870151600a81905560e088015195518251948f16855294840192909252820193909352606081019190915260808101919091527f1a2a22cb034d26d1854bdc6666a5b91fe25efbbb5dcad3b0355478d6f5c362a1910160405180910390a160e00151600097909650945050505050565b6040516001600160a01b0383169082156108fc029083906000818181858888f19350505050158015611828573d6000803e3d6000fd5b60008215806139ad575081155b613a165760405162461bcd60e51b815260206004820152603460248201527f6f6e65206f662072656465656d546f6b656e73496e206f722072656465656d416044820152736d6f756e74496e206d757374206265207a65726f60601b6064820152608401610913565b613a576040805160e0810190915280600081526020016000815260200160008152602001600081526020016000815260200160008152602001600081525090565b613a5f612247565b6040830181905260208301826003811115613a7c57613a7c614dab565b6003811115613a8d57613a8d614dab565b9052506000905081602001516003811115613aaa57613aaa614dab565b14613ad457613acc6009602b836020015160038111156115f0576115f0614dab565b915050610fa0565b8315613b6d576060810184905260408051602081018252908201518152613afb90856125bf565b6080830181905260208301826003811115613b1857613b18614dab565b6003811115613b2957613b29614dab565b9052506000905081602001516003811115613b4657613b46614dab565b14613b6857613acc60096029836020015160038111156115f0576115f0614dab565b613bfe565b613b898360405180602001604052808460400151815250613406565b6060830181905260208301826003811115613ba657613ba6614dab565b6003811115613bb757613bb7614dab565b9052506000905081602001516003811115613bd457613bd4614dab565b14613bf657613acc6009602a836020015160038111156115f0576115f0614dab565b608081018390525b60048054606083015160405163eabe7d9160e01b81526000936001600160a01b039093169263eabe7d9192613c389230928c929101614edc565b602060405180830381600087803b158015613c5257600080fd5b505af1158015613c66573d6000803e3d6000fd5b505050506040513d601f19601f82011682018060405250810190613c8a9190614ec3565b90508015613ca857613c9f6003602883612a44565b92505050610fa0565b4360085414613cbd57613c9f600a602c611d38565b613ccd600c54836060015161299d565b60a0840181905260208401826003811115613cea57613cea614dab565b6003811115613cfb57613cfb614dab565b9052506000905082602001516003811115613d1857613d18614dab565b14613d3a57613c9f6009602e846020015160038111156115f0576115f0614dab565b6001600160a01b0386166000908152600d60205260409020546060830151613d62919061299d565b60c0840181905260208401826003811115613d7f57613d7f614dab565b6003811115613d9057613d90614dab565b9052506000905082602001516003811115613dad57613dad614dab565b14613dcf57613c9f6009602d846020015160038111156115f0576115f0614dab565b8160800151613ddc612611565b1015613dee57613c9f600e602f611d38565b613dfc86836080015161396a565b60a0820151600c5560c08201516001600160a01b0387166000818152600d60205260409081902092909255606084015191513092600080516020614f7c83398151915291613e4c91815260200190565b60405180910390a3608082015160608301516040517fe5b754fb1abb7f01b499791d0b820ae3b6af3424ac1c59768edb53f4ec31a92992613e8e928a92614f00565b60405180910390a160048054608084015160608501516040516351dff98960e01b815230948101949094526001600160a01b038a811660248601526044850192909252606484015216906351dff98990608401600060405180830381600087803b158015613efb57600080fd5b505af1158015613f0f573d6000803e3d6000fd5b5060009250613f1c915050565b9695505050505050565b60008083613f3957506000905080612240565b6000613f458486614f38565b905083613f528683614e36565b14613f6557600260009250925050612240565b600092509050612240565b60008082613f845750600190506000612240565b6000613f908486614e36565b915091509250929050565b60048054604051632fe3f38f60e11b815230928101929092526001600160a01b0383811660248401528681166044840152858116606484015260848301859052600092839283921690635fc7e71e9060a401602060405180830381600087803b15801561400757600080fd5b505af115801561401b573d6000803e3d6000fd5b505050506040513d601f19601f8201168201806040525081019061403f9190614ec3565b90508015614060576140546003601283612a44565b60009250925050614433565b436008541461407557614054600a6016611d38565b436008541461408a57614054600a6011611d38565b866001600160a01b0316866001600160a01b031614156140b05761405460066017611d38565b846140c15761405460076015611d38565b6001600160801b038514156140dc5761405460076014611d38565b6000806140ea89898961353d565b9092509050811561411f5761411182601081111561410a5761410a614dab565b6018611d38565b600094509450505050614433565b6004805460405163c488847b60e01b815260009283926001600160a01b03169163c488847b916141559130918d91899101614edc565b604080518083038186803b15801561416c57600080fd5b505afa158015614180573d6000803e3d6000fd5b505050506040513d601f19601f820116820180604052508101906141a49190614f57565b909250905081156142135760405162461bcd60e51b815260206004820152603360248201527f4c49515549444154455f434f4d5054524f4c4c45525f43414c43554c4154455f604482015272105353d5539517d4d152569157d19052531151606a1b6064820152608401610913565b6040516370a0823160e01b81526001600160a01b038b811660048301528291908a16906370a082319060240160206040518083038186803b15801561425757600080fd5b505afa15801561426b573d6000803e3d6000fd5b505050506040513d601f19601f8201168201806040525081019061428f9190614ec3565b10156142dd5760405162461bcd60e51b815260206004820152601860248201527f4c49515549444154455f5345495a455f544f4f5f4d55434800000000000000006044820152606401610913565b60006001600160a01b038916301415614303576142fc308d8d85612c7e565b9050614388565b60405163b2a02ff160e01b81526001600160a01b038a169063b2a02ff190614333908f908f908790600401614edc565b602060405180830381600087803b15801561434d57600080fd5b505af1158015614361573d6000803e3d6000fd5b505050506040513d601f19601f820116820180604052508101906143859190614ec3565b90505b80156143cd5760405162461bcd60e51b81526020600482015260146024820152731d1bdad95b881cd95a5e9d5c994819985a5b195960621b6044820152606401610913565b604080516001600160a01b038e811682528d811660208301528183018790528b1660608201526080810184905290517f298637f684da70674f26509b10f07ec2fbc77a335ab1e7d6215a4b2484d8bb529181900360a00190a16000975092955050505050505b94509492505050565b6000670de0b6b3a764000061445584846000015161492a565b610fa09190614e36565b6000610fa08383604051806040016040528060158152602001747375627472616374696f6e20756e646572666c6f7760581b81525061496c565b6000806144a6848461499b565b9050610f0981613525565b6000610fa08383604051806040016040528060118152602001706164646974696f6e206f766572666c6f7760781b8152506149cc565b6004805460405163368f515360e21b815260009283926001600160a01b03169163da3d454c9161451d9130918991899101614edc565b602060405180830381600087803b15801561453757600080fd5b505af115801561454b573d6000803e3d6000fd5b505050506040513d601f19601f8201168201806040525081019061456f9190614ec3565b9050801561458c576145846003600e83612a44565b915050610cac565b43600854146145a057614584600a80611d38565b826145a9612611565b10156145bb57614584600e6009611d38565b6145e7604080516080810190915280600081526020016000815260200160008152602001600081525090565b6145f085612853565b602083018190528282600381111561460a5761460a614dab565b600381111561461b5761461b614dab565b905250600090508151600381111561463557614635614dab565b146146605761465760096007836000015160038111156115f0576115f0614dab565b92505050610cac565b61466e816020015185612abc565b604083018190528282600381111561468857614688614dab565b600381111561469957614699614dab565b90525060009050815160038111156146b3576146b3614dab565b146146d5576146576009600c836000015160038111156115f0576115f0614dab565b6146e1600a5485612abc565b60608301819052828260038111156146fb576146fb614dab565b600381111561470c5761470c614dab565b905250600090508151600381111561472657614726614dab565b14614748576146576009600b836000015160038111156115f0576115f0614dab565b614752858561396a565b604081810180516001600160a01b0388166000818152600f602090815290859020928355600954600190930192909255606080860151600a8190559351855192835292820189905293810191909152918201527f13ed6866d4e1ee6da46f845c46d7e54120883d75c5ea9a2dacc1c4ca8984ab809060800160405180910390a1600095945050505050565b60008080804360085414614801576147f7600a604f611d38565b9590945092505050565b61480b3386613374565b905080600b5461481b9190614dd7565b9150600b5482101561486f5760405162461bcd60e51b815260206004820181905260248201527f61646420726573657276657320756e6578706563746564206f766572666c6f776044820152606401610913565b600b8290556040517fa91e67c5ea634cd43a12c5a482724b03de01e85ca68702a53d0c2f45cb7c1dc5906148a890339084908690614f00565b60405180910390a160006147f7565b60006148cf6040518060200160405280600081525090565b6000806148e4670de0b6b3a764000087613f26565b909250905060008260038111156148fd576148fd614dab565b1461491c57506040805160208101909152600081529092509050612240565b61260481866000015161345a565b6000610fa083836040518060400160405280601781526020017f6d756c7469706c69636174696f6e206f766572666c6f77000000000000000000815250614a06565b600081848411156149905760405162461bcd60e51b81526004016109139190614af2565b50610f098385614f21565b60408051602081019091526000815260405180602001604052806149c385600001518561492a565b90529392505050565b6000806149d98486614dd7565b905082858210156149fd5760405162461bcd60e51b81526004016109139190614af2565b50949350505050565b6000831580614a13575082155b15614a2057506000610fa0565b6000614a2c8486614f38565b905083614a398683614e36565b1483906149fd5760405162461bcd60e51b81526004016109139190614af2565b828054614a6590614e5e565b90600052602060002090601f016020900481019282614a875760008555614acd565b82601f10614aa057805160ff1916838001178555614acd565b82800160010185558215614acd579182015b82811115614acd578251825591602001919060010190614ab2565b50614ad9929150614add565b5090565b5b80821115614ad95760008155600101614ade565b600060208083528351808285015260005b81811015614b1f57858101830151858201604001528201614b03565b81811115614b31576000604083870101525b50601f01601f1916929092016040019392505050565b6001600160a01b0381168114610ced57600080fd5b60008060408385031215614b6f57600080fd5b8235614b7a81614b47565b946020939093013593505050565b600060208284031215614b9a57600080fd5b8135610fa081614b47565b600080600060608486031215614bba57600080fd5b8335614bc581614b47565b92506020840135614bd581614b47565b929592945050506040919091013590565b600060208284031215614bf857600080fd5b5035919050565b634e487b7160e01b600052604160045260246000fd5b600082601f830112614c2657600080fd5b813567ffffffffffffffff80821115614c4157614c41614bff565b604051601f8301601f19908116603f01168101908282118183101715614c6957614c69614bff565b81604052838152866020858801011115614c8257600080fd5b836020870160208301376000602085830101528094505050505092915050565b60008060008060008060c08789031215614cbb57600080fd5b8635614cc681614b47565b95506020870135614cd681614b47565b945060408701359350606087013567ffffffffffffffff80821115614cfa57600080fd5b614d068a838b01614c15565b94506080890135915080821115614d1c57600080fd5b50614d2989828a01614c15565b92505060a087013560ff81168114614d4057600080fd5b809150509295509295509295565b60008060408385031215614d6157600080fd5b8235614d6c81614b47565b91506020830135614d7c81614b47565b809150509250929050565b6020808252600a90820152691c994b595b9d195c995960b21b604082015260600190565b634e487b7160e01b600052602160045260246000fd5b634e487b7160e01b600052601160045260246000fd5b60008219821115614dea57614dea614dc1565b500190565b634e487b7160e01b600052603260045260246000fd5b6000600019821415614e1957614e19614dc1565b5060010190565b634e487b7160e01b600052601260045260246000fd5b600082614e4557614e45614e20565b500490565b600082614e5957614e59614e20565b500690565b600181811c90821680614e7257607f821691505b6020821081141561340057634e487b7160e01b600052602260045260246000fd5b6020808252601690820152751858d8dc9d59481a5b9d195c995cdd0819985a5b195960521b604082015260600190565b600060208284031215614ed557600080fd5b5051919050565b6001600160a01b039384168152919092166020820152604081019190915260600190565b6001600160a01b039390931683526020830191909152604082015260600190565b600082821015614f3357614f33614dc1565b500390565b6000816000190483118215151615614f5257614f52614dc1565b500290565b60008060408385031215614f6a57600080fd5b50508051602090910151909290915056feddf252ad1be2c89b69c2b068fc378daa952ba7f163c4a11628f55a4df523b3efa2646970667358221220690335fa580f2c34ce75767408641503d8f620a5e3d57a3038013da34efbcfb764736f6c63430008090033",
    "sourcePath": "/media/dell/Hard Disk/Projects/openzeppelin-contracts/contracts/BToken/BEther.sol",
    "compiler": {
        "name": "solc",
        "version": "0.8.9+commit.e5eed63a"
    },
    "functionHashes": {
        "_acceptAdmin()": "e9c714f2",
        "_addReserves()": "fcb64147",
        "_reduceReserves(uint256)": "601a0bf1",
        "_setComptroller(address)": "4576b5db",
        "_setInterestRateModel(address)": "f2b3abbd",
        "_setPendingAdmin(address)": "b71d1a0c",
        "_setReserveFactor(uint256)": "fca7820b",
        "accrualBlockNumber()": "6c540baf",
        "accrueInterest()": "a6afed95",
        "admin()": "f851a440",
        "allowance(address,address)": "dd62ed3e",
        "approve(address,uint256)": "095ea7b3",
        "balanceOf(address)": "70a08231",
        "balanceOfUnderlying(address)": "3af9e669",
        "borrow(uint256)": "c5ebeaec",
        "borrowBalanceCurrent(address)": "17bfdfbc",
        "borrowBalanceStored(address)": "95dd9193",
        "borrowIndex()": "aa5af0fd",
        "borrowRatePerBlock()": "f8f9da28",
        "comptroller()": "5fe3b567",
        "decimals()": "313ce567",
        "exchangeRateCurrent()": "bd6d894d",
        "exchangeRateStored()": "182df0f5",
        "getAccountSnapshot(address)": "c37f68e2",
        "getCash()": "3b1d21a2",
        "implementation()": "5c60da1b",
        "initialize(address,address,uint256,string,string,uint8)": "99d8c1b4",
        "interestRateModel()": "f3fdb15a",
        "isCToken()": "fe9c44ae",
        "isComptroller()": "007e3dd2",
        "isInterestRateModel()": "2191f92a",
        "liquidateBorrow(address,address)": "aae40a2a",
        "mint()": "1249c58b",
        "name()": "06fdde03",
        "pendingAdmin()": "26782247",
        "protocolSeizeShareMantissa()": "6752e702",
        "redeem(uint256)": "db006a75",
        "redeemUnderlying(uint256)": "852a12e3",
        "repayBorrow()": "4e4d9fea",
        "repayBorrowBehalf(address)": "e5974619",
        "reserveFactorMantissa()": "173b9904",
        "seize(address,address,uint256)": "b2a02ff1",
        "supplyRatePerBlock()": "ae9d70b0",
        "symbol()": "95d89b41",
        "totalBorrows()": "47bd3718",
        "totalBorrowsCurrent()": "73acee98",
        "totalReserves()": "8f840ddd",
        "totalSupply()": "18160ddd",
        "transfer(address,uint256)": "a9059cbb",
        "transferFrom(address,address,uint256)": "23b872dd",
        "underlying()": "6f307dc3"
    },
    "gasEstimates": {
        "creation": {
            "codeDepositCost": "4086600",
            "executionCost": "infinite",
            "totalCost": "infinite"
        },
        "external": {
            "": "infinite",
            "_acceptAdmin()": "55895",
            "_addReserves()": "infinite",
            "_reduceReserves(uint256)": "infinite",
            "_setComptroller(address)": "infinite",
            "_setInterestRateModel(address)": "infinite",
            "_setPendingAdmin(address)": "infinite",
            "_setReserveFactor(uint256)": "83077",
            "accrualBlockNumber()": "2362",
            "accrueInterest()": "infinite",
            "admin()": "2448",
            "allowance(address,address)": "infinite",
            "approve(address,uint256)": "24582",
            "balanceOf(address)": "2642",
            "balanceOfUnderlying(address)": "infinite",
            "borrow(uint256)": "infinite",
            "borrowBalanceCurrent(address)": "infinite",
            "borrowBalanceStored(address)": "7431",
            "borrowIndex()": "2385",
            "borrowRatePerBlock()": "infinite",
            "comptroller()": "2405",
            "decimals()": "2469",
            "exchangeRateCurrent()": "57522",
            "exchangeRateStored()": "4626",
            "getAccountSnapshot(address)": "9624",
            "getCash()": "549",
            "implementation()": "2493",
            "initialize(address,address,uint256,string,string,uint8)": "infinite",
            "interestRateModel()": "2426",
            "isCToken()": "322",
            "isComptroller()": "237",
            "isInterestRateModel()": "280",
            "liquidateBorrow(address,address)": "infinite",
            "mint()": "infinite",
            "name()": "infinite",
            "pendingAdmin()": "2482",
            "protocolSeizeShareMantissa()": "307",
            "redeem(uint256)": "infinite",
            "redeemUnderlying(uint256)": "infinite",
            "repayBorrow()": "infinite",
            "repayBorrowBehalf(address)": "infinite",
            "reserveFactorMantissa()": "2430",
            "seize(address,address,uint256)": "infinite",
            "supplyRatePerBlock()": "infinite",
            "symbol()": "infinite",
            "totalBorrows()": "2407",
            "totalBorrowsCurrent()": "infinite",
            "totalReserves()": "2363",
            "totalSupply()": "2341",
            "transfer(address,uint256)": "infinite",
            "transferFrom(address,address,uint256)": "infinite",
            "underlying()": "2426"
        },
        "internal": {
            "doTransferIn(address,uint256)": "infinite",
            "doTransferOut(address payable,uint256)": "infinite",
            "getCashPrior()": "254",
            "requireNoError(uint256,string memory)": "infinite"
        }
    }
}